{
  "contractName": "Factory",
  "abi": [
    {
      "inputs": [
        {
          "internalType": "contract IERC20",
          "name": "_paymentToken",
          "type": "address"
        },
        {
          "internalType": "contract Portfolio",
          "name": "_portfolio",
          "type": "address"
        }
      ],
      "stateMutability": "nonpayable",
      "type": "constructor"
    },
    {
      "anonymous": false,
      "inputs": [
        {
          "indexed": true,
          "internalType": "address",
          "name": "previousOwner",
          "type": "address"
        },
        {
          "indexed": true,
          "internalType": "address",
          "name": "newOwner",
          "type": "address"
        }
      ],
      "name": "OwnershipTransferred",
      "type": "event"
    },
    {
      "anonymous": false,
      "inputs": [
        {
          "indexed": false,
          "internalType": "uint256",
          "name": "index",
          "type": "uint256"
        },
        {
          "components": [
            {
              "internalType": "uint256",
              "name": "id",
              "type": "uint256"
            },
            {
              "internalType": "string",
              "name": "name",
              "type": "string"
            },
            {
              "internalType": "address",
              "name": "saleAddress",
              "type": "address"
            },
            {
              "internalType": "uint256",
              "name": "price",
              "type": "uint256"
            },
            {
              "internalType": "uint256",
              "name": "numberOfPortions",
              "type": "uint256"
            },
            {
              "internalType": "uint256",
              "name": "timeBetweenPortions",
              "type": "uint256"
            },
            {
              "internalType": "address",
              "name": "projectToken",
              "type": "address"
            }
          ],
          "indexed": false,
          "internalType": "struct Factory.InfoSale",
          "name": "infoSale",
          "type": "tuple"
        }
      ],
      "name": "SaleCreated",
      "type": "event"
    },
    {
      "inputs": [],
      "name": "maxAmount",
      "outputs": [
        {
          "internalType": "uint256",
          "name": "",
          "type": "uint256"
        }
      ],
      "stateMutability": "view",
      "type": "function",
      "constant": true
    },
    {
      "inputs": [],
      "name": "owner",
      "outputs": [
        {
          "internalType": "address",
          "name": "",
          "type": "address"
        }
      ],
      "stateMutability": "view",
      "type": "function",
      "constant": true
    },
    {
      "inputs": [],
      "name": "paymentToken",
      "outputs": [
        {
          "internalType": "contract IERC20",
          "name": "",
          "type": "address"
        }
      ],
      "stateMutability": "view",
      "type": "function",
      "constant": true
    },
    {
      "inputs": [],
      "name": "portfolioContract",
      "outputs": [
        {
          "internalType": "contract Portfolio",
          "name": "",
          "type": "address"
        }
      ],
      "stateMutability": "view",
      "type": "function",
      "constant": true
    },
    {
      "inputs": [],
      "name": "renounceOwnership",
      "outputs": [],
      "stateMutability": "nonpayable",
      "type": "function"
    },
    {
      "inputs": [],
      "name": "saleCounter",
      "outputs": [
        {
          "internalType": "uint256",
          "name": "",
          "type": "uint256"
        }
      ],
      "stateMutability": "view",
      "type": "function",
      "constant": true
    },
    {
      "inputs": [
        {
          "internalType": "address",
          "name": "newOwner",
          "type": "address"
        }
      ],
      "name": "transferOwnership",
      "outputs": [],
      "stateMutability": "nonpayable",
      "type": "function"
    },
    {
      "inputs": [
        {
          "internalType": "string",
          "name": "_name",
          "type": "string"
        },
        {
          "internalType": "uint256",
          "name": "_numberOfPortions",
          "type": "uint256"
        },
        {
          "internalType": "uint256",
          "name": "_timeBetweenPortions",
          "type": "uint256"
        },
        {
          "internalType": "uint256",
          "name": "_price",
          "type": "uint256"
        },
        {
          "internalType": "contract IERC20",
          "name": "_projectToken",
          "type": "address"
        }
      ],
      "name": "createSale",
      "outputs": [],
      "stateMutability": "nonpayable",
      "type": "function"
    },
    {
      "inputs": [
        {
          "internalType": "address",
          "name": "_user",
          "type": "address"
        }
      ],
      "name": "getUserSales",
      "outputs": [
        {
          "internalType": "uint256[]",
          "name": "",
          "type": "uint256[]"
        }
      ],
      "stateMutability": "view",
      "type": "function",
      "constant": true
    },
    {
      "inputs": [],
      "name": "getMySales",
      "outputs": [
        {
          "internalType": "uint256[]",
          "name": "",
          "type": "uint256[]"
        }
      ],
      "stateMutability": "view",
      "type": "function",
      "constant": true
    },
    {
      "inputs": [
        {
          "internalType": "uint256",
          "name": "_saleId",
          "type": "uint256"
        }
      ],
      "name": "getSale",
      "outputs": [
        {
          "components": [
            {
              "internalType": "uint256",
              "name": "id",
              "type": "uint256"
            },
            {
              "internalType": "string",
              "name": "name",
              "type": "string"
            },
            {
              "internalType": "address",
              "name": "saleAddress",
              "type": "address"
            },
            {
              "internalType": "uint256",
              "name": "price",
              "type": "uint256"
            },
            {
              "internalType": "uint256",
              "name": "numberOfPortions",
              "type": "uint256"
            },
            {
              "internalType": "uint256",
              "name": "timeBetweenPortions",
              "type": "uint256"
            },
            {
              "internalType": "address",
              "name": "projectToken",
              "type": "address"
            }
          ],
          "internalType": "struct Factory.InfoSale",
          "name": "saleAddress",
          "type": "tuple"
        }
      ],
      "stateMutability": "view",
      "type": "function",
      "constant": true
    },
    {
      "inputs": [],
      "name": "getSalesLength",
      "outputs": [
        {
          "internalType": "uint256",
          "name": "length",
          "type": "uint256"
        }
      ],
      "stateMutability": "view",
      "type": "function",
      "constant": true
    },
    {
      "inputs": [
        {
          "internalType": "uint256",
          "name": "start",
          "type": "uint256"
        },
        {
          "internalType": "uint256",
          "name": "end",
          "type": "uint256"
        }
      ],
      "name": "getSales",
      "outputs": [
        {
          "internalType": "address[]",
          "name": "saleAddresses",
          "type": "address[]"
        }
      ],
      "stateMutability": "view",
      "type": "function",
      "constant": true
    },
    {
      "inputs": [
        {
          "internalType": "address",
          "name": "_saleAddress",
          "type": "address"
        }
      ],
      "name": "isSaleValid",
      "outputs": [
        {
          "internalType": "bool",
          "name": "",
          "type": "bool"
        }
      ],
      "stateMutability": "view",
      "type": "function",
      "constant": true
    }
  ],
  "bytecode": "0x60806040523480156200001157600080fd5b50604051620059f7380380620059f7833981810160405281019062000037919062000270565b620000576200004b620000e160201b60201c565b620000e960201b60201c565b81600660006101000a81548173ffffffffffffffffffffffffffffffffffffffff021916908373ffffffffffffffffffffffffffffffffffffffff16021790555080600760006101000a81548173ffffffffffffffffffffffffffffffffffffffff021916908373ffffffffffffffffffffffffffffffffffffffff1602179055505050620002b7565b600033905090565b60008060009054906101000a900473ffffffffffffffffffffffffffffffffffffffff169050816000806101000a81548173ffffffffffffffffffffffffffffffffffffffff021916908373ffffffffffffffffffffffffffffffffffffffff1602179055508173ffffffffffffffffffffffffffffffffffffffff168173ffffffffffffffffffffffffffffffffffffffff167f8be0079c531659141344cd1fd0a4f28419497f9722a3daafe3b4186f6b6457e060405160405180910390a35050565b600080fd5b600073ffffffffffffffffffffffffffffffffffffffff82169050919050565b6000620001df82620001b2565b9050919050565b6000620001f382620001d2565b9050919050565b6200020581620001e6565b81146200021157600080fd5b50565b6000815190506200022581620001fa565b92915050565b60006200023882620001d2565b9050919050565b6200024a816200022b565b81146200025657600080fd5b50565b6000815190506200026a816200023f565b92915050565b600080604083850312156200028a5762000289620001ad565b5b60006200029a8582860162000214565b9250506020620002ad8582860162000259565b9150509250929050565b61573080620002c76000396000f3fe60806040523480156200001157600080fd5b5060043610620001005760003560e01c80636328a2061162000099578063caca0449116200006f578063caca04491462000269578063d8f6d596146200029f578063ebadff6914620002d5578063f2fde38b14620002f75762000100565b80636328a206146200021b578063715018a6146200023b5780638da5cb5b14620002475762000100565b80633013ce2911620000db5780633013ce29146200017f578063421d2ccf14620001a15780634a13c3c614620001d75780635f48f39314620001f95762000100565b80630387b0a214620001055780630a94fccc14620001275780631a9277791462000149575b600080fd5b6200010f62000317565b6040516200011e919062000fc1565b60405180910390f35b620001316200031d565b60405162000140919062000fc1565b60405180910390f35b62000167600480360381019062000161919062001023565b6200032a565b6040516200017691906200116c565b60405180910390f35b62000189620004e2565b604051620001989190620011fb565b60405180910390f35b620001bf6004803603810190620001b9919062001249565b62000508565b604051620001ce919062001298565b60405180910390f35b620001e16200055e565b604051620001f09190620012da565b60405180910390f35b6200020362000584565b60405162000212919062000fc1565b60405180910390f35b6200023960048036038101906200023391906200149e565b62000589565b005b62000245620009ad565b005b6200025162000a3e565b60405162000260919062001556565b60405180910390f35b62000287600480360381019062000281919062001249565b62000a67565b60405162000296919062001641565b60405180910390f35b620002bd6004803603810190620002b7919062001665565b62000b00565b604051620002cc9190620017d4565b60405180910390f35b620002df62000c9d565b604051620002ee919062001641565b60405180910390f35b6200031560048036038101906200030f919062001249565b62000caf565b005b60015481565b6000600580549050905090565b606082821162000371576040517f08c379a000000000000000000000000000000000000000000000000000000000815260040162000368906200187f565b60405180910390fd5b6005805490508210620003bb576040517f08c379a0000000000000000000000000000000000000000000000000000000008152600401620003b29062001917565b60405180910390fd5b8282620003c9919062001968565b67ffffffffffffffff811115620003e557620003e462001312565b5b604051908082528060200260200182016040528015620004145781602001602082028036833780820191505090505b50905060008390505b82811015620004db57600581815481106200043d576200043c620019a3565b5b9060005260206000200160009054906101000a900473ffffffffffffffffffffffffffffffffffffffff1682858362000477919062001968565b815181106200048b576200048a620019a3565b5b602002602001019073ffffffffffffffffffffffffffffffffffffffff16908173ffffffffffffffffffffffffffffffffffffffff16815250508080620004d290620019d2565b9150506200041d565b5092915050565b600660009054906101000a900473ffffffffffffffffffffffffffffffffffffffff1681565b6000600460008373ffffffffffffffffffffffffffffffffffffffff1673ffffffffffffffffffffffffffffffffffffffff16815260200190815260200160002060009054906101000a900460ff169050919050565b600760009054906101000a900473ffffffffffffffffffffffffffffffffffffffff1681565b600581565b6005600260003373ffffffffffffffffffffffffffffffffffffffff1673ffffffffffffffffffffffffffffffffffffffff168152602001908152602001600020805490501062000611576040517f08c379a0000000000000000000000000000000000000000000000000000000008152600401620006089062001a70565b60405180910390fd5b6000600154868686863387600660009054906101000a900473ffffffffffffffffffffffffffffffffffffffff16600760009054906101000a900473ffffffffffffffffffffffffffffffffffffffff16604051620006709062000e7f565b620006849998979695949392919062001ad3565b604051809103906000f080158015620006a1573d6000803e3d6000fd5b50905060008190506005819080600181540180825580915050600190039060005260206000200160009091909190916101000a81548173ffffffffffffffffffffffffffffffffffffffff021916908373ffffffffffffffffffffffffffffffffffffffff1602179055506001600460008373ffffffffffffffffffffffffffffffffffffffff1673ffffffffffffffffffffffffffffffffffffffff16815260200190815260200160002060006101000a81548160ff02191690831515021790555060015460036000600154815260200190815260200160002060000181905550866003600060015481526020019081526020016000206001019080519060200190620007b192919062000e8d565b508060036000600154815260200190815260200160002060020160006101000a81548173ffffffffffffffffffffffffffffffffffffffff021916908373ffffffffffffffffffffffffffffffffffffffff1602179055508360036000600154815260200190815260200160002060030181905550856003600060015481526020019081526020016000206004018190555084600360006001548152602001908152602001600020600501819055508260036000600154815260200190815260200160002060060160006101000a81548173ffffffffffffffffffffffffffffffffffffffff021916908373ffffffffffffffffffffffffffffffffffffffff160217905550600260003373ffffffffffffffffffffffffffffffffffffffff1673ffffffffffffffffffffffffffffffffffffffff1681526020019081526020016000206001549080600181540180825580915050600190039060005260206000200160009091909190915055600160008154809291906200093490620019d2565b91905055507fab721dfc0804937aee6a6b12d9818ff3950ec2ee50dca50587200cb87033c176600180546200096a919062001968565b60036000600180546200097e919062001968565b81526020019081526020016000206040516200099c92919062001deb565b60405180910390a150505050505050565b620009b762000db3565b73ffffffffffffffffffffffffffffffffffffffff16620009d762000a3e565b73ffffffffffffffffffffffffffffffffffffffff161462000a30576040517f08c379a000000000000000000000000000000000000000000000000000000000815260040162000a279062001e6f565b60405180910390fd5b62000a3c600062000dbb565b565b60008060009054906101000a900473ffffffffffffffffffffffffffffffffffffffff16905090565b6060600260008373ffffffffffffffffffffffffffffffffffffffff1673ffffffffffffffffffffffffffffffffffffffff16815260200190815260200160002080548060200260200160405190810160405280929190818152602001828054801562000af457602002820191906000526020600020905b81548152602001906001019080831162000adf575b50505050509050919050565b62000b0a62000f1e565b600360008381526020019081526020016000206040518060e00160405290816000820154815260200160018201805462000b449062001bdd565b80601f016020809104026020016040519081016040528092919081815260200182805462000b729062001bdd565b801562000bc35780601f1062000b975761010080835404028352916020019162000bc3565b820191906000526020600020905b81548152906001019060200180831162000ba557829003601f168201915b505050505081526020016002820160009054906101000a900473ffffffffffffffffffffffffffffffffffffffff1673ffffffffffffffffffffffffffffffffffffffff1673ffffffffffffffffffffffffffffffffffffffff1681526020016003820154815260200160048201548152602001600582015481526020016006820160009054906101000a900473ffffffffffffffffffffffffffffffffffffffff1673ffffffffffffffffffffffffffffffffffffffff1673ffffffffffffffffffffffffffffffffffffffff16815250509050919050565b606062000caa3362000a67565b905090565b62000cb962000db3565b73ffffffffffffffffffffffffffffffffffffffff1662000cd962000a3e565b73ffffffffffffffffffffffffffffffffffffffff161462000d32576040517f08c379a000000000000000000000000000000000000000000000000000000000815260040162000d299062001e6f565b60405180910390fd5b600073ffffffffffffffffffffffffffffffffffffffff168173ffffffffffffffffffffffffffffffffffffffff16141562000da5576040517f08c379a000000000000000000000000000000000000000000000000000000000815260040162000d9c9062001f07565b60405180910390fd5b62000db08162000dbb565b50565b600033905090565b60008060009054906101000a900473ffffffffffffffffffffffffffffffffffffffff169050816000806101000a81548173ffffffffffffffffffffffffffffffffffffffff021916908373ffffffffffffffffffffffffffffffffffffffff1602179055508173ffffffffffffffffffffffffffffffffffffffff168173ffffffffffffffffffffffffffffffffffffffff167f8be0079c531659141344cd1fd0a4f28419497f9722a3daafe3b4186f6b6457e060405160405180910390a35050565b6137d18062001f2a83390190565b82805462000e9b9062001bdd565b90600052602060002090601f01602090048101928262000ebf576000855562000f0b565b82601f1062000eda57805160ff191683800117855562000f0b565b8280016001018555821562000f0b579182015b8281111562000f0a57825182559160200191906001019062000eed565b5b50905062000f1a919062000f87565b5090565b6040518060e001604052806000815260200160608152602001600073ffffffffffffffffffffffffffffffffffffffff168152602001600081526020016000815260200160008152602001600073ffffffffffffffffffffffffffffffffffffffff1681525090565b5b8082111562000fa257600081600090555060010162000f88565b5090565b6000819050919050565b62000fbb8162000fa6565b82525050565b600060208201905062000fd8600083018462000fb0565b92915050565b6000604051905090565b600080fd5b600080fd5b62000ffd8162000fa6565b81146200100957600080fd5b50565b6000813590506200101d8162000ff2565b92915050565b600080604083850312156200103d576200103c62000fe8565b5b60006200104d858286016200100c565b925050602062001060858286016200100c565b9150509250929050565b600081519050919050565b600082825260208201905092915050565b6000819050602082019050919050565b600073ffffffffffffffffffffffffffffffffffffffff82169050919050565b6000620010c38262001096565b9050919050565b620010d581620010b6565b82525050565b6000620010e98383620010ca565b60208301905092915050565b6000602082019050919050565b60006200110f826200106a565b6200111b818562001075565b9350620011288362001086565b8060005b838110156200115f578151620011438882620010db565b97506200115083620010f5565b9250506001810190506200112c565b5085935050505092915050565b6000602082019050818103600083015262001188818462001102565b905092915050565b6000819050919050565b6000620011bb620011b5620011af8462001096565b62001190565b62001096565b9050919050565b6000620011cf826200119a565b9050919050565b6000620011e382620011c2565b9050919050565b620011f581620011d6565b82525050565b6000602082019050620012126000830184620011ea565b92915050565b6200122381620010b6565b81146200122f57600080fd5b50565b600081359050620012438162001218565b92915050565b60006020828403121562001262576200126162000fe8565b5b6000620012728482850162001232565b91505092915050565b60008115159050919050565b62001292816200127b565b82525050565b6000602082019050620012af600083018462001287565b92915050565b6000620012c282620011c2565b9050919050565b620012d481620012b5565b82525050565b6000602082019050620012f16000830184620012c9565b92915050565b600080fd5b600080fd5b6000601f19601f8301169050919050565b7f4e487b7100000000000000000000000000000000000000000000000000000000600052604160045260246000fd5b6200134c8262001301565b810181811067ffffffffffffffff821117156200136e576200136d62001312565b5b80604052505050565b60006200138362000fde565b905062001391828262001341565b919050565b600067ffffffffffffffff821115620013b457620013b362001312565b5b620013bf8262001301565b9050602081019050919050565b82818337600083830152505050565b6000620013f2620013ec8462001396565b62001377565b905082815260208101848484011115620014115762001410620012fc565b5b6200141e848285620013cc565b509392505050565b600082601f8301126200143e576200143d620012f7565b5b813562001450848260208601620013db565b91505092915050565b60006200146682620010b6565b9050919050565b620014788162001459565b81146200148457600080fd5b50565b60008135905062001498816200146d565b92915050565b600080600080600060a08688031215620014bd57620014bc62000fe8565b5b600086013567ffffffffffffffff811115620014de57620014dd62000fed565b5b620014ec8882890162001426565b9550506020620014ff888289016200100c565b945050604062001512888289016200100c565b935050606062001525888289016200100c565b9250506080620015388882890162001487565b9150509295509295909350565b6200155081620010b6565b82525050565b60006020820190506200156d600083018462001545565b92915050565b600081519050919050565b600082825260208201905092915050565b6000819050602082019050919050565b620015aa8162000fa6565b82525050565b6000620015be83836200159f565b60208301905092915050565b6000602082019050919050565b6000620015e48262001573565b620015f081856200157e565b9350620015fd836200158f565b8060005b8381101562001634578151620016188882620015b0565b97506200162583620015ca565b92505060018101905062001601565b5085935050505092915050565b600060208201905081810360008301526200165d8184620015d7565b905092915050565b6000602082840312156200167e576200167d62000fe8565b5b60006200168e848285016200100c565b91505092915050565b600081519050919050565b600082825260208201905092915050565b60005b83811015620016d3578082015181840152602081019050620016b6565b83811115620016e3576000848401525b50505050565b6000620016f68262001697565b620017028185620016a2565b935062001714818560208601620016b3565b6200171f8162001301565b840191505092915050565b600060e0830160008301516200174460008601826200159f565b50602083015184820360208601526200175e8282620016e9565b9150506040830151620017756040860182620010ca565b5060608301516200178a60608601826200159f565b5060808301516200179f60808601826200159f565b5060a0830151620017b460a08601826200159f565b5060c0830151620017c960c0860182620010ca565b508091505092915050565b60006020820190508181036000830152620017f081846200172a565b905092915050565b600082825260208201905092915050565b7f456e6420696e646578206d7573742062652067726561746572207468616e207360008201527f7461727420696e64657800000000000000000000000000000000000000000000602082015250565b600062001867602a83620017f8565b9150620018748262001809565b604082019050919050565b600060208201905081810360008301526200189a8162001858565b9050919050565b7f456e6420696e646578206d757374206265206c657373207468616e206f72206560008201527f7175616c20746f2073616c6573206c656e677468000000000000000000000000602082015250565b6000620018ff603483620017f8565b91506200190c82620018a1565b604082019050919050565b600060208201905081810360008301526200193281620018f0565b9050919050565b7f4e487b7100000000000000000000000000000000000000000000000000000000600052601160045260246000fd5b6000620019758262000fa6565b9150620019828362000fa6565b92508282101562001998576200199762001939565b5b828203905092915050565b7f4e487b7100000000000000000000000000000000000000000000000000000000600052603260045260246000fd5b6000620019df8262000fa6565b91507fffffffffffffffffffffffffffffffffffffffffffffffffffffffffffffffff82141562001a155762001a1462001939565b5b600182019050919050565b7f53616c652069732066756c6c0000000000000000000000000000000000000000600082015250565b600062001a58600c83620017f8565b915062001a658262001a20565b602082019050919050565b6000602082019050818103600083015262001a8b8162001a49565b9050919050565b600062001a9f8262001697565b62001aab8185620017f8565b935062001abd818560208601620016b3565b62001ac88162001301565b840191505092915050565b60006101208201905062001aeb600083018c62000fb0565b818103602083015262001aff818b62001a92565b905062001b10604083018a62000fb0565b62001b1f606083018962000fb0565b62001b2e608083018862000fb0565b62001b3d60a083018762001545565b62001b4c60c0830186620011ea565b62001b5b60e0830185620011ea565b62001b6b610100830184620012c9565b9a9950505050505050505050565b60008160001c9050919050565b6000819050919050565b600062001ba762001ba18362001b79565b62001b86565b9050919050565b7f4e487b7100000000000000000000000000000000000000000000000000000000600052602260045260246000fd5b6000600282049050600182168062001bf657607f821691505b6020821081141562001c0d5762001c0c62001bae565b5b50919050565b60008190508160005260206000209050919050565b6000815462001c378162001bdd565b62001c438186620016a2565b9450600182166000811462001c61576001811462001c745762001cab565b60ff198316865260208601935062001cab565b62001c7f8562001c13565b60005b8381101562001ca35781548189015260018201915060208101905062001c82565b808801955050505b50505092915050565b600073ffffffffffffffffffffffffffffffffffffffff82169050919050565b600062001ceb62001ce58362001b79565b62001cb4565b9050919050565b600060e08301600080840154905062001d0b8162001b90565b62001d1a60008701826200159f565b5060018401858303602087015262001d33838262001c28565b9250506002840154905062001d488162001cd4565b62001d576040870182620010ca565b506003840154905062001d6a8162001b90565b62001d7960608701826200159f565b506004840154905062001d8c8162001b90565b62001d9b60808701826200159f565b506005840154905062001dae8162001b90565b62001dbd60a08701826200159f565b506006840154905062001dd08162001cd4565b62001ddf60c0870182620010ca565b50819250505092915050565b600060408201905062001e02600083018562000fb0565b818103602083015262001e16818462001cf2565b90509392505050565b7f4f776e61626c653a2063616c6c6572206973206e6f7420746865206f776e6572600082015250565b600062001e57602083620017f8565b915062001e648262001e1f565b602082019050919050565b6000602082019050818103600083015262001e8a8162001e48565b9050919050565b7f4f776e61626c653a206e6577206f776e657220697320746865207a65726f206160008201527f6464726573730000000000000000000000000000000000000000000000000000602082015250565b600062001eef602683620017f8565b915062001efc8262001e91565b604082019050919050565b6000602082019050818103600083015262001f228162001ee0565b905091905056fe6080604052670de0b6b3a7640000600a55678ac7230489e80000600b553480156200002957600080fd5b50604051620037d1380380620037d183398181016040528101906200004f919062000644565b600160008190555088600f8190555087600e9080519060200190620000769291906200027b565b5083600360006101000a81548173ffffffffffffffffffffffffffffffffffffffff021916908373ffffffffffffffffffffffffffffffffffffffff16021790555086600581905550856006819055508460078190555060055467ffffffffffffffff811115620000ec57620000eb620003e7565b5b6040519080825280602002602001820160405280156200011b5781602001602082028036833780820191505090505b5060049080519060200190620001339291906200030c565b5060005b600554811015620001a85760065460018262000154919062000771565b620001609190620007ce565b426200016d919062000771565b600482815481106200018457620001836200082f565b5b906000526020600020018190555080806200019f906200085e565b91505062000137565b83600860006101000a81548173ffffffffffffffffffffffffffffffffffffffff021916908373ffffffffffffffffffffffffffffffffffffffff16021790555082600960006101000a81548173ffffffffffffffffffffffffffffffffffffffff021916908373ffffffffffffffffffffffffffffffffffffffff16021790555081600260006101000a81548173ffffffffffffffffffffffffffffffffffffffff021916908373ffffffffffffffffffffffffffffffffffffffff1602179055505050505050505050505062000911565b8280546200028990620008db565b90600052602060002090601f016020900481019282620002ad5760008555620002f9565b82601f10620002c857805160ff1916838001178555620002f9565b82800160010185558215620002f9579182015b82811115620002f8578251825591602001919060010190620002db565b5b5090506200030891906200035e565b5090565b8280548282559060005260206000209081019282156200034b579160200282015b828111156200034a5782518255916020019190600101906200032d565b5b5090506200035a91906200035e565b5090565b5b80821115620003795760008160009055506001016200035f565b5090565b6000604051905090565b600080fd5b600080fd5b6000819050919050565b620003a68162000391565b8114620003b257600080fd5b50565b600081519050620003c6816200039b565b92915050565b600080fd5b600080fd5b6000601f19601f8301169050919050565b7f4e487b7100000000000000000000000000000000000000000000000000000000600052604160045260246000fd5b6200042182620003d6565b810181811067ffffffffffffffff82111715620004435762000442620003e7565b5b80604052505050565b6000620004586200037d565b905062000466828262000416565b919050565b600067ffffffffffffffff821115620004895762000488620003e7565b5b6200049482620003d6565b9050602081019050919050565b60005b83811015620004c1578082015181840152602081019050620004a4565b83811115620004d1576000848401525b50505050565b6000620004ee620004e8846200046b565b6200044c565b9050828152602081018484840111156200050d576200050c620003d1565b5b6200051a848285620004a1565b509392505050565b600082601f8301126200053a5762000539620003cc565b5b81516200054c848260208601620004d7565b91505092915050565b600073ffffffffffffffffffffffffffffffffffffffff82169050919050565b6000620005828262000555565b9050919050565b620005948162000575565b8114620005a057600080fd5b50565b600081519050620005b48162000589565b92915050565b6000620005c78262000575565b9050919050565b620005d981620005ba565b8114620005e557600080fd5b50565b600081519050620005f981620005ce565b92915050565b60006200060c8262000575565b9050919050565b6200061e81620005ff565b81146200062a57600080fd5b50565b6000815190506200063e8162000613565b92915050565b60008060008060008060008060006101208a8c0312156200066a576200066962000387565b5b60006200067a8c828d01620003b5565b99505060208a015167ffffffffffffffff8111156200069e576200069d6200038c565b5b620006ac8c828d0162000522565b9850506040620006bf8c828d01620003b5565b9750506060620006d28c828d01620003b5565b9650506080620006e58c828d01620003b5565b95505060a0620006f88c828d01620005a3565b94505060c06200070b8c828d01620005e8565b93505060e06200071e8c828d01620005e8565b925050610100620007328c828d016200062d565b9150509295985092959850929598565b7f4e487b7100000000000000000000000000000000000000000000000000000000600052601160045260246000fd5b60006200077e8262000391565b91506200078b8362000391565b9250827fffffffffffffffffffffffffffffffffffffffffffffffffffffffffffffffff03821115620007c357620007c262000742565b5b828201905092915050565b6000620007db8262000391565b9150620007e88362000391565b9250817fffffffffffffffffffffffffffffffffffffffffffffffffffffffffffffffff048311821515161562000824576200082362000742565b5b828202905092915050565b7f4e487b7100000000000000000000000000000000000000000000000000000000600052603260045260246000fd5b60006200086b8262000391565b91507fffffffffffffffffffffffffffffffffffffffffffffffffffffffffffffffff821415620008a157620008a062000742565b5b600182019050919050565b7f4e487b7100000000000000000000000000000000000000000000000000000000600052602260045260246000fd5b60006002820490506001821680620008f457607f821691505b602082108114156200090b576200090a620008ac565b5b50919050565b612eb080620009216000396000f3fe608060405234801561001057600080fd5b506004361061012c5760003560e01c8063939972bc116100ad578063cc538d6d11610071578063cc538d6d146102f1578063d96a094a1461030f578063dae518fa1461032b578063f851a44014610349578063ffdd5cf1146103675761012c565b8063939972bc1461025b57806394c8814414610279578063a035b1fe14610297578063a1534c1e146102b5578063c84c0387146102d35761012c565b80634a13c3c6116100f45780634a13c3c6146101b35780634b60ce77146101d15780635bc02c75146101ef5780637b739b601461020d57806386735bd31461023d5761012c565b806306fdde03146101315780630a65fb211461014f5780633013ce291461016d5780633c6974981461018b5780633ccfd60b146101a9575b600080fd5b610139610397565b6040516101469190611354565b60405180910390f35b610157610425565b604051610164919061138f565b60405180910390f35b61017561042b565b6040516101829190611429565b60405180910390f35b610193610451565b6040516101a0919061138f565b60405180910390f35b6101b1610457565b005b6101bb610829565b6040516101c89190611465565b60405180910390f35b6101d961084f565b6040516101e69190611429565b60405180910390f35b6101f7610875565b604051610204919061138f565b60405180910390f35b610227600480360381019061022291906114b1565b61087b565b604051610234919061138f565b60405180910390f35b61024561089f565b604051610252919061138f565b60405180910390f35b6102636108a5565b604051610270919061138f565b60405180910390f35b6102816108ab565b60405161028e919061160c565b60405180910390f35b61029f6108bb565b6040516102ac919061138f565b60405180910390f35b6102bd6108c1565b6040516102ca919061138f565b60405180910390f35b6102db6108c7565b6040516102e8919061138f565b60405180910390f35b6102f96108cd565b604051610306919061138f565b60405180910390f35b610329600480360381019061032491906114b1565b6108d3565b005b610333610a80565b60405161034091906116dd565b60405180910390f35b610351610ad8565b60405161035e9190611720565b60405180910390f35b610381600480360381019061037c9190611767565b610afe565b60405161038e919061160c565b60405180910390f35b600e80546103a4906117c3565b80601f01602080910402602001604051908101604052809291908181526020018280546103d0906117c3565b801561041d5780601f106103f25761010080835404028352916020019161041d565b820191906000526020600020905b81548152906001019060200180831161040057829003601f168201915b505050505081565b600a5481565b600960009054906101000a900473ffffffffffffffffffffffffffffffffffffffff1681565b600c5481565b6002600054141561049d576040517f08c379a000000000000000000000000000000000000000000000000000000000815260040161049490611841565b60405180910390fd5b600260008190555060003390506000600160008373ffffffffffffffffffffffffffffffffffffffff1673ffffffffffffffffffffffffffffffffffffffff16815260200190815260200160002090506000816001015482600001546105039190611890565b1415610544576040517f08c379a000000000000000000000000000000000000000000000000000000000815260040161053b90611936565b60405180910390fd5b6000806000600480549050905060005b8181101561062d57600481815481106105705761056f611956565b5b9060005260206000200154421192508280156105bf575084600201818154811061059d5761059c611956565b5b90600052602060002090602091828204019190069054906101000a900460ff16155b1561061a5760055485600001546105d691906119b4565b935060018560020182815481106105f0576105ef611956565b5b90600052602060002090602091828204019190066101000a81548160ff0219169083151502179055505b8080610625906119e5565b915050610554565b60008411610670576040517f08c379a000000000000000000000000000000000000000000000000000000000815260040161066790611a7a565b60405180910390fd5b838560010160008282546106849190611a9a565b9250508190555083600d546106999190611a9a565b600d81905550600860009054906101000a900473ffffffffffffffffffffffffffffffffffffffff1673ffffffffffffffffffffffffffffffffffffffff1663a9059cbb87866040518363ffffffff1660e01b81526004016106fc929190611af0565b6020604051808303816000875af115801561071b573d6000803e3d6000fd5b505050506040513d601f19601f8201168201806040525081019061073f9190611b45565b61074857600080fd5b7fa2bd9fcfcdba69f52bcd9a520846ad4bd685b187483f53efc42d035b2ddebff08685604051610779929190611af0565b60405180910390a1600260009054906101000a900473ffffffffffffffffffffffffffffffffffffffff1673ffffffffffffffffffffffffffffffffffffffff16634d40346787600f5487896002016040518563ffffffff1660e01b81526004016107e794939291906128d6565b600060405180830381600087803b15801561080157600080fd5b505af1158015610815573d6000803e3d6000fd5b505050505050505050506001600081905550565b600260009054906101000a900473ffffffffffffffffffffffffffffffffffffffff1681565b600860009054906101000a900473ffffffffffffffffffffffffffffffffffffffff1681565b600b5481565b6004818154811061088b57600080fd5b906000526020600020016000915090505481565b60065481565b600d5481565b60606108b633610afe565b905090565b60075481565b60105481565b600f5481565b60055481565b60026000541415610919576040517f08c379a000000000000000000000000000000000000000000000000000000000815260040161091090611841565b60405180910390fd5b60026000819055506000339050600a548210806109375750600b5482115b15610977576040517f08c379a000000000000000000000000000000000000000000000000000000000815260040161096e906129ba565b60405180910390fd5b6000600754670de0b6b3a76400008461099091906129da565b61099a91906119b4565b9050600960009054906101000a900473ffffffffffffffffffffffffffffffffffffffff1673ffffffffffffffffffffffffffffffffffffffff166323b872dd83600360009054906101000a900473ffffffffffffffffffffffffffffffffffffffff16866040518463ffffffff1660e01b8152600401610a1d93929190612a34565b6020604051808303816000875af1158015610a3c573d6000803e3d6000fd5b505050506040513d601f19601f82011682018060405250810190610a609190611b45565b610a6957600080fd5b610a738282610cf3565b5050600160008190555050565b60606004805480602002602001604051908101604052809291908181526020018280548015610ace57602002820191906000526020600020905b815481526020019060010190808311610aba575b5050505050905090565b600360009054906101000a900473ffffffffffffffffffffffffffffffffffffffff1681565b60606000600160008473ffffffffffffffffffffffffffffffffffffffff1673ffffffffffffffffffffffffffffffffffffffff1681526020019081526020016000209050600060048054905067ffffffffffffffff811115610b6457610b63612a6b565b5b604051908082528060200260200182016040528015610b9d57816020015b610b8a6111cc565b815260200190600190039081610b825790505b50905060008060048054905090505b80821015610ce7576005548460000154610bc691906119b4565b838381518110610bd957610bd8611956565b5b6020026020010151600001818152505060048281548110610bfd57610bfc611956565b5b9060005260206000200154838381518110610c1b57610c1a611956565b5b60200260200101516020018181525050836002018281548110610c4157610c40611956565b5b90600052602060002090602091828204019190069054906101000a900460ff16838381518110610c7457610c73611956565b5b6020026020010151604001901515908115158152505060048281548110610c9e57610c9d611956565b5b90600052602060002001544211838381518110610cbe57610cbd611956565b5b602002602001015160600190151590811515815250508180610cdf906119e5565b925050610bac565b82945050505050919050565b600860009054906101000a900473ffffffffffffffffffffffffffffffffffffffff1673ffffffffffffffffffffffffffffffffffffffff166370a08231306040518263ffffffff1660e01b8152600401610d4e9190611720565b602060405180830381865afa158015610d6b573d6000803e3d6000fd5b505050506040513d601f19601f82011682018060405250810190610d8f9190612aaf565b81600d54600c54610da09190611890565b610daa9190611a9a565b1115610deb576040517f08c379a0000000000000000000000000000000000000000000000000000000008152600401610de290612b4e565b60405180910390fd5b6000600160008473ffffffffffffffffffffffffffffffffffffffff1673ffffffffffffffffffffffffffffffffffffffff1681526020019081526020016000206000015414610e70576040517f08c379a0000000000000000000000000000000000000000000000000000000008152600401610e6790612be0565b60405180910390fd5b600060048054905067ffffffffffffffff811115610e9157610e90612a6b565b5b604051908082528060200260200182016040528015610ebf5781602001602082028036833780820191505090505b50905081600160008573ffffffffffffffffffffffffffffffffffffffff1673ffffffffffffffffffffffffffffffffffffffff1681526020019081526020016000206000016000828254610f149190611a9a565b9250508190555080600160008573ffffffffffffffffffffffffffffffffffffffff1673ffffffffffffffffffffffffffffffffffffffff1681526020019081526020016000206002019080519060200190610f719291906111f8565b5081600c54610f809190611a9a565b600c819055506000604051806101200160405280600f548152602001600e8054610fa9906117c3565b80601f0160208091040260200160405190810160405280929190818152602001828054610fd5906117c3565b80156110225780601f10610ff757610100808354040283529160200191611022565b820191906000526020600020905b81548152906001019060200180831161100557829003601f168201915b50505050508152602001848152602001600081526020016007548152602001600480548060200260200160405190810160405280929190818152602001828054801561108d57602002820191906000526020600020905b815481526020019060010190808311611079575b50505050508152602001838152602001600015158152602001600860009054906101000a900473ffffffffffffffffffffffffffffffffffffffff1673ffffffffffffffffffffffffffffffffffffffff168152509050600260009054906101000a900473ffffffffffffffffffffffffffffffffffffffff1673ffffffffffffffffffffffffffffffffffffffff1663d360086182866040518363ffffffff1660e01b8152600401611141929190612e4a565b600060405180830381600087803b15801561115b57600080fd5b505af115801561116f573d6000803e3d6000fd5b505050506001601060008282546111869190611a9a565b925050819055507ffe2ff4cf36ff7d2c2b06eb960897ee0d76d9c3e58da12feb7b93e86b226dd34484846040516111be929190611af0565b60405180910390a150505050565b604051806080016040528060008152602001600081526020016000151581526020016000151581525090565b82805482825590600052602060002090601f0160209004810192821561128d5791602002820160005b8382111561125e57835183826101000a81548160ff0219169083151502179055509260200192600101602081600001049283019260010302611221565b801561128b5782816101000a81549060ff021916905560010160208160000104928301926001030261125e565b505b50905061129a919061129e565b5090565b5b808211156112b757600081600090555060010161129f565b5090565b600081519050919050565b600082825260208201905092915050565b60005b838110156112f55780820151818401526020810190506112da565b83811115611304576000848401525b50505050565b6000601f19601f8301169050919050565b6000611326826112bb565b61133081856112c6565b93506113408185602086016112d7565b6113498161130a565b840191505092915050565b6000602082019050818103600083015261136e818461131b565b905092915050565b6000819050919050565b61138981611376565b82525050565b60006020820190506113a46000830184611380565b92915050565b600073ffffffffffffffffffffffffffffffffffffffff82169050919050565b6000819050919050565b60006113ef6113ea6113e5846113aa565b6113ca565b6113aa565b9050919050565b6000611401826113d4565b9050919050565b6000611413826113f6565b9050919050565b61142381611408565b82525050565b600060208201905061143e600083018461141a565b92915050565b600061144f826113f6565b9050919050565b61145f81611444565b82525050565b600060208201905061147a6000830184611456565b92915050565b600080fd5b61148e81611376565b811461149957600080fd5b50565b6000813590506114ab81611485565b92915050565b6000602082840312156114c7576114c6611480565b5b60006114d58482850161149c565b91505092915050565b600081519050919050565b600082825260208201905092915050565b6000819050602082019050919050565b61151381611376565b82525050565b60008115159050919050565b61152e81611519565b82525050565b60808201600082015161154a600085018261150a565b50602082015161155d602085018261150a565b5060408201516115706040850182611525565b5060608201516115836060850182611525565b50505050565b60006115958383611534565b60808301905092915050565b6000602082019050919050565b60006115b9826114de565b6115c381856114e9565b93506115ce836114fa565b8060005b838110156115ff5781516115e68882611589565b97506115f1836115a1565b9250506001810190506115d2565b5085935050505092915050565b6000602082019050818103600083015261162681846115ae565b905092915050565b600081519050919050565b600082825260208201905092915050565b6000819050602082019050919050565b6000611666838361150a565b60208301905092915050565b6000602082019050919050565b600061168a8261162e565b6116948185611639565b935061169f8361164a565b8060005b838110156116d05781516116b7888261165a565b97506116c283611672565b9250506001810190506116a3565b5085935050505092915050565b600060208201905081810360008301526116f7818461167f565b905092915050565b600061170a826113aa565b9050919050565b61171a816116ff565b82525050565b60006020820190506117356000830184611711565b92915050565b611744816116ff565b811461174f57600080fd5b50565b6000813590506117618161173b565b92915050565b60006020828403121561177d5761177c611480565b5b600061178b84828501611752565b91505092915050565b7f4e487b7100000000000000000000000000000000000000000000000000000000600052602260045260246000fd5b600060028204905060018216806117db57607f821691505b602082108114156117ef576117ee611794565b5b50919050565b7f5265656e7472616e637947756172643a207265656e7472616e742063616c6c00600082015250565b600061182b601f836112c6565b9150611836826117f5565b602082019050919050565b6000602082019050818103600083015261185a8161181e565b9050919050565b7f4e487b7100000000000000000000000000000000000000000000000000000000600052601160045260246000fd5b600061189b82611376565b91506118a683611376565b9250828210156118b9576118b8611861565b5b828203905092915050565b7f557365722068617320616c72656164792077697468647261776e20616c6c206f60008201527f662074686520746f6b656e2e0000000000000000000000000000000000000000602082015250565b6000611920602c836112c6565b915061192b826118c4565b604082019050919050565b6000602082019050818103600083015261194f81611913565b9050919050565b7f4e487b7100000000000000000000000000000000000000000000000000000000600052603260045260246000fd5b7f4e487b7100000000000000000000000000000000000000000000000000000000600052601260045260246000fd5b60006119bf82611376565b91506119ca83611376565b9250826119da576119d9611985565b5b828204905092915050565b60006119f082611376565b91507fffffffffffffffffffffffffffffffffffffffffffffffffffffffffffffffff821415611a2357611a22611861565b5b600182019050919050565b7f4e6f7468696e6720746f20776974686472617700000000000000000000000000600082015250565b6000611a646013836112c6565b9150611a6f82611a2e565b602082019050919050565b60006020820190508181036000830152611a9381611a57565b9050919050565b6000611aa582611376565b9150611ab083611376565b9250827fffffffffffffffffffffffffffffffffffffffffffffffffffffffffffffffff03821115611ae557611ae4611861565b5b828201905092915050565b6000604082019050611b056000830185611711565b611b126020830184611380565b9392505050565b611b2281611519565b8114611b2d57600080fd5b50565b600081519050611b3f81611b19565b92915050565b600060208284031215611b5b57611b5a611480565b5b6000611b6984828501611b30565b91505092915050565b600081549050919050565b600082825260208201905092915050565b60008190508160005260206000209050919050565b60008160001c9050919050565b600060ff82169050919050565b6000611bd0611bcb83611ba3565b611bb0565b9050919050565b60008160081c9050919050565b6000611bf7611bf283611bd7565b611bb0565b9050919050565b60008160101c9050919050565b6000611c1e611c1983611bfe565b611bb0565b9050919050565b60008160181c9050919050565b6000611c45611c4083611c25565b611bb0565b9050919050565b60008160201c9050919050565b6000611c6c611c6783611c4c565b611bb0565b9050919050565b60008160281c9050919050565b6000611c93611c8e83611c73565b611bb0565b9050919050565b60008160301c9050919050565b6000611cba611cb583611c9a565b611bb0565b9050919050565b60008160381c9050919050565b6000611ce1611cdc83611cc1565b611bb0565b9050919050565b60008160401c9050919050565b6000611d08611d0383611ce8565b611bb0565b9050919050565b60008160481c9050919050565b6000611d2f611d2a83611d0f565b611bb0565b9050919050565b60008160501c9050919050565b6000611d56611d5183611d36565b611bb0565b9050919050565b60008160581c9050919050565b6000611d7d611d7883611d5d565b611bb0565b9050919050565b60008160601c9050919050565b6000611da4611d9f83611d84565b611bb0565b9050919050565b60008160681c9050919050565b6000611dcb611dc683611dab565b611bb0565b9050919050565b60008160701c9050919050565b6000611df2611ded83611dd2565b611bb0565b9050919050565b60008160781c9050919050565b6000611e19611e1483611df9565b611bb0565b9050919050565b60008160801c9050919050565b6000611e40611e3b83611e20565b611bb0565b9050919050565b60008160881c9050919050565b6000611e67611e6283611e47565b611bb0565b9050919050565b60008160901c9050919050565b6000611e8e611e8983611e6e565b611bb0565b9050919050565b60008160981c9050919050565b6000611eb5611eb083611e95565b611bb0565b9050919050565b60008160a01c9050919050565b6000611edc611ed783611ebc565b611bb0565b9050919050565b60008160a81c9050919050565b6000611f03611efe83611ee3565b611bb0565b9050919050565b60008160b01c9050919050565b6000611f2a611f2583611f0a565b611bb0565b9050919050565b60008160b81c9050919050565b6000611f51611f4c83611f31565b611bb0565b9050919050565b60008160c01c9050919050565b6000611f78611f7383611f58565b611bb0565b9050919050565b60008160c81c9050919050565b6000611f9f611f9a83611f7f565b611bb0565b9050919050565b60008160d01c9050919050565b6000611fc6611fc183611fa6565b611bb0565b9050919050565b60008160d81c9050919050565b6000611fed611fe883611fcd565b611bb0565b9050919050565b60008160e01c9050919050565b600061201461200f83611ff4565b611bb0565b9050919050565b60008160e81c9050919050565b600061203b6120368361201b565b611bb0565b9050919050565b60008160f01c9050919050565b600061206261205d83612042565b611bb0565b9050919050565b60008160f81c9050919050565b600061208961208483612069565b611bb0565b9050919050565b600061209b82611b72565b6120a58185611b7d565b9350836120b184611b8e565b60006001156123de575b836001602003820110156123dd5781546120dd886120d883611bbd565b611525565b6020880197506120f5886120f083611be4565b611525565b60208801975061210d8861210883611c0b565b611525565b6020880197506121258861212083611c32565b611525565b60208801975061213d8861213883611c59565b611525565b6020880197506121558861215083611c80565b611525565b60208801975061216d8861216883611ca7565b611525565b6020880197506121858861218083611cce565b611525565b60208801975061219d8861219883611cf5565b611525565b6020880197506121b5886121b083611d1c565b611525565b6020880197506121cd886121c883611d43565b611525565b6020880197506121e5886121e083611d6a565b611525565b6020880197506121fd886121f883611d91565b611525565b6020880197506122158861221083611db8565b611525565b60208801975061222d8861222883611ddf565b611525565b6020880197506122458861224083611e06565b611525565b60208801975061225d8861225883611e2d565b611525565b6020880197506122758861227083611e54565b611525565b60208801975061228d8861228883611e7b565b611525565b6020880197506122a5886122a083611ea2565b611525565b6020880197506122bd886122b883611ec9565b611525565b6020880197506122d5886122d083611ef0565b611525565b6020880197506122ed886122e883611f17565b611525565b6020880197506123058861230083611f3e565b611525565b60208801975061231d8861231883611f65565b611525565b6020880197506123358861233083611f8c565b611525565b60208801975061234d8861234883611fb3565b611525565b6020880197506123658861236083611fda565b611525565b60208801975061237d8861237883612001565b611525565b6020880197506123958861239083612028565b611525565b6020880197506123ad886123a88361204f565b611525565b6020880197506123c5886123c083612076565b611525565b602088019750600183019250506020810190506120bb565b5b6001156128c95781548482101561240e57612401886123fc83611bbd565b611525565b6020880197506001820191505b84821015612435576124288861242383611be4565b611525565b6020880197506001820191505b8482101561245c5761244f8861244a83611c0b565b611525565b6020880197506001820191505b84821015612483576124768861247183611c32565b611525565b6020880197506001820191505b848210156124aa5761249d8861249883611c59565b611525565b6020880197506001820191505b848210156124d1576124c4886124bf83611c80565b611525565b6020880197506001820191505b848210156124f8576124eb886124e683611ca7565b611525565b6020880197506001820191505b8482101561251f576125128861250d83611cce565b611525565b6020880197506001820191505b84821015612546576125398861253483611cf5565b611525565b6020880197506001820191505b8482101561256d576125608861255b83611d1c565b611525565b6020880197506001820191505b84821015612594576125878861258283611d43565b611525565b6020880197506001820191505b848210156125bb576125ae886125a983611d6a565b611525565b6020880197506001820191505b848210156125e2576125d5886125d083611d91565b611525565b6020880197506001820191505b84821015612609576125fc886125f783611db8565b611525565b6020880197506001820191505b84821015612630576126238861261e83611ddf565b611525565b6020880197506001820191505b848210156126575761264a8861264583611e06565b611525565b6020880197506001820191505b8482101561267e576126718861266c83611e2d565b611525565b6020880197506001820191505b848210156126a5576126988861269383611e54565b611525565b6020880197506001820191505b848210156126cc576126bf886126ba83611e7b565b611525565b6020880197506001820191505b848210156126f3576126e6886126e183611ea2565b611525565b6020880197506001820191505b8482101561271a5761270d8861270883611ec9565b611525565b6020880197506001820191505b84821015612741576127348861272f83611ef0565b611525565b6020880197506001820191505b848210156127685761275b8861275683611f17565b611525565b6020880197506001820191505b8482101561278f576127828861277d83611f3e565b611525565b6020880197506001820191505b848210156127b6576127a9886127a483611f65565b611525565b6020880197506001820191505b848210156127dd576127d0886127cb83611f8c565b611525565b6020880197506001820191505b84821015612804576127f7886127f283611fb3565b611525565b6020880197506001820191505b8482101561282b5761281e8861281983611fda565b611525565b6020880197506001820191505b84821015612852576128458861284083612001565b611525565b6020880197506001820191505b848210156128795761286c8861286783612028565b611525565b6020880197506001820191505b848210156128a0576128938861288e8361204f565b611525565b6020880197506001820191505b848210156128c7576128ba886128b583612076565b611525565b6020880197506001820191505b505b8694505050505092915050565b60006080820190506128eb6000830187611711565b6128f86020830186611380565b6129056040830185611380565b81810360608301526129178184612090565b905095945050505050565b7f416d6f756e742073686f756c64206265206265747765656e206d696e696d756d60008201527f20616e64206d6178696d756d20616d6f756e74206f66207061796d656e74207460208201527f6f6b656e00000000000000000000000000000000000000000000000000000000604082015250565b60006129a46044836112c6565b91506129af82612922565b606082019050919050565b600060208201905081810360008301526129d381612997565b9050919050565b60006129e582611376565b91506129f083611376565b9250817fffffffffffffffffffffffffffffffffffffffffffffffffffffffffffffffff0483118215151615612a2957612a28611861565b5b828202905092915050565b6000606082019050612a496000830186611711565b612a566020830185611711565b612a636040830184611380565b949350505050565b7f4e487b7100000000000000000000000000000000000000000000000000000000600052604160045260246000fd5b600081519050612aa981611485565b92915050565b600060208284031215612ac557612ac4611480565b5b6000612ad384828501612a9a565b91505092915050565b7f4e6f7420656e6f75676820746f6b656e7320666f72206469737472696275746960008201527f6f6e2e0000000000000000000000000000000000000000000000000000000000602082015250565b6000612b386023836112c6565b9150612b4382612adc565b604082019050919050565b60006020820190508181036000830152612b6781612b2b565b9050919050565b7f5573657220616c72656164792070617274696369706174656420696e2074686960008201527f732073616c652e00000000000000000000000000000000000000000000000000602082015250565b6000612bca6027836112c6565b9150612bd582612b6e565b604082019050919050565b60006020820190508181036000830152612bf981612bbd565b9050919050565b600082825260208201905092915050565b6000612c1c826112bb565b612c268185612c00565b9350612c368185602086016112d7565b612c3f8161130a565b840191505092915050565b600082825260208201905092915050565b6000612c668261162e565b612c708185612c4a565b9350612c7b8361164a565b8060005b83811015612cac578151612c93888261165a565b9750612c9e83611672565b925050600181019050612c7f565b5085935050505092915050565b600081519050919050565b600082825260208201905092915050565b6000819050602082019050919050565b6000612cf18383611525565b60208301905092915050565b6000602082019050919050565b6000612d1582612cb9565b612d1f8185612cc4565b9350612d2a83612cd5565b8060005b83811015612d5b578151612d428882612ce5565b9750612d4d83612cfd565b925050600181019050612d2e565b5085935050505092915050565b612d71816116ff565b82525050565b600061012083016000830151612d90600086018261150a565b5060208301518482036020860152612da88282612c11565b9150506040830151612dbd604086018261150a565b506060830151612dd0606086018261150a565b506080830151612de3608086018261150a565b5060a083015184820360a0860152612dfb8282612c5b565b91505060c083015184820360c0860152612e158282612d0a565b91505060e0830151612e2a60e0860182611525565b50610100830151612e3f610100860182612d68565b508091505092915050565b60006040820190508181036000830152612e648185612d77565b9050612e736020830184611711565b939250505056fea26469706673582212208113b5a9adafec0620e73b406b997e7064fd58ac2aa6b3b11a4409ae7bfbcb6064736f6c634300080c0033a2646970667358221220c478e688e4a9ab6d307ae43f0966d276870ba09a1aa322ba1929c0b1757b167064736f6c634300080c0033",
  "immutableReferences": {},
  "source": "// !! This contract is not audited. Do not use in production!!\n\n// SPDX-License-Identifier: MIT\npragma solidity ^0.8.0;\n\n// Imports\nimport \"@openzeppelin/contracts/token/ERC20/IERC20.sol\"; // ERC20 interface\nimport \"@openzeppelin/contracts/access/Ownable.sol\"; //  Ownable.sol\nimport \"./Sale.sol\"; // Sale Contract\nimport \"./Portfolio.sol\"; // Portfolio Contract\n\ncontract Factory is Ownable {\n    // Sale Counters\n    uint256 public saleCounter;\n\n    // Maximum amount for creating IDO\n    uint256 public constant maxAmount = 5;\n\n    // Users to sale mapping\n    mapping(address => uint256[]) internal userToSales;\n\n    // Id to sale mapping\n    mapping(uint256 => InfoSale) internal saleIdToSale;\n\n    // Is Sale mapping for checking if sale is valid for add to portfolio\n    mapping(address => bool) internal isSale;\n\n    // Array of sales\n    address[] internal sales;\n\n    // Payment Token Will Be Always the same\n    IERC20 public paymentToken;\n\n    // Portfolio Contract\n    Portfolio public portfolioContract;\n\n    // Sale Struct\n    struct InfoSale {\n        uint256 id;\n        string name;\n        address saleAddress;\n        uint256 price;\n        uint256 numberOfPortions;\n        uint256 timeBetweenPortions;\n        address projectToken;\n    }\n\n    // Events\n    event SaleCreated(uint256 index, InfoSale infoSale);\n\n    constructor(IERC20 _paymentToken, Portfolio _portfolio) Ownable() {\n        paymentToken = _paymentToken;\n        portfolioContract = _portfolio;\n    }\n\n    // Create a new sale\n    function createSale(\n        string memory _name,\n        uint256 _numberOfPortions,\n        uint256 _timeBetweenPortions,\n        uint256 _price,\n        IERC20 _projectToken\n    ) public {\n        // Check if the sale is not full\n        require(userToSales[msg.sender].length < maxAmount, \"Sale is full\");\n\n        // Create a new sale\n        Sale newSale = new Sale(\n            saleCounter,\n            _name,\n            _numberOfPortions,\n            _timeBetweenPortions,\n            _price,\n            msg.sender,\n            _projectToken,\n            paymentToken,\n            portfolioContract\n        );\n\n        address saleAddress = address(newSale);\n\n        // Add the sale to the array\n        sales.push(address(saleAddress));\n\n        // Make sale valid\n        isSale[saleAddress] = true;\n\n        // Edit saleIdToSale mapping\n        saleIdToSale[saleCounter].id = saleCounter;\n        saleIdToSale[saleCounter].name = _name;\n        saleIdToSale[saleCounter].saleAddress = saleAddress;\n        saleIdToSale[saleCounter].price = _price;\n        saleIdToSale[saleCounter].numberOfPortions = _numberOfPortions;\n        saleIdToSale[saleCounter].timeBetweenPortions = _timeBetweenPortions;\n        saleIdToSale[saleCounter].projectToken = address(_projectToken);\n\n        // Add the sale to the users collection mapping\n        userToSales[msg.sender].push(saleCounter);\n\n        // Increase the sale counter\n        saleCounter++;\n\n        // Emit the event\n        emit SaleCreated(saleCounter - 1, saleIdToSale[saleCounter - 1]);\n    }\n\n    // Getter function for users' sales\n    function getUserSales(address _user)\n        public\n        view\n        returns (uint256[] memory)\n    {\n        return userToSales[_user];\n    }\n\n    // Getter function for msg.sender's sales\n    function getMySales() external view returns (uint256[] memory) {\n        return getUserSales(msg.sender);\n    }\n\n    // Getter function for sale with id\n    function getSale(uint256 _saleId)\n        public\n        view\n        returns (InfoSale memory saleAddress)\n    {\n        return saleIdToSale[_saleId];\n    }\n\n    // Getter function for sales length\n    function getSalesLength() public view returns (uint256 length) {\n        return sales.length;\n    }\n\n    // External function for pagination for sales\n    function getSales(uint256 start, uint256 end)\n        external\n        view\n        returns (address[] memory saleAddresses)\n    {\n        require(end > start, \"End index must be greater than start index\");\n        require(\n            end < sales.length,\n            \"End index must be less than or equal to sales length\"\n        );\n\n        saleAddresses = new address[](end - start);\n\n        uint256 index;\n        for (index = start; index < end; index++) {\n            saleAddresses[index - start] = sales[index];\n        }\n\n        return saleAddresses;\n    }\n\n    // External function for check validness of the address\n    function isSaleValid(address _saleAddress) external view returns (bool) {\n        return isSale[_saleAddress];\n    }\n}\n",
  "sourcePath": "/Users/mehmetberatozturk/Documents/Github/ido-for-everyone/contracts/Factory.sol",
  "compiler": {
    "name": "solc",
    "version": "0.8.12+commit.f00d7308.Emscripten.clang"
  },
  "schemaVersion": "3.4.6",
  "updatedAt": "2022-05-05T21:39:45.554Z",
  "networkType": "ethereum",
  "devdoc": {
    "kind": "dev",
    "methods": {
      "owner()": {
        "details": "Returns the address of the current owner."
      },
      "renounceOwnership()": {
        "details": "Leaves the contract without owner. It will not be possible to call `onlyOwner` functions anymore. Can only be called by the current owner. NOTE: Renouncing ownership will leave the contract without an owner, thereby removing any functionality that is only available to the owner."
      },
      "transferOwnership(address)": {
        "details": "Transfers ownership of the contract to a new account (`newOwner`). Can only be called by the current owner."
      }
    },
    "version": 1
  },
  "userdoc": {
    "kind": "user",
    "methods": {},
    "version": 1
  }
}