{
  "contractName": "PaymentToken",
  "abi": [
    {
      "inputs": [],
      "stateMutability": "nonpayable",
      "type": "constructor"
    },
    {
      "anonymous": false,
      "inputs": [
        {
          "indexed": true,
          "internalType": "address",
          "name": "owner",
          "type": "address"
        },
        {
          "indexed": true,
          "internalType": "address",
          "name": "spender",
          "type": "address"
        },
        {
          "indexed": false,
          "internalType": "uint256",
          "name": "value",
          "type": "uint256"
        }
      ],
      "name": "Approval",
      "type": "event"
    },
    {
      "anonymous": false,
      "inputs": [
        {
          "indexed": true,
          "internalType": "address",
          "name": "from",
          "type": "address"
        },
        {
          "indexed": true,
          "internalType": "address",
          "name": "to",
          "type": "address"
        },
        {
          "indexed": false,
          "internalType": "uint256",
          "name": "value",
          "type": "uint256"
        }
      ],
      "name": "Transfer",
      "type": "event"
    },
    {
      "inputs": [],
      "name": "COOLDOWN_TIME",
      "outputs": [
        {
          "internalType": "uint256",
          "name": "",
          "type": "uint256"
        }
      ],
      "stateMutability": "view",
      "type": "function",
      "constant": true
    },
    {
      "inputs": [
        {
          "internalType": "address",
          "name": "owner",
          "type": "address"
        },
        {
          "internalType": "address",
          "name": "spender",
          "type": "address"
        }
      ],
      "name": "allowance",
      "outputs": [
        {
          "internalType": "uint256",
          "name": "",
          "type": "uint256"
        }
      ],
      "stateMutability": "view",
      "type": "function",
      "constant": true
    },
    {
      "inputs": [
        {
          "internalType": "address",
          "name": "spender",
          "type": "address"
        },
        {
          "internalType": "uint256",
          "name": "amount",
          "type": "uint256"
        }
      ],
      "name": "approve",
      "outputs": [
        {
          "internalType": "bool",
          "name": "",
          "type": "bool"
        }
      ],
      "stateMutability": "nonpayable",
      "type": "function"
    },
    {
      "inputs": [
        {
          "internalType": "address",
          "name": "account",
          "type": "address"
        }
      ],
      "name": "balanceOf",
      "outputs": [
        {
          "internalType": "uint256",
          "name": "",
          "type": "uint256"
        }
      ],
      "stateMutability": "view",
      "type": "function",
      "constant": true
    },
    {
      "inputs": [],
      "name": "decimals",
      "outputs": [
        {
          "internalType": "uint8",
          "name": "",
          "type": "uint8"
        }
      ],
      "stateMutability": "view",
      "type": "function",
      "constant": true
    },
    {
      "inputs": [
        {
          "internalType": "address",
          "name": "spender",
          "type": "address"
        },
        {
          "internalType": "uint256",
          "name": "subtractedValue",
          "type": "uint256"
        }
      ],
      "name": "decreaseAllowance",
      "outputs": [
        {
          "internalType": "bool",
          "name": "",
          "type": "bool"
        }
      ],
      "stateMutability": "nonpayable",
      "type": "function"
    },
    {
      "inputs": [
        {
          "internalType": "address",
          "name": "spender",
          "type": "address"
        },
        {
          "internalType": "uint256",
          "name": "addedValue",
          "type": "uint256"
        }
      ],
      "name": "increaseAllowance",
      "outputs": [
        {
          "internalType": "bool",
          "name": "",
          "type": "bool"
        }
      ],
      "stateMutability": "nonpayable",
      "type": "function"
    },
    {
      "inputs": [],
      "name": "name",
      "outputs": [
        {
          "internalType": "string",
          "name": "",
          "type": "string"
        }
      ],
      "stateMutability": "view",
      "type": "function",
      "constant": true
    },
    {
      "inputs": [],
      "name": "symbol",
      "outputs": [
        {
          "internalType": "string",
          "name": "",
          "type": "string"
        }
      ],
      "stateMutability": "view",
      "type": "function",
      "constant": true
    },
    {
      "inputs": [],
      "name": "totalRequestedTokenAmount",
      "outputs": [
        {
          "internalType": "uint256",
          "name": "",
          "type": "uint256"
        }
      ],
      "stateMutability": "view",
      "type": "function",
      "constant": true
    },
    {
      "inputs": [],
      "name": "totalSupply",
      "outputs": [
        {
          "internalType": "uint256",
          "name": "",
          "type": "uint256"
        }
      ],
      "stateMutability": "view",
      "type": "function",
      "constant": true
    },
    {
      "inputs": [
        {
          "internalType": "address",
          "name": "to",
          "type": "address"
        },
        {
          "internalType": "uint256",
          "name": "amount",
          "type": "uint256"
        }
      ],
      "name": "transfer",
      "outputs": [
        {
          "internalType": "bool",
          "name": "",
          "type": "bool"
        }
      ],
      "stateMutability": "nonpayable",
      "type": "function"
    },
    {
      "inputs": [
        {
          "internalType": "address",
          "name": "from",
          "type": "address"
        },
        {
          "internalType": "address",
          "name": "to",
          "type": "address"
        },
        {
          "internalType": "uint256",
          "name": "amount",
          "type": "uint256"
        }
      ],
      "name": "transferFrom",
      "outputs": [
        {
          "internalType": "bool",
          "name": "",
          "type": "bool"
        }
      ],
      "stateMutability": "nonpayable",
      "type": "function"
    },
    {
      "inputs": [],
      "name": "requestPaymentToken",
      "outputs": [],
      "stateMutability": "nonpayable",
      "type": "function"
    },
    {
      "inputs": [
        {
          "internalType": "address",
          "name": "_user",
          "type": "address"
        }
      ],
      "name": "getRemainingCooldown",
      "outputs": [
        {
          "internalType": "uint256",
          "name": "",
          "type": "uint256"
        }
      ],
      "stateMutability": "view",
      "type": "function",
      "constant": true
    },
    {
      "inputs": [],
      "name": "getRemainingCooldown__sender",
      "outputs": [
        {
          "internalType": "uint256",
          "name": "",
          "type": "uint256"
        }
      ],
      "stateMutability": "view",
      "type": "function",
      "constant": true
    }
  ],
  "bytecode": "0x60806040523480156200001157600080fd5b506040518060400160405280600c81526020017f5061796d656e74546f6b656e00000000000000000000000000000000000000008152506040518060400160405280600481526020017f50544b4e0000000000000000000000000000000000000000000000000000000081525081600390805190602001906200009692919062000256565b508060049080519060200190620000af92919062000256565b505050620000cd33683635c9adc5dea00000620000d360201b60201c565b620004b2565b600073ffffffffffffffffffffffffffffffffffffffff168273ffffffffffffffffffffffffffffffffffffffff16141562000146576040517f08c379a00000000000000000000000000000000000000000000000000000000081526004016200013d9062000367565b60405180910390fd5b6200015a600083836200024c60201b60201c565b80600260008282546200016e9190620003c2565b92505081905550806000808473ffffffffffffffffffffffffffffffffffffffff1673ffffffffffffffffffffffffffffffffffffffff1681526020019081526020016000206000828254620001c59190620003c2565b925050819055508173ffffffffffffffffffffffffffffffffffffffff16600073ffffffffffffffffffffffffffffffffffffffff167fddf252ad1be2c89b69c2b068fc378daa952ba7f163c4a11628f55a4df523b3ef836040516200022c919062000430565b60405180910390a362000248600083836200025160201b60201c565b5050565b505050565b505050565b82805462000264906200047c565b90600052602060002090601f016020900481019282620002885760008555620002d4565b82601f10620002a357805160ff1916838001178555620002d4565b82800160010185558215620002d4579182015b82811115620002d3578251825591602001919060010190620002b6565b5b509050620002e39190620002e7565b5090565b5b8082111562000302576000816000905550600101620002e8565b5090565b600082825260208201905092915050565b7f45524332303a206d696e7420746f20746865207a65726f206164647265737300600082015250565b60006200034f601f8362000306565b91506200035c8262000317565b602082019050919050565b60006020820190508181036000830152620003828162000340565b9050919050565b6000819050919050565b7f4e487b7100000000000000000000000000000000000000000000000000000000600052601160045260246000fd5b6000620003cf8262000389565b9150620003dc8362000389565b9250827fffffffffffffffffffffffffffffffffffffffffffffffffffffffffffffffff0382111562000414576200041362000393565b5b828201905092915050565b6200042a8162000389565b82525050565b60006020820190506200044760008301846200041f565b92915050565b7f4e487b7100000000000000000000000000000000000000000000000000000000600052602260045260246000fd5b600060028204905060018216806200049557607f821691505b60208210811415620004ac57620004ab6200044d565b5b50919050565b61179080620004c26000396000f3fe608060405234801561001057600080fd5b50600436106101005760003560e01c806395d89b4111610097578063c40b57a111610066578063c40b57a1146102d9578063c667cf9c146102f7578063dd62ed3e14610301578063e6f3e0041461033157610100565b806395d89b411461023d578063a457c2d71461025b578063a9059cbb1461028b578063c239fb2f146102bb57610100565b8063313ce567116100d3578063313ce567146101a157806339509351146101bf57806370a08231146101ef5780637d2632451461021f57610100565b806306fdde0314610105578063095ea7b31461012357806318160ddd1461015357806323b872dd14610171575b600080fd5b61010d610361565b60405161011a9190610f3e565b60405180910390f35b61013d60048036038101906101389190610ff9565b6103f3565b60405161014a9190611054565b60405180910390f35b61015b610416565b604051610168919061107e565b60405180910390f35b61018b60048036038101906101869190611099565b610420565b6040516101989190611054565b60405180910390f35b6101a961044f565b6040516101b69190611108565b60405180910390f35b6101d960048036038101906101d49190610ff9565b610458565b6040516101e69190611054565b60405180910390f35b61020960048036038101906102049190611123565b61048f565b604051610216919061107e565b60405180910390f35b6102276104d7565b604051610234919061107e565b60405180910390f35b6102456104dd565b6040516102529190610f3e565b60405180910390f35b61027560048036038101906102709190610ff9565b61056f565b6040516102829190611054565b60405180910390f35b6102a560048036038101906102a09190610ff9565b6105e6565b6040516102b29190611054565b60405180910390f35b6102c3610609565b6040516102d0919061107e565b60405180910390f35b6102e161060f565b6040516102ee919061107e565b60405180910390f35b6102ff61061f565b005b61031b60048036038101906103169190611150565b610767565b604051610328919061107e565b60405180910390f35b61034b60048036038101906103469190611123565b6107ee565b604051610358919061107e565b60405180910390f35b606060038054610370906111bf565b80601f016020809104026020016040519081016040528092919081815260200182805461039c906111bf565b80156103e95780601f106103be576101008083540402835291602001916103e9565b820191906000526020600020905b8154815290600101906020018083116103cc57829003601f168201915b5050505050905090565b6000806103fe61085b565b905061040b818585610863565b600191505092915050565b6000600254905090565b60008061042b61085b565b9050610438858285610a2e565b610443858585610aba565b60019150509392505050565b60006012905090565b60008061046361085b565b90506104848185856104758589610767565b61047f9190611220565b610863565b600191505092915050565b60008060008373ffffffffffffffffffffffffffffffffffffffff1673ffffffffffffffffffffffffffffffffffffffff168152602001908152602001600020549050919050565b61025881565b6060600480546104ec906111bf565b80601f0160208091040260200160405190810160405280929190818152602001828054610518906111bf565b80156105655780601f1061053a57610100808354040283529160200191610565565b820191906000526020600020905b81548152906001019060200180831161054857829003601f168201915b5050505050905090565b60008061057a61085b565b905060006105888286610767565b9050838110156105cd576040517f08c379a00000000000000000000000000000000000000000000000000000000081526004016105c4906112e8565b60405180910390fd5b6105da8286868403610863565b60019250505092915050565b6000806105f161085b565b90506105fe818585610aba565b600191505092915050565b60055481565b600061061a336107ee565b905090565b42600660003373ffffffffffffffffffffffffffffffffffffffff1673ffffffffffffffffffffffffffffffffffffffff1681526020019081526020016000205411156106a1576040517f08c379a000000000000000000000000000000000000000000000000000000000815260040161069890611354565b60405180910390fd5b6000339050600073ffffffffffffffffffffffffffffffffffffffff168173ffffffffffffffffffffffffffffffffffffffff1614156106e057600080fd5b6106f281678ac7230489e80000610d3b565b678ac7230489e800006005600082825461070c9190611220565b92505081905550610258426107219190611220565b600660008373ffffffffffffffffffffffffffffffffffffffff1673ffffffffffffffffffffffffffffffffffffffff1681526020019081526020016000208190555050565b6000600160008473ffffffffffffffffffffffffffffffffffffffff1673ffffffffffffffffffffffffffffffffffffffff16815260200190815260200160002060008373ffffffffffffffffffffffffffffffffffffffff1673ffffffffffffffffffffffffffffffffffffffff16815260200190815260200160002054905092915050565b600080600660008473ffffffffffffffffffffffffffffffffffffffff1673ffffffffffffffffffffffffffffffffffffffff1681526020019081526020016000205490506000811415610846576000915050610856565b42816108529190611374565b9150505b919050565b600033905090565b600073ffffffffffffffffffffffffffffffffffffffff168373ffffffffffffffffffffffffffffffffffffffff1614156108d3576040517f08c379a00000000000000000000000000000000000000000000000000000000081526004016108ca9061141a565b60405180910390fd5b600073ffffffffffffffffffffffffffffffffffffffff168273ffffffffffffffffffffffffffffffffffffffff161415610943576040517f08c379a000000000000000000000000000000000000000000000000000000000815260040161093a906114ac565b60405180910390fd5b80600160008573ffffffffffffffffffffffffffffffffffffffff1673ffffffffffffffffffffffffffffffffffffffff16815260200190815260200160002060008473ffffffffffffffffffffffffffffffffffffffff1673ffffffffffffffffffffffffffffffffffffffff168152602001908152602001600020819055508173ffffffffffffffffffffffffffffffffffffffff168373ffffffffffffffffffffffffffffffffffffffff167f8c5be1e5ebec7d5bd14f71427d1e84f3dd0314c0f7b2291e5b200ac8c7c3b92583604051610a21919061107e565b60405180910390a3505050565b6000610a3a8484610767565b90507fffffffffffffffffffffffffffffffffffffffffffffffffffffffffffffffff8114610ab45781811015610aa6576040517f08c379a0000000000000000000000000000000000000000000000000000000008152600401610a9d90611518565b60405180910390fd5b610ab38484848403610863565b5b50505050565b600073ffffffffffffffffffffffffffffffffffffffff168373ffffffffffffffffffffffffffffffffffffffff161415610b2a576040517f08c379a0000000000000000000000000000000000000000000000000000000008152600401610b21906115aa565b60405180910390fd5b600073ffffffffffffffffffffffffffffffffffffffff168273ffffffffffffffffffffffffffffffffffffffff161415610b9a576040517f08c379a0000000000000000000000000000000000000000000000000000000008152600401610b919061163c565b60405180910390fd5b610ba5838383610e9b565b60008060008573ffffffffffffffffffffffffffffffffffffffff1673ffffffffffffffffffffffffffffffffffffffff16815260200190815260200160002054905081811015610c2b576040517f08c379a0000000000000000000000000000000000000000000000000000000008152600401610c22906116ce565b60405180910390fd5b8181036000808673ffffffffffffffffffffffffffffffffffffffff1673ffffffffffffffffffffffffffffffffffffffff16815260200190815260200160002081905550816000808573ffffffffffffffffffffffffffffffffffffffff1673ffffffffffffffffffffffffffffffffffffffff1681526020019081526020016000206000828254610cbe9190611220565b925050819055508273ffffffffffffffffffffffffffffffffffffffff168473ffffffffffffffffffffffffffffffffffffffff167fddf252ad1be2c89b69c2b068fc378daa952ba7f163c4a11628f55a4df523b3ef84604051610d22919061107e565b60405180910390a3610d35848484610ea0565b50505050565b600073ffffffffffffffffffffffffffffffffffffffff168273ffffffffffffffffffffffffffffffffffffffff161415610dab576040517f08c379a0000000000000000000000000000000000000000000000000000000008152600401610da29061173a565b60405180910390fd5b610db760008383610e9b565b8060026000828254610dc99190611220565b92505081905550806000808473ffffffffffffffffffffffffffffffffffffffff1673ffffffffffffffffffffffffffffffffffffffff1681526020019081526020016000206000828254610e1e9190611220565b925050819055508173ffffffffffffffffffffffffffffffffffffffff16600073ffffffffffffffffffffffffffffffffffffffff167fddf252ad1be2c89b69c2b068fc378daa952ba7f163c4a11628f55a4df523b3ef83604051610e83919061107e565b60405180910390a3610e9760008383610ea0565b5050565b505050565b505050565b600081519050919050565b600082825260208201905092915050565b60005b83811015610edf578082015181840152602081019050610ec4565b83811115610eee576000848401525b50505050565b6000601f19601f8301169050919050565b6000610f1082610ea5565b610f1a8185610eb0565b9350610f2a818560208601610ec1565b610f3381610ef4565b840191505092915050565b60006020820190508181036000830152610f588184610f05565b905092915050565b600080fd5b600073ffffffffffffffffffffffffffffffffffffffff82169050919050565b6000610f9082610f65565b9050919050565b610fa081610f85565b8114610fab57600080fd5b50565b600081359050610fbd81610f97565b92915050565b6000819050919050565b610fd681610fc3565b8114610fe157600080fd5b50565b600081359050610ff381610fcd565b92915050565b600080604083850312156110105761100f610f60565b5b600061101e85828601610fae565b925050602061102f85828601610fe4565b9150509250929050565b60008115159050919050565b61104e81611039565b82525050565b60006020820190506110696000830184611045565b92915050565b61107881610fc3565b82525050565b6000602082019050611093600083018461106f565b92915050565b6000806000606084860312156110b2576110b1610f60565b5b60006110c086828701610fae565b93505060206110d186828701610fae565b92505060406110e286828701610fe4565b9150509250925092565b600060ff82169050919050565b611102816110ec565b82525050565b600060208201905061111d60008301846110f9565b92915050565b60006020828403121561113957611138610f60565b5b600061114784828501610fae565b91505092915050565b6000806040838503121561116757611166610f60565b5b600061117585828601610fae565b925050602061118685828601610fae565b9150509250929050565b7f4e487b7100000000000000000000000000000000000000000000000000000000600052602260045260246000fd5b600060028204905060018216806111d757607f821691505b602082108114156111eb576111ea611190565b5b50919050565b7f4e487b7100000000000000000000000000000000000000000000000000000000600052601160045260246000fd5b600061122b82610fc3565b915061123683610fc3565b9250827fffffffffffffffffffffffffffffffffffffffffffffffffffffffffffffffff0382111561126b5761126a6111f1565b5b828201905092915050565b7f45524332303a2064656372656173656420616c6c6f77616e63652062656c6f7760008201527f207a65726f000000000000000000000000000000000000000000000000000000602082015250565b60006112d2602583610eb0565b91506112dd82611276565b604082019050919050565b60006020820190508181036000830152611301816112c5565b9050919050565b7f55736572206973206f6e20636f6f6c646f776e00000000000000000000000000600082015250565b600061133e601383610eb0565b915061134982611308565b602082019050919050565b6000602082019050818103600083015261136d81611331565b9050919050565b600061137f82610fc3565b915061138a83610fc3565b92508282101561139d5761139c6111f1565b5b828203905092915050565b7f45524332303a20617070726f76652066726f6d20746865207a65726f2061646460008201527f7265737300000000000000000000000000000000000000000000000000000000602082015250565b6000611404602483610eb0565b915061140f826113a8565b604082019050919050565b60006020820190508181036000830152611433816113f7565b9050919050565b7f45524332303a20617070726f766520746f20746865207a65726f20616464726560008201527f7373000000000000000000000000000000000000000000000000000000000000602082015250565b6000611496602283610eb0565b91506114a18261143a565b604082019050919050565b600060208201905081810360008301526114c581611489565b9050919050565b7f45524332303a20696e73756666696369656e7420616c6c6f77616e6365000000600082015250565b6000611502601d83610eb0565b915061150d826114cc565b602082019050919050565b60006020820190508181036000830152611531816114f5565b9050919050565b7f45524332303a207472616e736665722066726f6d20746865207a65726f20616460008201527f6472657373000000000000000000000000000000000000000000000000000000602082015250565b6000611594602583610eb0565b915061159f82611538565b604082019050919050565b600060208201905081810360008301526115c381611587565b9050919050565b7f45524332303a207472616e7366657220746f20746865207a65726f206164647260008201527f6573730000000000000000000000000000000000000000000000000000000000602082015250565b6000611626602383610eb0565b9150611631826115ca565b604082019050919050565b6000602082019050818103600083015261165581611619565b9050919050565b7f45524332303a207472616e7366657220616d6f756e742065786365656473206260008201527f616c616e63650000000000000000000000000000000000000000000000000000602082015250565b60006116b8602683610eb0565b91506116c38261165c565b604082019050919050565b600060208201905081810360008301526116e7816116ab565b9050919050565b7f45524332303a206d696e7420746f20746865207a65726f206164647265737300600082015250565b6000611724601f83610eb0565b915061172f826116ee565b602082019050919050565b6000602082019050818103600083015261175381611717565b905091905056fea2646970667358221220014cb91c8399d533ce2e05f34f676537f55bf864bc52edaad6baacb20c5b0f9364736f6c634300080c0033",
  "immutableReferences": {},
  "source": "// !! This contract is not audited. Do not use in production!!\n\n//SPDX-License-Identifier: UNLICENSED\npragma solidity ^0.8.0;\n\n// erc20 token\nimport \"@openzeppelin/contracts/token/ERC20/ERC20.sol\"; // ERC20.sol\n\ncontract PaymentToken is ERC20 {\n    // Constant variable for cooldown time\n    uint256 public constant COOLDOWN_TIME = 10 * 60;\n\n    // Total requested token amount\n    uint256 public totalRequestedTokenAmount;\n\n    // Mapping for address to cooldown\n    mapping(address => uint256) internal cooldowns;\n\n    // Constructor\n    constructor() ERC20(\"PaymentToken\", \"PTKN\") {\n        _mint(msg.sender, 1000 * 10**18);\n    }\n\n    // Modifier for checking cooldown\n    modifier isNotOnCooldown() {\n        require(\n            cooldowns[msg.sender] <= block.timestamp,\n            \"User is on cooldown\"\n        );\n        _;\n    }\n\n    // Function for requesting Payment Token\n    function requestPaymentToken() public isNotOnCooldown {\n        // Local variable for msg.sender\n        address _user = msg.sender;\n        // Check if user is not null\n        require(_user != address(0));\n\n        // Mint payment token to user (10 Ether Payment Token)\n        _mint(_user, 10 * 10**18);\n\n        // Update total requested token amount\n        totalRequestedTokenAmount += 10 * 10**18;\n\n        // Set cooldown for user\n        cooldowns[_user] = block.timestamp + COOLDOWN_TIME;\n    }\n\n    // Getter function for remaining cooldown\n    function getRemainingCooldown(address _user) public view returns (uint256) {\n        uint256 cooldown = cooldowns[_user];\n\n        if (cooldown == 0) return 0;\n\n        return cooldown - block.timestamp;\n    }\n\n    // Getter remaining cooldown function for msg.sender\n    function getRemainingCooldown__sender() external view returns (uint256) {\n        return getRemainingCooldown(msg.sender);\n    }\n}\n",
  "sourcePath": "/Users/mehmetberatozturk/Documents/Github/ido-for-everyone/contracts/PaymenToken.sol",
  "compiler": {
    "name": "solc",
    "version": "0.8.12+commit.f00d7308.Emscripten.clang"
  },
  "schemaVersion": "3.4.6",
  "updatedAt": "2022-05-07T23:10:32.391Z",
  "networkType": "ethereum",
  "devdoc": {
    "kind": "dev",
    "methods": {
      "allowance(address,address)": {
        "details": "See {IERC20-allowance}."
      },
      "approve(address,uint256)": {
        "details": "See {IERC20-approve}. NOTE: If `amount` is the maximum `uint256`, the allowance is not updated on `transferFrom`. This is semantically equivalent to an infinite approval. Requirements: - `spender` cannot be the zero address."
      },
      "balanceOf(address)": {
        "details": "See {IERC20-balanceOf}."
      },
      "decimals()": {
        "details": "Returns the number of decimals used to get its user representation. For example, if `decimals` equals `2`, a balance of `505` tokens should be displayed to a user as `5.05` (`505 / 10 ** 2`). Tokens usually opt for a value of 18, imitating the relationship between Ether and Wei. This is the value {ERC20} uses, unless this function is overridden; NOTE: This information is only used for _display_ purposes: it in no way affects any of the arithmetic of the contract, including {IERC20-balanceOf} and {IERC20-transfer}."
      },
      "decreaseAllowance(address,uint256)": {
        "details": "Atomically decreases the allowance granted to `spender` by the caller. This is an alternative to {approve} that can be used as a mitigation for problems described in {IERC20-approve}. Emits an {Approval} event indicating the updated allowance. Requirements: - `spender` cannot be the zero address. - `spender` must have allowance for the caller of at least `subtractedValue`."
      },
      "increaseAllowance(address,uint256)": {
        "details": "Atomically increases the allowance granted to `spender` by the caller. This is an alternative to {approve} that can be used as a mitigation for problems described in {IERC20-approve}. Emits an {Approval} event indicating the updated allowance. Requirements: - `spender` cannot be the zero address."
      },
      "name()": {
        "details": "Returns the name of the token."
      },
      "symbol()": {
        "details": "Returns the symbol of the token, usually a shorter version of the name."
      },
      "totalSupply()": {
        "details": "See {IERC20-totalSupply}."
      },
      "transfer(address,uint256)": {
        "details": "See {IERC20-transfer}. Requirements: - `to` cannot be the zero address. - the caller must have a balance of at least `amount`."
      },
      "transferFrom(address,address,uint256)": {
        "details": "See {IERC20-transferFrom}. Emits an {Approval} event indicating the updated allowance. This is not required by the EIP. See the note at the beginning of {ERC20}. NOTE: Does not update the allowance if the current allowance is the maximum `uint256`. Requirements: - `from` and `to` cannot be the zero address. - `from` must have a balance of at least `amount`. - the caller must have allowance for ``from``'s tokens of at least `amount`."
      }
    },
    "version": 1
  },
  "userdoc": {
    "kind": "user",
    "methods": {},
    "version": 1
  }
}