{
  "contractName": "Portfolio",
  "abi": [
    {
      "inputs": [],
      "stateMutability": "nonpayable",
      "type": "constructor"
    },
    {
      "anonymous": false,
      "inputs": [
        {
          "indexed": true,
          "internalType": "address",
          "name": "previousOwner",
          "type": "address"
        },
        {
          "indexed": true,
          "internalType": "address",
          "name": "newOwner",
          "type": "address"
        }
      ],
      "name": "OwnershipTransferred",
      "type": "event"
    },
    {
      "inputs": [],
      "name": "factoryContract",
      "outputs": [
        {
          "internalType": "contract Factory",
          "name": "",
          "type": "address"
        }
      ],
      "stateMutability": "view",
      "type": "function",
      "constant": true
    },
    {
      "inputs": [],
      "name": "owner",
      "outputs": [
        {
          "internalType": "address",
          "name": "",
          "type": "address"
        }
      ],
      "stateMutability": "view",
      "type": "function",
      "constant": true
    },
    {
      "inputs": [],
      "name": "renounceOwnership",
      "outputs": [],
      "stateMutability": "nonpayable",
      "type": "function"
    },
    {
      "inputs": [],
      "name": "tokenCreator",
      "outputs": [
        {
          "internalType": "address",
          "name": "",
          "type": "address"
        }
      ],
      "stateMutability": "view",
      "type": "function",
      "constant": true
    },
    {
      "inputs": [
        {
          "internalType": "address",
          "name": "newOwner",
          "type": "address"
        }
      ],
      "name": "transferOwnership",
      "outputs": [],
      "stateMutability": "nonpayable",
      "type": "function"
    },
    {
      "inputs": [
        {
          "internalType": "contract Factory",
          "name": "_factory",
          "type": "address"
        }
      ],
      "name": "setFactoryContract",
      "outputs": [],
      "stateMutability": "nonpayable",
      "type": "function"
    },
    {
      "inputs": [],
      "name": "getMyPortfolio",
      "outputs": [
        {
          "components": [
            {
              "internalType": "uint256",
              "name": "saleId",
              "type": "uint256"
            },
            {
              "internalType": "string",
              "name": "saleName",
              "type": "string"
            },
            {
              "internalType": "uint256",
              "name": "vestedAmount",
              "type": "uint256"
            },
            {
              "internalType": "uint256",
              "name": "withdrawnAmount",
              "type": "uint256"
            },
            {
              "internalType": "uint256",
              "name": "price",
              "type": "uint256"
            },
            {
              "internalType": "uint256[]",
              "name": "distributionDates",
              "type": "uint256[]"
            },
            {
              "internalType": "bool[]",
              "name": "isPortionWithdrawn",
              "type": "bool[]"
            },
            {
              "internalType": "bool",
              "name": "isFinished",
              "type": "bool"
            },
            {
              "internalType": "address",
              "name": "tokenAddress",
              "type": "address"
            }
          ],
          "internalType": "struct IDOLib.Investment[]",
          "name": "",
          "type": "tuple[]"
        }
      ],
      "stateMutability": "view",
      "type": "function",
      "constant": true
    },
    {
      "inputs": [],
      "name": "getMyERC20s",
      "outputs": [
        {
          "components": [
            {
              "internalType": "string",
              "name": "name",
              "type": "string"
            },
            {
              "internalType": "string",
              "name": "symbol",
              "type": "string"
            },
            {
              "internalType": "uint256",
              "name": "totalSupply",
              "type": "uint256"
            },
            {
              "internalType": "address",
              "name": "tokenAddress",
              "type": "address"
            }
          ],
          "internalType": "struct IDOLib.ERC20[]",
          "name": "",
          "type": "tuple[]"
        }
      ],
      "stateMutability": "view",
      "type": "function",
      "constant": true
    },
    {
      "inputs": [
        {
          "internalType": "uint256",
          "name": "_id",
          "type": "uint256"
        }
      ],
      "name": "getInvestment",
      "outputs": [
        {
          "components": [
            {
              "internalType": "uint256",
              "name": "saleId",
              "type": "uint256"
            },
            {
              "internalType": "string",
              "name": "saleName",
              "type": "string"
            },
            {
              "internalType": "uint256",
              "name": "vestedAmount",
              "type": "uint256"
            },
            {
              "internalType": "uint256",
              "name": "withdrawnAmount",
              "type": "uint256"
            },
            {
              "internalType": "uint256",
              "name": "price",
              "type": "uint256"
            },
            {
              "internalType": "uint256[]",
              "name": "distributionDates",
              "type": "uint256[]"
            },
            {
              "internalType": "bool[]",
              "name": "isPortionWithdrawn",
              "type": "bool[]"
            },
            {
              "internalType": "bool",
              "name": "isFinished",
              "type": "bool"
            },
            {
              "internalType": "address",
              "name": "tokenAddress",
              "type": "address"
            }
          ],
          "internalType": "struct IDOLib.Investment",
          "name": "",
          "type": "tuple"
        }
      ],
      "stateMutability": "view",
      "type": "function",
      "constant": true
    },
    {
      "inputs": [
        {
          "internalType": "address",
          "name": "user",
          "type": "address"
        },
        {
          "internalType": "uint256",
          "name": "_saleId",
          "type": "uint256"
        }
      ],
      "name": "isInvesmentExists",
      "outputs": [
        {
          "internalType": "bool",
          "name": "",
          "type": "bool"
        }
      ],
      "stateMutability": "view",
      "type": "function",
      "constant": true
    },
    {
      "inputs": [
        {
          "components": [
            {
              "internalType": "uint256",
              "name": "saleId",
              "type": "uint256"
            },
            {
              "internalType": "string",
              "name": "saleName",
              "type": "string"
            },
            {
              "internalType": "uint256",
              "name": "vestedAmount",
              "type": "uint256"
            },
            {
              "internalType": "uint256",
              "name": "withdrawnAmount",
              "type": "uint256"
            },
            {
              "internalType": "uint256",
              "name": "price",
              "type": "uint256"
            },
            {
              "internalType": "uint256[]",
              "name": "distributionDates",
              "type": "uint256[]"
            },
            {
              "internalType": "bool[]",
              "name": "isPortionWithdrawn",
              "type": "bool[]"
            },
            {
              "internalType": "bool",
              "name": "isFinished",
              "type": "bool"
            },
            {
              "internalType": "address",
              "name": "tokenAddress",
              "type": "address"
            }
          ],
          "internalType": "struct IDOLib.Investment",
          "name": "_invesment",
          "type": "tuple"
        },
        {
          "internalType": "address",
          "name": "user",
          "type": "address"
        }
      ],
      "name": "addPortfolio",
      "outputs": [],
      "stateMutability": "nonpayable",
      "type": "function"
    },
    {
      "inputs": [
        {
          "internalType": "address",
          "name": "user",
          "type": "address"
        },
        {
          "internalType": "uint256",
          "name": "saleID",
          "type": "uint256"
        },
        {
          "internalType": "uint256",
          "name": "newWithdrawnAmount",
          "type": "uint256"
        },
        {
          "internalType": "bool[]",
          "name": "newPortionArray",
          "type": "bool[]"
        }
      ],
      "name": "updatePortolio",
      "outputs": [],
      "stateMutability": "nonpayable",
      "type": "function"
    },
    {
      "inputs": [
        {
          "internalType": "address",
          "name": "user",
          "type": "address"
        },
        {
          "internalType": "string",
          "name": "name",
          "type": "string"
        },
        {
          "internalType": "string",
          "name": "symbol",
          "type": "string"
        },
        {
          "internalType": "uint256",
          "name": "totalSupply",
          "type": "uint256"
        },
        {
          "internalType": "address",
          "name": "tokenAddress",
          "type": "address"
        }
      ],
      "name": "addERC20",
      "outputs": [],
      "stateMutability": "nonpayable",
      "type": "function"
    },
    {
      "inputs": [
        {
          "internalType": "address",
          "name": "_tokenCreator",
          "type": "address"
        }
      ],
      "name": "setTokenCreator",
      "outputs": [],
      "stateMutability": "nonpayable",
      "type": "function"
    }
  ],
  "bytecode": "0x60806040523480156200001157600080fd5b5062000032620000266200003860201b60201c565b6200004060201b60201c565b62000104565b600033905090565b60008060009054906101000a900473ffffffffffffffffffffffffffffffffffffffff169050816000806101000a81548173ffffffffffffffffffffffffffffffffffffffff021916908373ffffffffffffffffffffffffffffffffffffffff1602179055508173ffffffffffffffffffffffffffffffffffffffff168173ffffffffffffffffffffffffffffffffffffffff167f8be0079c531659141344cd1fd0a4f28419497f9722a3daafe3b4186f6b6457e060405160405180910390a35050565b612c3c80620001146000396000f3fe608060405234801561001057600080fd5b50600436106100ea5760003560e01c8063915f5fde1161008c578063d424134111610066578063d424134114610223578063db84252c1461023f578063de11c94a1461025d578063f2fde38b1461027b576100ea565b8063915f5fde146101b9578063b5151ed5146101e9578063d360086114610207576100ea565b80634d403467116100c85780634d40346714610157578063715018a6146101735780638a114ec11461017d5780638da5cb5b1461019b576100ea565b806322ae634f146100ef57806325e0b16d1461011f5780632f3af0a61461013b575b600080fd5b610109600480360381019061010491906119c0565b610297565b6040516101169190611d22565b60405180910390f35b61013960048036038101906101349190611d70565b61061a565b005b61015560048036038101906101509190611ed2565b6106da565b005b610171600480360381019061016c9190612079565b6108a3565b005b61017b610bbd565b005b610185610c45565b6040516101929190612228565b60405180910390f35b6101a3610e65565b6040516101b09190612259565b60405180910390f35b6101d360048036038101906101ce9190612274565b610e8e565b6040516101e091906122c3565b60405180910390f35b6101f1610f84565b6040516101fe9190612473565b60405180910390f35b610221600480360381019061021c9190612696565b611221565b005b61023d60048036038101906102389190612730565b611452565b005b610247611512565b6040516102549190612259565b60405180910390f35b610265611538565b60405161027291906127bc565b60405180910390f35b61029560048036038101906102909190611d70565b61155e565b005b61029f61177c565b6000600160003373ffffffffffffffffffffffffffffffffffffffff1673ffffffffffffffffffffffffffffffffffffffff1681526020019081526020016000208054905011610324576040517f08c379a000000000000000000000000000000000000000000000000000000000815260040161031b90612834565b60405180910390fd5b600160003373ffffffffffffffffffffffffffffffffffffffff1673ffffffffffffffffffffffffffffffffffffffff1681526020019081526020016000208054905082106103a8576040517f08c379a000000000000000000000000000000000000000000000000000000000815260040161039f906128a0565b60405180910390fd5b600160003373ffffffffffffffffffffffffffffffffffffffff1673ffffffffffffffffffffffffffffffffffffffff16815260200190815260200160002082815481106103f9576103f86128c0565b5b9060005260206000209060080201604051806101200160405290816000820154815260200160018201805461042d9061291e565b80601f01602080910402602001604051908101604052809291908181526020018280546104599061291e565b80156104a65780601f1061047b576101008083540402835291602001916104a6565b820191906000526020600020905b81548152906001019060200180831161048957829003601f168201915b505050505081526020016002820154815260200160038201548152602001600482015481526020016005820180548060200260200160405190810160405280929190818152602001828054801561051c57602002820191906000526020600020905b815481526020019060010190808311610508575b505050505081526020016006820180548060200260200160405190810160405280929190818152602001828054801561059957602002820191906000526020600020906000905b82829054906101000a900460ff161515815260200190600101906020826000010492830192600103820291508084116105635790505b505050505081526020016007820160009054906101000a900460ff161515151581526020016007820160019054906101000a900473ffffffffffffffffffffffffffffffffffffffff1673ffffffffffffffffffffffffffffffffffffffff1673ffffffffffffffffffffffffffffffffffffffff16815250509050919050565b610622611656565b73ffffffffffffffffffffffffffffffffffffffff16610640610e65565b73ffffffffffffffffffffffffffffffffffffffff1614610696576040517f08c379a000000000000000000000000000000000000000000000000000000000815260040161068d9061299c565b60405180910390fd5b80600460006101000a81548173ffffffffffffffffffffffffffffffffffffffff021916908373ffffffffffffffffffffffffffffffffffffffff16021790555050565b600460009054906101000a900473ffffffffffffffffffffffffffffffffffffffff1673ffffffffffffffffffffffffffffffffffffffff163373ffffffffffffffffffffffffffffffffffffffff161461076a576040517f08c379a000000000000000000000000000000000000000000000000000000000815260040161076190612a2e565b60405180910390fd5b600060405180608001604052808681526020018581526020018481526020018373ffffffffffffffffffffffffffffffffffffffff168152509050600260008773ffffffffffffffffffffffffffffffffffffffff1673ffffffffffffffffffffffffffffffffffffffff168152602001908152602001600020819080600181540180825580915050600190039060005260206000209060040201600090919091909150600082015181600001908051906020019061082a9291906117e0565b5060208201518160010190805190602001906108479291906117e0565b506040820151816002015560608201518160030160006101000a81548173ffffffffffffffffffffffffffffffffffffffff021916908373ffffffffffffffffffffffffffffffffffffffff1602179055505050505050505050565b600360009054906101000a900473ffffffffffffffffffffffffffffffffffffffff1673ffffffffffffffffffffffffffffffffffffffff1663421d2ccf336040518263ffffffff1660e01b81526004016108fe9190612259565b602060405180830381865afa15801561091b573d6000803e3d6000fd5b505050506040513d601f19601f8201168201806040525081019061093f9190612a63565b61097e576040517f08c379a000000000000000000000000000000000000000000000000000000000815260040161097590612adc565b60405180910390fd5b6000600160008673ffffffffffffffffffffffffffffffffffffffff1673ffffffffffffffffffffffffffffffffffffffff16815260200190815260200160002080549050905060005b81811015610bb55784600160008873ffffffffffffffffffffffffffffffffffffffff1673ffffffffffffffffffffffffffffffffffffffff1681526020019081526020016000208281548110610a2257610a216128c0565b5b9060005260206000209060080201600001541415610ba25783600160008873ffffffffffffffffffffffffffffffffffffffff1673ffffffffffffffffffffffffffffffffffffffff1681526020019081526020016000208281548110610a8c57610a8b6128c0565b5b90600052602060002090600802016003018190555082600160008873ffffffffffffffffffffffffffffffffffffffff1673ffffffffffffffffffffffffffffffffffffffff1681526020019081526020016000208281548110610af357610af26128c0565b5b90600052602060002090600802016006019080519060200190610b17929190611866565b50610b218361165e565b15610ba15760018060008873ffffffffffffffffffffffffffffffffffffffff1673ffffffffffffffffffffffffffffffffffffffff1681526020019081526020016000208281548110610b7857610b776128c0565b5b906000526020600020906008020160070160006101000a81548160ff0219169083151502179055505b5b8080610bad90612b2b565b9150506109c8565b505050505050565b610bc5611656565b73ffffffffffffffffffffffffffffffffffffffff16610be3610e65565b73ffffffffffffffffffffffffffffffffffffffff1614610c39576040517f08c379a0000000000000000000000000000000000000000000000000000000008152600401610c309061299c565b60405180910390fd5b610c4360006116b8565b565b6060600260003373ffffffffffffffffffffffffffffffffffffffff1673ffffffffffffffffffffffffffffffffffffffff168152602001908152602001600020805480602002602001604051908101604052809291908181526020016000905b82821015610e5c5783829060005260206000209060040201604051806080016040529081600082018054610cd99061291e565b80601f0160208091040260200160405190810160405280929190818152602001828054610d059061291e565b8015610d525780601f10610d2757610100808354040283529160200191610d52565b820191906000526020600020905b815481529060010190602001808311610d3557829003601f168201915b50505050508152602001600182018054610d6b9061291e565b80601f0160208091040260200160405190810160405280929190818152602001828054610d979061291e565b8015610de45780601f10610db957610100808354040283529160200191610de4565b820191906000526020600020905b815481529060010190602001808311610dc757829003601f168201915b50505050508152602001600282015481526020016003820160009054906101000a900473ffffffffffffffffffffffffffffffffffffffff1673ffffffffffffffffffffffffffffffffffffffff1673ffffffffffffffffffffffffffffffffffffffff168152505081526020019060010190610ca6565b50505050905090565b60008060009054906101000a900473ffffffffffffffffffffffffffffffffffffffff16905090565b600080600160008573ffffffffffffffffffffffffffffffffffffffff1673ffffffffffffffffffffffffffffffffffffffff1681526020019081526020016000208054905090506000811415610ee9576000915050610f7e565b6000805b82811015610f775784600160008873ffffffffffffffffffffffffffffffffffffffff1673ffffffffffffffffffffffffffffffffffffffff1681526020019081526020016000208281548110610f4757610f466128c0565b5b9060005260206000209060080201600001541415610f6457600191505b8080610f6f90612b2b565b915050610eed565b8193505050505b92915050565b6060600160003373ffffffffffffffffffffffffffffffffffffffff1673ffffffffffffffffffffffffffffffffffffffff168152602001908152602001600020805480602002602001604051908101604052809291908181526020016000905b82821015611218578382906000526020600020906008020160405180610120016040529081600082015481526020016001820180546110239061291e565b80601f016020809104026020016040519081016040528092919081815260200182805461104f9061291e565b801561109c5780601f106110715761010080835404028352916020019161109c565b820191906000526020600020905b81548152906001019060200180831161107f57829003601f168201915b505050505081526020016002820154815260200160038201548152602001600482015481526020016005820180548060200260200160405190810160405280929190818152602001828054801561111257602002820191906000526020600020905b8154815260200190600101908083116110fe575b505050505081526020016006820180548060200260200160405190810160405280929190818152602001828054801561118f57602002820191906000526020600020906000905b82829054906101000a900460ff161515815260200190600101906020826000010492830192600103820291508084116111595790505b505050505081526020016007820160009054906101000a900460ff161515151581526020016007820160019054906101000a900473ffffffffffffffffffffffffffffffffffffffff1673ffffffffffffffffffffffffffffffffffffffff1673ffffffffffffffffffffffffffffffffffffffff168152505081526020019060010190610fe5565b50505050905090565b600360009054906101000a900473ffffffffffffffffffffffffffffffffffffffff1673ffffffffffffffffffffffffffffffffffffffff1663421d2ccf336040518263ffffffff1660e01b815260040161127c9190612259565b602060405180830381865afa158015611299573d6000803e3d6000fd5b505050506040513d601f19601f820116820180604052508101906112bd9190612a63565b6112fc576040517f08c379a00000000000000000000000000000000000000000000000000000000081526004016112f390612adc565b60405180910390fd5b600160008273ffffffffffffffffffffffffffffffffffffffff1673ffffffffffffffffffffffffffffffffffffffff16815260200190815260200160002082908060018154018082558091505060019003906000526020600020906008020160009091909190915060008201518160000155602082015181600101908051906020019061138b9291906117e0565b5060408201518160020155606082015181600301556080820151816004015560a08201518160050190805190602001906113c692919061190c565b5060c08201518160060190805190602001906113e3929190611866565b5060e08201518160070160006101000a81548160ff0219169083151502179055506101008201518160070160016101000a81548173ffffffffffffffffffffffffffffffffffffffff021916908373ffffffffffffffffffffffffffffffffffffffff16021790555050505050565b61145a611656565b73ffffffffffffffffffffffffffffffffffffffff16611478610e65565b73ffffffffffffffffffffffffffffffffffffffff16146114ce576040517f08c379a00000000000000000000000000000000000000000000000000000000081526004016114c59061299c565b60405180910390fd5b80600360006101000a81548173ffffffffffffffffffffffffffffffffffffffff021916908373ffffffffffffffffffffffffffffffffffffffff16021790555050565b600460009054906101000a900473ffffffffffffffffffffffffffffffffffffffff1681565b600360009054906101000a900473ffffffffffffffffffffffffffffffffffffffff1681565b611566611656565b73ffffffffffffffffffffffffffffffffffffffff16611584610e65565b73ffffffffffffffffffffffffffffffffffffffff16146115da576040517f08c379a00000000000000000000000000000000000000000000000000000000081526004016115d19061299c565b60405180910390fd5b600073ffffffffffffffffffffffffffffffffffffffff168173ffffffffffffffffffffffffffffffffffffffff16141561164a576040517f08c379a000000000000000000000000000000000000000000000000000000000815260040161164190612be6565b60405180910390fd5b611653816116b8565b50565b600033905090565b6000806001905060008351905060005b818110156116ad57848181518110611689576116886128c0565b5b602002602001015161169a57600092505b80806116a590612b2b565b91505061166e565b829350505050919050565b60008060009054906101000a900473ffffffffffffffffffffffffffffffffffffffff169050816000806101000a81548173ffffffffffffffffffffffffffffffffffffffff021916908373ffffffffffffffffffffffffffffffffffffffff1602179055508173ffffffffffffffffffffffffffffffffffffffff168173ffffffffffffffffffffffffffffffffffffffff167f8be0079c531659141344cd1fd0a4f28419497f9722a3daafe3b4186f6b6457e060405160405180910390a35050565b60405180610120016040528060008152602001606081526020016000815260200160008152602001600081526020016060815260200160608152602001600015158152602001600073ffffffffffffffffffffffffffffffffffffffff1681525090565b8280546117ec9061291e565b90600052602060002090601f01602090048101928261180e5760008555611855565b82601f1061182757805160ff1916838001178555611855565b82800160010185558215611855579182015b82811115611854578251825591602001919060010190611839565b5b5090506118629190611959565b5090565b82805482825590600052602060002090601f016020900481019282156118fb5791602002820160005b838211156118cc57835183826101000a81548160ff021916908315150217905550926020019260010160208160000104928301926001030261188f565b80156118f95782816101000a81549060ff02191690556001016020816000010492830192600103026118cc565b505b5090506119089190611959565b5090565b828054828255906000526020600020908101928215611948579160200282015b8281111561194757825182559160200191906001019061192c565b5b5090506119559190611959565b5090565b5b8082111561197257600081600090555060010161195a565b5090565b6000604051905090565b600080fd5b600080fd5b6000819050919050565b61199d8161198a565b81146119a857600080fd5b50565b6000813590506119ba81611994565b92915050565b6000602082840312156119d6576119d5611980565b5b60006119e4848285016119ab565b91505092915050565b6119f68161198a565b82525050565b600081519050919050565b600082825260208201905092915050565b60005b83811015611a36578082015181840152602081019050611a1b565b83811115611a45576000848401525b50505050565b6000601f19601f8301169050919050565b6000611a67826119fc565b611a718185611a07565b9350611a81818560208601611a18565b611a8a81611a4b565b840191505092915050565b600081519050919050565b600082825260208201905092915050565b6000819050602082019050919050565b6000611acd83836119ed565b60208301905092915050565b6000602082019050919050565b6000611af182611a95565b611afb8185611aa0565b9350611b0683611ab1565b8060005b83811015611b37578151611b1e8882611ac1565b9750611b2983611ad9565b925050600181019050611b0a565b5085935050505092915050565b600081519050919050565b600082825260208201905092915050565b6000819050602082019050919050565b60008115159050919050565b611b8581611b70565b82525050565b6000611b978383611b7c565b60208301905092915050565b6000602082019050919050565b6000611bbb82611b44565b611bc58185611b4f565b9350611bd083611b60565b8060005b83811015611c01578151611be88882611b8b565b9750611bf383611ba3565b925050600181019050611bd4565b5085935050505092915050565b600073ffffffffffffffffffffffffffffffffffffffff82169050919050565b6000611c3982611c0e565b9050919050565b611c4981611c2e565b82525050565b600061012083016000830151611c6860008601826119ed565b5060208301518482036020860152611c808282611a5c565b9150506040830151611c9560408601826119ed565b506060830151611ca860608601826119ed565b506080830151611cbb60808601826119ed565b5060a083015184820360a0860152611cd38282611ae6565b91505060c083015184820360c0860152611ced8282611bb0565b91505060e0830151611d0260e0860182611b7c565b50610100830151611d17610100860182611c40565b508091505092915050565b60006020820190508181036000830152611d3c8184611c4f565b905092915050565b611d4d81611c2e565b8114611d5857600080fd5b50565b600081359050611d6a81611d44565b92915050565b600060208284031215611d8657611d85611980565b5b6000611d9484828501611d5b565b91505092915050565b600080fd5b600080fd5b7f4e487b7100000000000000000000000000000000000000000000000000000000600052604160045260246000fd5b611ddf82611a4b565b810181811067ffffffffffffffff82111715611dfe57611dfd611da7565b5b80604052505050565b6000611e11611976565b9050611e1d8282611dd6565b919050565b600067ffffffffffffffff821115611e3d57611e3c611da7565b5b611e4682611a4b565b9050602081019050919050565b82818337600083830152505050565b6000611e75611e7084611e22565b611e07565b905082815260208101848484011115611e9157611e90611da2565b5b611e9c848285611e53565b509392505050565b600082601f830112611eb957611eb8611d9d565b5b8135611ec9848260208601611e62565b91505092915050565b600080600080600060a08688031215611eee57611eed611980565b5b6000611efc88828901611d5b565b955050602086013567ffffffffffffffff811115611f1d57611f1c611985565b5b611f2988828901611ea4565b945050604086013567ffffffffffffffff811115611f4a57611f49611985565b5b611f5688828901611ea4565b9350506060611f67888289016119ab565b9250506080611f7888828901611d5b565b9150509295509295909350565b600067ffffffffffffffff821115611fa057611f9f611da7565b5b602082029050602081019050919050565b600080fd5b611fbf81611b70565b8114611fca57600080fd5b50565b600081359050611fdc81611fb6565b92915050565b6000611ff5611ff084611f85565b611e07565b9050808382526020820190506020840283018581111561201857612017611fb1565b5b835b81811015612041578061202d8882611fcd565b84526020840193505060208101905061201a565b5050509392505050565b600082601f8301126120605761205f611d9d565b5b8135612070848260208601611fe2565b91505092915050565b6000806000806080858703121561209357612092611980565b5b60006120a187828801611d5b565b94505060206120b2878288016119ab565b93505060406120c3878288016119ab565b925050606085013567ffffffffffffffff8111156120e4576120e3611985565b5b6120f08782880161204b565b91505092959194509250565b600081519050919050565b600082825260208201905092915050565b6000819050602082019050919050565b600060808301600083015184820360008601526121458282611a5c565b9150506020830151848203602086015261215f8282611a5c565b915050604083015161217460408601826119ed565b5060608301516121876060860182611c40565b508091505092915050565b600061219e8383612128565b905092915050565b6000602082019050919050565b60006121be826120fc565b6121c88185612107565b9350836020820285016121da85612118565b8060005b8581101561221657848403895281516121f78582612192565b9450612202836121a6565b925060208a019950506001810190506121de565b50829750879550505050505092915050565b6000602082019050818103600083015261224281846121b3565b905092915050565b61225381611c2e565b82525050565b600060208201905061226e600083018461224a565b92915050565b6000806040838503121561228b5761228a611980565b5b600061229985828601611d5b565b92505060206122aa858286016119ab565b9150509250929050565b6122bd81611b70565b82525050565b60006020820190506122d860008301846122b4565b92915050565b600081519050919050565b600082825260208201905092915050565b6000819050602082019050919050565b60006101208301600083015161232360008601826119ed565b506020830151848203602086015261233b8282611a5c565b915050604083015161235060408601826119ed565b50606083015161236360608601826119ed565b50608083015161237660808601826119ed565b5060a083015184820360a086015261238e8282611ae6565b91505060c083015184820360c08601526123a88282611bb0565b91505060e08301516123bd60e0860182611b7c565b506101008301516123d2610100860182611c40565b508091505092915050565b60006123e9838361230a565b905092915050565b6000602082019050919050565b6000612409826122de565b61241381856122e9565b935083602082028501612425856122fa565b8060005b85811015612461578484038952815161244285826123dd565b945061244d836123f1565b925060208a01995050600181019050612429565b50829750879550505050505092915050565b6000602082019050818103600083015261248d81846123fe565b905092915050565b600080fd5b600080fd5b600067ffffffffffffffff8211156124ba576124b9611da7565b5b602082029050602081019050919050565b60006124de6124d98461249f565b611e07565b9050808382526020820190506020840283018581111561250157612500611fb1565b5b835b8181101561252a578061251688826119ab565b845260208401935050602081019050612503565b5050509392505050565b600082601f83011261254957612548611d9d565b5b81356125598482602086016124cb565b91505092915050565b6000610120828403121561257957612578612495565b5b612584610120611e07565b90506000612594848285016119ab565b600083015250602082013567ffffffffffffffff8111156125b8576125b761249a565b5b6125c484828501611ea4565b60208301525060406125d8848285016119ab565b60408301525060606125ec848285016119ab565b6060830152506080612600848285016119ab565b60808301525060a082013567ffffffffffffffff8111156126245761262361249a565b5b61263084828501612534565b60a08301525060c082013567ffffffffffffffff8111156126545761265361249a565b5b6126608482850161204b565b60c08301525060e061267484828501611fcd565b60e08301525061010061268984828501611d5b565b6101008301525092915050565b600080604083850312156126ad576126ac611980565b5b600083013567ffffffffffffffff8111156126cb576126ca611985565b5b6126d785828601612562565b92505060206126e885828601611d5b565b9150509250929050565b60006126fd82611c2e565b9050919050565b61270d816126f2565b811461271857600080fd5b50565b60008135905061272a81612704565b92915050565b60006020828403121561274657612745611980565b5b60006127548482850161271b565b91505092915050565b6000819050919050565b600061278261277d61277884611c0e565b61275d565b611c0e565b9050919050565b600061279482612767565b9050919050565b60006127a682612789565b9050919050565b6127b68161279b565b82525050565b60006020820190506127d160008301846127ad565b92915050565b600082825260208201905092915050565b7f5573657220686173206e6f20696e766573746d656e7473000000000000000000600082015250565b600061281e6017836127d7565b9150612829826127e8565b602082019050919050565b6000602082019050818103600083015261284d81612811565b9050919050565b7f496e766573746d656e7420646f6573206e6f7420657869737400000000000000600082015250565b600061288a6019836127d7565b915061289582612854565b602082019050919050565b600060208201905081810360008301526128b98161287d565b9050919050565b7f4e487b7100000000000000000000000000000000000000000000000000000000600052603260045260246000fd5b7f4e487b7100000000000000000000000000000000000000000000000000000000600052602260045260246000fd5b6000600282049050600182168061293657607f821691505b6020821081141561294a576129496128ef565b5b50919050565b7f4f776e61626c653a2063616c6c6572206973206e6f7420746865206f776e6572600082015250565b60006129866020836127d7565b915061299182612950565b602082019050919050565b600060208201905081810360008301526129b581612979565b9050919050565b7f4f6e6c7920746f6b656e2063726561746f722063616e2061646420746f20706f60008201527f7274666f6c696f00000000000000000000000000000000000000000000000000602082015250565b6000612a186027836127d7565b9150612a23826129bc565b604082019050919050565b60006020820190508181036000830152612a4781612a0b565b9050919050565b600081519050612a5d81611fb6565b92915050565b600060208284031215612a7957612a78611980565b5b6000612a8784828501612a4e565b91505092915050565b7f53616c65206973206e6f742076616c6964000000000000000000000000000000600082015250565b6000612ac66011836127d7565b9150612ad182612a90565b602082019050919050565b60006020820190508181036000830152612af581612ab9565b9050919050565b7f4e487b7100000000000000000000000000000000000000000000000000000000600052601160045260246000fd5b6000612b368261198a565b91507fffffffffffffffffffffffffffffffffffffffffffffffffffffffffffffffff821415612b6957612b68612afc565b5b600182019050919050565b7f4f776e61626c653a206e6577206f776e657220697320746865207a65726f206160008201527f6464726573730000000000000000000000000000000000000000000000000000602082015250565b6000612bd06026836127d7565b9150612bdb82612b74565b604082019050919050565b60006020820190508181036000830152612bff81612bc3565b905091905056fea2646970667358221220396d25eb84c4bdbff96b8f8e377dcf9e7ecb48510f3a0e4e23003faf2b207ad864736f6c634300080c0033",
  "immutableReferences": {},
  "source": "// !! This contract is not audited. Do not use in production!!\n\n//SPDX-License-Identifier: UNLICENSED\npragma solidity ^0.8.0;\n\n// Imports\nimport \"@openzeppelin/contracts/token/ERC20/IERC20.sol\"; // ERC20 interface\nimport \"@openzeppelin/contracts/access/Ownable.sol\"; //  Ownable.sol\nimport \"./Factory.sol\"; // Factory Contract\n\nimport \"./lib/IDO.sol\";\n\n// Portolio contract for tracking the token distribution\ncontract Portfolio is Ownable {\n    // Mapping for user address to Component struct\n    mapping(address => IDOLib.Investment[]) internal usersInvesments;\n\n    // Mapping for created ERC20 tokens\n    mapping(address => IDOLib.ERC20[]) internal userERC20s;\n\n    // Factory contract\n    Factory public factoryContract;\n\n    // Token Creator Contract\n    address public tokenCreator;\n\n    constructor() {}\n\n    // Setter function for factory contract\n    function setFactoryContract(Factory _factory) external onlyOwner {\n        factoryContract = _factory;\n    }\n\n    // Msg.sender must be valid sale for adding to portfolio\n    modifier isSaleValid() {\n        require(factoryContract.isSaleValid(msg.sender), \"Sale is not valid\");\n        _;\n    }\n\n    // Msg.sender needs to be token creator account for ERC20 portfolio\n    modifier isTokenCreator() {\n        require(\n            msg.sender == tokenCreator,\n            \"Only token creator can add to portfolio\"\n        );\n        _;\n    }\n\n    // Getter function for msg.sender portfolio\n    function getMyPortfolio()\n        external\n        view\n        returns (IDOLib.Investment[] memory)\n    {\n        return usersInvesments[msg.sender];\n    }\n\n    // Getter function for msg.sender ERC20 tokens\n    function getMyERC20s() external view returns (IDOLib.ERC20[] memory) {\n        return userERC20s[msg.sender];\n    }\n\n    // Getter function for individual investment\n    function getInvestment(uint256 _id)\n        external\n        view\n        returns (IDOLib.Investment memory)\n    {\n        require(\n            usersInvesments[msg.sender].length > 0,\n            \"User has no investments\"\n        );\n        require(\n            _id < usersInvesments[msg.sender].length,\n            \"Investment does not exist\"\n        );\n\n        return usersInvesments[msg.sender][_id];\n    }\n\n    // Getter function for check if invesment already exists\n    function isInvesmentExists(address user, uint256 _saleId)\n        external\n        view\n        returns (bool)\n    {\n        uint256 length = usersInvesments[user].length;\n\n        if (length == 0) return false;\n\n        // Local variable for isHere\n        bool isHere = false;\n\n        // For gas optimization\n        uint256 index;\n        for (index; index < length; index++) {\n            if (usersInvesments[user][index].saleId == _saleId) {\n                isHere = true;\n            }\n        }\n\n        return isHere;\n    }\n\n    // Setter function for set new sale\n    function addPortfolio(IDOLib.Investment memory _invesment, address user)\n        external\n        isSaleValid\n    {\n        usersInvesments[user].push(_invesment);\n    }\n\n    // Update portolio for user\n    function updatePortolio(\n        address user,\n        uint256 saleID,\n        uint256 newWithdrawnAmount,\n        bool[] memory newPortionArray\n    ) external isSaleValid {\n        uint256 length = usersInvesments[user].length;\n\n        // Local variable for index\n        uint256 index;\n        for (index; index < length; index++) {\n            if (usersInvesments[user][index].saleId == saleID) {\n                usersInvesments[user][index]\n                    .withdrawnAmount = newWithdrawnAmount;\n                usersInvesments[user][index]\n                    .isPortionWithdrawn = newPortionArray;\n                if (isFinished(newPortionArray))\n                    usersInvesments[user][index].isFinished = true;\n            }\n        }\n    }\n\n    // Internal function for set isFinished variable\n    function isFinished(bool[] memory arr) internal pure returns (bool) {\n        bool finished = true;\n\n        uint256 length = arr.length;\n        uint256 index;\n        for (index; index < length; index++) {\n            if (!arr[index]) {\n                finished = false;\n            }\n        }\n\n        return finished;\n    }\n\n    // External function for add new ERC20 token to portfolio\n    function addERC20(\n        address user,\n        string memory name,\n        string memory symbol,\n        uint256 totalSupply,\n        address tokenAddress\n    ) external isTokenCreator {\n        IDOLib.ERC20 memory newERC20 = IDOLib.ERC20(\n            name,\n            symbol,\n            totalSupply,\n            tokenAddress\n        );\n\n        userERC20s[user].push(newERC20);\n    }\n\n    // Setter function for set token creator\n    function setTokenCreator(address _tokenCreator) external onlyOwner {\n        tokenCreator = _tokenCreator;\n    }\n}\n",
  "sourcePath": "/Users/mehmetberatozturk/Documents/Github/ido-for-everyone/contracts/Portfolio.sol",
  "compiler": {
    "name": "solc",
    "version": "0.8.12+commit.f00d7308.Emscripten.clang"
  },
  "schemaVersion": "3.4.6",
  "updatedAt": "2022-05-05T21:39:45.562Z",
  "networkType": "ethereum",
  "devdoc": {
    "kind": "dev",
    "methods": {
      "owner()": {
        "details": "Returns the address of the current owner."
      },
      "renounceOwnership()": {
        "details": "Leaves the contract without owner. It will not be possible to call `onlyOwner` functions anymore. Can only be called by the current owner. NOTE: Renouncing ownership will leave the contract without an owner, thereby removing any functionality that is only available to the owner."
      },
      "transferOwnership(address)": {
        "details": "Transfers ownership of the contract to a new account (`newOwner`). Can only be called by the current owner."
      }
    },
    "version": 1
  },
  "userdoc": {
    "kind": "user",
    "methods": {},
    "version": 1
  }
}