{
  "contractName": "Portfolio",
  "abi": [
    {
      "inputs": [],
      "stateMutability": "nonpayable",
      "type": "constructor"
    },
    {
      "anonymous": false,
      "inputs": [
        {
          "indexed": true,
          "internalType": "address",
          "name": "previousOwner",
          "type": "address"
        },
        {
          "indexed": true,
          "internalType": "address",
          "name": "newOwner",
          "type": "address"
        }
      ],
      "name": "OwnershipTransferred",
      "type": "event"
    },
    {
      "inputs": [],
      "name": "factoryContract",
      "outputs": [
        {
          "internalType": "contract Factory",
          "name": "",
          "type": "address"
        }
      ],
      "stateMutability": "view",
      "type": "function",
      "constant": true
    },
    {
      "inputs": [],
      "name": "owner",
      "outputs": [
        {
          "internalType": "address",
          "name": "",
          "type": "address"
        }
      ],
      "stateMutability": "view",
      "type": "function",
      "constant": true
    },
    {
      "inputs": [],
      "name": "renounceOwnership",
      "outputs": [],
      "stateMutability": "nonpayable",
      "type": "function"
    },
    {
      "inputs": [],
      "name": "tokenCreator",
      "outputs": [
        {
          "internalType": "address",
          "name": "",
          "type": "address"
        }
      ],
      "stateMutability": "view",
      "type": "function",
      "constant": true
    },
    {
      "inputs": [
        {
          "internalType": "address",
          "name": "newOwner",
          "type": "address"
        }
      ],
      "name": "transferOwnership",
      "outputs": [],
      "stateMutability": "nonpayable",
      "type": "function"
    },
    {
      "inputs": [
        {
          "internalType": "contract Factory",
          "name": "_factory",
          "type": "address"
        }
      ],
      "name": "setFactoryContract",
      "outputs": [],
      "stateMutability": "nonpayable",
      "type": "function"
    },
    {
      "inputs": [],
      "name": "getMyPortfolio",
      "outputs": [
        {
          "components": [
            {
              "internalType": "uint256",
              "name": "saleId",
              "type": "uint256"
            },
            {
              "internalType": "string",
              "name": "saleName",
              "type": "string"
            },
            {
              "internalType": "uint256",
              "name": "vestedAmount",
              "type": "uint256"
            },
            {
              "internalType": "uint256",
              "name": "withdrawnAmount",
              "type": "uint256"
            },
            {
              "internalType": "uint256",
              "name": "price",
              "type": "uint256"
            },
            {
              "internalType": "uint256[]",
              "name": "distributionDates",
              "type": "uint256[]"
            },
            {
              "internalType": "bool[]",
              "name": "isPortionWithdrawn",
              "type": "bool[]"
            },
            {
              "internalType": "bool",
              "name": "isFinished",
              "type": "bool"
            },
            {
              "internalType": "address",
              "name": "tokenAddress",
              "type": "address"
            },
            {
              "internalType": "address",
              "name": "saleAddress",
              "type": "address"
            }
          ],
          "internalType": "struct IDOLib.Investment[]",
          "name": "",
          "type": "tuple[]"
        }
      ],
      "stateMutability": "view",
      "type": "function",
      "constant": true
    },
    {
      "inputs": [],
      "name": "getMyERC20s",
      "outputs": [
        {
          "components": [
            {
              "internalType": "string",
              "name": "name",
              "type": "string"
            },
            {
              "internalType": "string",
              "name": "symbol",
              "type": "string"
            },
            {
              "internalType": "uint256",
              "name": "totalSupply",
              "type": "uint256"
            },
            {
              "internalType": "address",
              "name": "tokenAddress",
              "type": "address"
            }
          ],
          "internalType": "struct IDOLib.ERC20[]",
          "name": "",
          "type": "tuple[]"
        }
      ],
      "stateMutability": "view",
      "type": "function",
      "constant": true
    },
    {
      "inputs": [
        {
          "internalType": "uint256",
          "name": "_id",
          "type": "uint256"
        }
      ],
      "name": "getInvestment",
      "outputs": [
        {
          "components": [
            {
              "internalType": "uint256",
              "name": "saleId",
              "type": "uint256"
            },
            {
              "internalType": "string",
              "name": "saleName",
              "type": "string"
            },
            {
              "internalType": "uint256",
              "name": "vestedAmount",
              "type": "uint256"
            },
            {
              "internalType": "uint256",
              "name": "withdrawnAmount",
              "type": "uint256"
            },
            {
              "internalType": "uint256",
              "name": "price",
              "type": "uint256"
            },
            {
              "internalType": "uint256[]",
              "name": "distributionDates",
              "type": "uint256[]"
            },
            {
              "internalType": "bool[]",
              "name": "isPortionWithdrawn",
              "type": "bool[]"
            },
            {
              "internalType": "bool",
              "name": "isFinished",
              "type": "bool"
            },
            {
              "internalType": "address",
              "name": "tokenAddress",
              "type": "address"
            },
            {
              "internalType": "address",
              "name": "saleAddress",
              "type": "address"
            }
          ],
          "internalType": "struct IDOLib.Investment",
          "name": "",
          "type": "tuple"
        }
      ],
      "stateMutability": "view",
      "type": "function",
      "constant": true
    },
    {
      "inputs": [
        {
          "internalType": "address",
          "name": "user",
          "type": "address"
        },
        {
          "internalType": "uint256",
          "name": "_saleId",
          "type": "uint256"
        }
      ],
      "name": "isInvesmentExists",
      "outputs": [
        {
          "internalType": "bool",
          "name": "",
          "type": "bool"
        }
      ],
      "stateMutability": "view",
      "type": "function",
      "constant": true
    },
    {
      "inputs": [
        {
          "components": [
            {
              "internalType": "uint256",
              "name": "saleId",
              "type": "uint256"
            },
            {
              "internalType": "string",
              "name": "saleName",
              "type": "string"
            },
            {
              "internalType": "uint256",
              "name": "vestedAmount",
              "type": "uint256"
            },
            {
              "internalType": "uint256",
              "name": "withdrawnAmount",
              "type": "uint256"
            },
            {
              "internalType": "uint256",
              "name": "price",
              "type": "uint256"
            },
            {
              "internalType": "uint256[]",
              "name": "distributionDates",
              "type": "uint256[]"
            },
            {
              "internalType": "bool[]",
              "name": "isPortionWithdrawn",
              "type": "bool[]"
            },
            {
              "internalType": "bool",
              "name": "isFinished",
              "type": "bool"
            },
            {
              "internalType": "address",
              "name": "tokenAddress",
              "type": "address"
            },
            {
              "internalType": "address",
              "name": "saleAddress",
              "type": "address"
            }
          ],
          "internalType": "struct IDOLib.Investment",
          "name": "_invesment",
          "type": "tuple"
        },
        {
          "internalType": "address",
          "name": "user",
          "type": "address"
        }
      ],
      "name": "addPortfolio",
      "outputs": [],
      "stateMutability": "nonpayable",
      "type": "function"
    },
    {
      "inputs": [
        {
          "internalType": "address",
          "name": "user",
          "type": "address"
        },
        {
          "internalType": "uint256",
          "name": "saleID",
          "type": "uint256"
        },
        {
          "internalType": "uint256",
          "name": "newWithdrawnAmount",
          "type": "uint256"
        },
        {
          "internalType": "bool[]",
          "name": "newPortionArray",
          "type": "bool[]"
        }
      ],
      "name": "updatePortolio",
      "outputs": [],
      "stateMutability": "nonpayable",
      "type": "function"
    },
    {
      "inputs": [
        {
          "internalType": "address",
          "name": "user",
          "type": "address"
        },
        {
          "internalType": "string",
          "name": "name",
          "type": "string"
        },
        {
          "internalType": "string",
          "name": "symbol",
          "type": "string"
        },
        {
          "internalType": "uint256",
          "name": "totalSupply",
          "type": "uint256"
        },
        {
          "internalType": "address",
          "name": "tokenAddress",
          "type": "address"
        }
      ],
      "name": "addERC20",
      "outputs": [],
      "stateMutability": "nonpayable",
      "type": "function"
    },
    {
      "inputs": [
        {
          "internalType": "address",
          "name": "_tokenCreator",
          "type": "address"
        }
      ],
      "name": "setTokenCreator",
      "outputs": [],
      "stateMutability": "nonpayable",
      "type": "function"
    }
  ],
  "bytecode": "0x60806040523480156200001157600080fd5b5062000032620000266200003860201b60201c565b6200004060201b60201c565b62000104565b600033905090565b60008060009054906101000a900473ffffffffffffffffffffffffffffffffffffffff169050816000806101000a81548173ffffffffffffffffffffffffffffffffffffffff021916908373ffffffffffffffffffffffffffffffffffffffff1602179055508173ffffffffffffffffffffffffffffffffffffffff168173ffffffffffffffffffffffffffffffffffffffff167f8be0079c531659141344cd1fd0a4f28419497f9722a3daafe3b4186f6b6457e060405160405180910390a35050565b612d8d80620001146000396000f3fe608060405234801561001057600080fd5b50600436106100ea5760003560e01c80638da5cb5b1161008c578063d424134111610066578063d424134114610223578063db84252c1461023f578063de11c94a1461025d578063f2fde38b1461027b576100ea565b80638da5cb5b146101b7578063915f5fde146101d5578063b5151ed514610205576100ea565b80634d403467116100c85780634d40346714610157578063715018a614610173578063739ec8f11461017d5780638a114ec114610199576100ea565b806322ae634f146100ef57806325e0b16d1461011f5780632f3af0a61461013b575b600080fd5b61010960048036038101906101049190611ad1565b610297565b6040516101169190611e48565b60405180910390f35b61013960048036038101906101349190611e96565b610670565b005b61015560048036038101906101509190611ff8565b610730565b005b610171600480360381019061016c919061219f565b6108f9565b005b61017b610c13565b005b61019760048036038101906101929190612439565b610c9b565b005b6101a1610f14565b6040516101ae91906125c1565b60405180910390f35b6101bf611134565b6040516101cc91906125f2565b60405180910390f35b6101ef60048036038101906101ea919061260d565b61115d565b6040516101fc919061265c565b60405180910390f35b61020d611253565b60405161021a9190612821565b60405180910390f35b61023d60048036038101906102389190612881565b611546565b005b610247611606565b60405161025491906125f2565b60405180910390f35b61026561162c565b604051610272919061290d565b60405180910390f35b61029560048036038101906102909190611e96565b611652565b005b61029f611870565b6000600160003373ffffffffffffffffffffffffffffffffffffffff1673ffffffffffffffffffffffffffffffffffffffff1681526020019081526020016000208054905011610324576040517f08c379a000000000000000000000000000000000000000000000000000000000815260040161031b90612985565b60405180910390fd5b600160003373ffffffffffffffffffffffffffffffffffffffff1673ffffffffffffffffffffffffffffffffffffffff1681526020019081526020016000208054905082106103a8576040517f08c379a000000000000000000000000000000000000000000000000000000000815260040161039f906129f1565b60405180910390fd5b600160003373ffffffffffffffffffffffffffffffffffffffff1673ffffffffffffffffffffffffffffffffffffffff16815260200190815260200160002082815481106103f9576103f8612a11565b5b9060005260206000209060090201604051806101400160405290816000820154815260200160018201805461042d90612a6f565b80601f016020809104026020016040519081016040528092919081815260200182805461045990612a6f565b80156104a65780601f1061047b576101008083540402835291602001916104a6565b820191906000526020600020905b81548152906001019060200180831161048957829003601f168201915b505050505081526020016002820154815260200160038201548152602001600482015481526020016005820180548060200260200160405190810160405280929190818152602001828054801561051c57602002820191906000526020600020905b815481526020019060010190808311610508575b505050505081526020016006820180548060200260200160405190810160405280929190818152602001828054801561059957602002820191906000526020600020906000905b82829054906101000a900460ff161515815260200190600101906020826000010492830192600103820291508084116105635790505b505050505081526020016007820160009054906101000a900460ff161515151581526020016007820160019054906101000a900473ffffffffffffffffffffffffffffffffffffffff1673ffffffffffffffffffffffffffffffffffffffff1673ffffffffffffffffffffffffffffffffffffffff1681526020016008820160009054906101000a900473ffffffffffffffffffffffffffffffffffffffff1673ffffffffffffffffffffffffffffffffffffffff1673ffffffffffffffffffffffffffffffffffffffff16815250509050919050565b61067861174a565b73ffffffffffffffffffffffffffffffffffffffff16610696611134565b73ffffffffffffffffffffffffffffffffffffffff16146106ec576040517f08c379a00000000000000000000000000000000000000000000000000000000081526004016106e390612aed565b60405180910390fd5b80600460006101000a81548173ffffffffffffffffffffffffffffffffffffffff021916908373ffffffffffffffffffffffffffffffffffffffff16021790555050565b600460009054906101000a900473ffffffffffffffffffffffffffffffffffffffff1673ffffffffffffffffffffffffffffffffffffffff163373ffffffffffffffffffffffffffffffffffffffff16146107c0576040517f08c379a00000000000000000000000000000000000000000000000000000000081526004016107b790612b7f565b60405180910390fd5b600060405180608001604052808681526020018581526020018481526020018373ffffffffffffffffffffffffffffffffffffffff168152509050600260008773ffffffffffffffffffffffffffffffffffffffff1673ffffffffffffffffffffffffffffffffffffffff16815260200190815260200160002081908060018154018082558091505060019003906000526020600020906004020160009091909190915060008201518160000190805190602001906108809291906118f1565b50602082015181600101908051906020019061089d9291906118f1565b506040820151816002015560608201518160030160006101000a81548173ffffffffffffffffffffffffffffffffffffffff021916908373ffffffffffffffffffffffffffffffffffffffff1602179055505050505050505050565b600360009054906101000a900473ffffffffffffffffffffffffffffffffffffffff1673ffffffffffffffffffffffffffffffffffffffff1663421d2ccf336040518263ffffffff1660e01b815260040161095491906125f2565b602060405180830381865afa158015610971573d6000803e3d6000fd5b505050506040513d601f19601f820116820180604052508101906109959190612bb4565b6109d4576040517f08c379a00000000000000000000000000000000000000000000000000000000081526004016109cb90612c2d565b60405180910390fd5b6000600160008673ffffffffffffffffffffffffffffffffffffffff1673ffffffffffffffffffffffffffffffffffffffff16815260200190815260200160002080549050905060005b81811015610c0b5784600160008873ffffffffffffffffffffffffffffffffffffffff1673ffffffffffffffffffffffffffffffffffffffff1681526020019081526020016000208281548110610a7857610a77612a11565b5b9060005260206000209060090201600001541415610bf85783600160008873ffffffffffffffffffffffffffffffffffffffff1673ffffffffffffffffffffffffffffffffffffffff1681526020019081526020016000208281548110610ae257610ae1612a11565b5b90600052602060002090600902016003018190555082600160008873ffffffffffffffffffffffffffffffffffffffff1673ffffffffffffffffffffffffffffffffffffffff1681526020019081526020016000208281548110610b4957610b48612a11565b5b90600052602060002090600902016006019080519060200190610b6d929190611977565b50610b7783611752565b15610bf75760018060008873ffffffffffffffffffffffffffffffffffffffff1673ffffffffffffffffffffffffffffffffffffffff1681526020019081526020016000208281548110610bce57610bcd612a11565b5b906000526020600020906009020160070160006101000a81548160ff0219169083151502179055505b5b8080610c0390612c7c565b915050610a1e565b505050505050565b610c1b61174a565b73ffffffffffffffffffffffffffffffffffffffff16610c39611134565b73ffffffffffffffffffffffffffffffffffffffff1614610c8f576040517f08c379a0000000000000000000000000000000000000000000000000000000008152600401610c8690612aed565b60405180910390fd5b610c9960006117ac565b565b600360009054906101000a900473ffffffffffffffffffffffffffffffffffffffff1673ffffffffffffffffffffffffffffffffffffffff1663421d2ccf336040518263ffffffff1660e01b8152600401610cf691906125f2565b602060405180830381865afa158015610d13573d6000803e3d6000fd5b505050506040513d601f19601f82011682018060405250810190610d379190612bb4565b610d76576040517f08c379a0000000000000000000000000000000000000000000000000000000008152600401610d6d90612c2d565b60405180910390fd5b600160008273ffffffffffffffffffffffffffffffffffffffff1673ffffffffffffffffffffffffffffffffffffffff168152602001908152602001600020829080600181540180825580915050600190039060005260206000209060090201600090919091909150600082015181600001556020820151816001019080519060200190610e059291906118f1565b5060408201518160020155606082015181600301556080820151816004015560a0820151816005019080519060200190610e40929190611a1d565b5060c0820151816006019080519060200190610e5d929190611977565b5060e08201518160070160006101000a81548160ff0219169083151502179055506101008201518160070160016101000a81548173ffffffffffffffffffffffffffffffffffffffff021916908373ffffffffffffffffffffffffffffffffffffffff1602179055506101208201518160080160006101000a81548173ffffffffffffffffffffffffffffffffffffffff021916908373ffffffffffffffffffffffffffffffffffffffff16021790555050505050565b6060600260003373ffffffffffffffffffffffffffffffffffffffff1673ffffffffffffffffffffffffffffffffffffffff168152602001908152602001600020805480602002602001604051908101604052809291908181526020016000905b8282101561112b5783829060005260206000209060040201604051806080016040529081600082018054610fa890612a6f565b80601f0160208091040260200160405190810160405280929190818152602001828054610fd490612a6f565b80156110215780601f10610ff657610100808354040283529160200191611021565b820191906000526020600020905b81548152906001019060200180831161100457829003601f168201915b5050505050815260200160018201805461103a90612a6f565b80601f016020809104026020016040519081016040528092919081815260200182805461106690612a6f565b80156110b35780601f10611088576101008083540402835291602001916110b3565b820191906000526020600020905b81548152906001019060200180831161109657829003601f168201915b50505050508152602001600282015481526020016003820160009054906101000a900473ffffffffffffffffffffffffffffffffffffffff1673ffffffffffffffffffffffffffffffffffffffff1673ffffffffffffffffffffffffffffffffffffffff168152505081526020019060010190610f75565b50505050905090565b60008060009054906101000a900473ffffffffffffffffffffffffffffffffffffffff16905090565b600080600160008573ffffffffffffffffffffffffffffffffffffffff1673ffffffffffffffffffffffffffffffffffffffff16815260200190815260200160002080549050905060008114156111b857600091505061124d565b6000805b828110156112465784600160008873ffffffffffffffffffffffffffffffffffffffff1673ffffffffffffffffffffffffffffffffffffffff168152602001908152602001600020828154811061121657611215612a11565b5b906000526020600020906009020160000154141561123357600191505b808061123e90612c7c565b9150506111bc565b8193505050505b92915050565b6060600160003373ffffffffffffffffffffffffffffffffffffffff1673ffffffffffffffffffffffffffffffffffffffff168152602001908152602001600020805480602002602001604051908101604052809291908181526020016000905b8282101561153d578382906000526020600020906009020160405180610140016040529081600082015481526020016001820180546112f290612a6f565b80601f016020809104026020016040519081016040528092919081815260200182805461131e90612a6f565b801561136b5780601f106113405761010080835404028352916020019161136b565b820191906000526020600020905b81548152906001019060200180831161134e57829003601f168201915b50505050508152602001600282015481526020016003820154815260200160048201548152602001600582018054806020026020016040519081016040528092919081815260200182805480156113e157602002820191906000526020600020905b8154815260200190600101908083116113cd575b505050505081526020016006820180548060200260200160405190810160405280929190818152602001828054801561145e57602002820191906000526020600020906000905b82829054906101000a900460ff161515815260200190600101906020826000010492830192600103820291508084116114285790505b505050505081526020016007820160009054906101000a900460ff161515151581526020016007820160019054906101000a900473ffffffffffffffffffffffffffffffffffffffff1673ffffffffffffffffffffffffffffffffffffffff1673ffffffffffffffffffffffffffffffffffffffff1681526020016008820160009054906101000a900473ffffffffffffffffffffffffffffffffffffffff1673ffffffffffffffffffffffffffffffffffffffff1673ffffffffffffffffffffffffffffffffffffffff1681525050815260200190600101906112b4565b50505050905090565b61154e61174a565b73ffffffffffffffffffffffffffffffffffffffff1661156c611134565b73ffffffffffffffffffffffffffffffffffffffff16146115c2576040517f08c379a00000000000000000000000000000000000000000000000000000000081526004016115b990612aed565b60405180910390fd5b80600360006101000a81548173ffffffffffffffffffffffffffffffffffffffff021916908373ffffffffffffffffffffffffffffffffffffffff16021790555050565b600460009054906101000a900473ffffffffffffffffffffffffffffffffffffffff1681565b600360009054906101000a900473ffffffffffffffffffffffffffffffffffffffff1681565b61165a61174a565b73ffffffffffffffffffffffffffffffffffffffff16611678611134565b73ffffffffffffffffffffffffffffffffffffffff16146116ce576040517f08c379a00000000000000000000000000000000000000000000000000000000081526004016116c590612aed565b60405180910390fd5b600073ffffffffffffffffffffffffffffffffffffffff168173ffffffffffffffffffffffffffffffffffffffff16141561173e576040517f08c379a000000000000000000000000000000000000000000000000000000000815260040161173590612d37565b60405180910390fd5b611747816117ac565b50565b600033905090565b6000806001905060008351905060005b818110156117a15784818151811061177d5761177c612a11565b5b602002602001015161178e57600092505b808061179990612c7c565b915050611762565b829350505050919050565b60008060009054906101000a900473ffffffffffffffffffffffffffffffffffffffff169050816000806101000a81548173ffffffffffffffffffffffffffffffffffffffff021916908373ffffffffffffffffffffffffffffffffffffffff1602179055508173ffffffffffffffffffffffffffffffffffffffff168173ffffffffffffffffffffffffffffffffffffffff167f8be0079c531659141344cd1fd0a4f28419497f9722a3daafe3b4186f6b6457e060405160405180910390a35050565b60405180610140016040528060008152602001606081526020016000815260200160008152602001600081526020016060815260200160608152602001600015158152602001600073ffffffffffffffffffffffffffffffffffffffff168152602001600073ffffffffffffffffffffffffffffffffffffffff1681525090565b8280546118fd90612a6f565b90600052602060002090601f01602090048101928261191f5760008555611966565b82601f1061193857805160ff1916838001178555611966565b82800160010185558215611966579182015b8281111561196557825182559160200191906001019061194a565b5b5090506119739190611a6a565b5090565b82805482825590600052602060002090601f01602090048101928215611a0c5791602002820160005b838211156119dd57835183826101000a81548160ff02191690831515021790555092602001926001016020816000010492830192600103026119a0565b8015611a0a5782816101000a81549060ff02191690556001016020816000010492830192600103026119dd565b505b509050611a199190611a6a565b5090565b828054828255906000526020600020908101928215611a59579160200282015b82811115611a58578251825591602001919060010190611a3d565b5b509050611a669190611a6a565b5090565b5b80821115611a83576000816000905550600101611a6b565b5090565b6000604051905090565b600080fd5b600080fd5b6000819050919050565b611aae81611a9b565b8114611ab957600080fd5b50565b600081359050611acb81611aa5565b92915050565b600060208284031215611ae757611ae6611a91565b5b6000611af584828501611abc565b91505092915050565b611b0781611a9b565b82525050565b600081519050919050565b600082825260208201905092915050565b60005b83811015611b47578082015181840152602081019050611b2c565b83811115611b56576000848401525b50505050565b6000601f19601f8301169050919050565b6000611b7882611b0d565b611b828185611b18565b9350611b92818560208601611b29565b611b9b81611b5c565b840191505092915050565b600081519050919050565b600082825260208201905092915050565b6000819050602082019050919050565b6000611bde8383611afe565b60208301905092915050565b6000602082019050919050565b6000611c0282611ba6565b611c0c8185611bb1565b9350611c1783611bc2565b8060005b83811015611c48578151611c2f8882611bd2565b9750611c3a83611bea565b925050600181019050611c1b565b5085935050505092915050565b600081519050919050565b600082825260208201905092915050565b6000819050602082019050919050565b60008115159050919050565b611c9681611c81565b82525050565b6000611ca88383611c8d565b60208301905092915050565b6000602082019050919050565b6000611ccc82611c55565b611cd68185611c60565b9350611ce183611c71565b8060005b83811015611d12578151611cf98882611c9c565b9750611d0483611cb4565b925050600181019050611ce5565b5085935050505092915050565b600073ffffffffffffffffffffffffffffffffffffffff82169050919050565b6000611d4a82611d1f565b9050919050565b611d5a81611d3f565b82525050565b600061014083016000830151611d796000860182611afe565b5060208301518482036020860152611d918282611b6d565b9150506040830151611da66040860182611afe565b506060830151611db96060860182611afe565b506080830151611dcc6080860182611afe565b5060a083015184820360a0860152611de48282611bf7565b91505060c083015184820360c0860152611dfe8282611cc1565b91505060e0830151611e1360e0860182611c8d565b50610100830151611e28610100860182611d51565b50610120830151611e3d610120860182611d51565b508091505092915050565b60006020820190508181036000830152611e628184611d60565b905092915050565b611e7381611d3f565b8114611e7e57600080fd5b50565b600081359050611e9081611e6a565b92915050565b600060208284031215611eac57611eab611a91565b5b6000611eba84828501611e81565b91505092915050565b600080fd5b600080fd5b7f4e487b7100000000000000000000000000000000000000000000000000000000600052604160045260246000fd5b611f0582611b5c565b810181811067ffffffffffffffff82111715611f2457611f23611ecd565b5b80604052505050565b6000611f37611a87565b9050611f438282611efc565b919050565b600067ffffffffffffffff821115611f6357611f62611ecd565b5b611f6c82611b5c565b9050602081019050919050565b82818337600083830152505050565b6000611f9b611f9684611f48565b611f2d565b905082815260208101848484011115611fb757611fb6611ec8565b5b611fc2848285611f79565b509392505050565b600082601f830112611fdf57611fde611ec3565b5b8135611fef848260208601611f88565b91505092915050565b600080600080600060a0868803121561201457612013611a91565b5b600061202288828901611e81565b955050602086013567ffffffffffffffff81111561204357612042611a96565b5b61204f88828901611fca565b945050604086013567ffffffffffffffff8111156120705761206f611a96565b5b61207c88828901611fca565b935050606061208d88828901611abc565b925050608061209e88828901611e81565b9150509295509295909350565b600067ffffffffffffffff8211156120c6576120c5611ecd565b5b602082029050602081019050919050565b600080fd5b6120e581611c81565b81146120f057600080fd5b50565b600081359050612102816120dc565b92915050565b600061211b612116846120ab565b611f2d565b9050808382526020820190506020840283018581111561213e5761213d6120d7565b5b835b81811015612167578061215388826120f3565b845260208401935050602081019050612140565b5050509392505050565b600082601f83011261218657612185611ec3565b5b8135612196848260208601612108565b91505092915050565b600080600080608085870312156121b9576121b8611a91565b5b60006121c787828801611e81565b94505060206121d887828801611abc565b93505060406121e987828801611abc565b925050606085013567ffffffffffffffff81111561220a57612209611a96565b5b61221687828801612171565b91505092959194509250565b600080fd5b600080fd5b600067ffffffffffffffff82111561224757612246611ecd565b5b602082029050602081019050919050565b600061226b6122668461222c565b611f2d565b9050808382526020820190506020840283018581111561228e5761228d6120d7565b5b835b818110156122b757806122a38882611abc565b845260208401935050602081019050612290565b5050509392505050565b600082601f8301126122d6576122d5611ec3565b5b81356122e6848260208601612258565b91505092915050565b6000610140828403121561230657612305612222565b5b612311610140611f2d565b9050600061232184828501611abc565b600083015250602082013567ffffffffffffffff81111561234557612344612227565b5b61235184828501611fca565b602083015250604061236584828501611abc565b604083015250606061237984828501611abc565b606083015250608061238d84828501611abc565b60808301525060a082013567ffffffffffffffff8111156123b1576123b0612227565b5b6123bd848285016122c1565b60a08301525060c082013567ffffffffffffffff8111156123e1576123e0612227565b5b6123ed84828501612171565b60c08301525060e0612401848285016120f3565b60e08301525061010061241684828501611e81565b6101008301525061012061242c84828501611e81565b6101208301525092915050565b600080604083850312156124505761244f611a91565b5b600083013567ffffffffffffffff81111561246e5761246d611a96565b5b61247a858286016122ef565b925050602061248b85828601611e81565b9150509250929050565b600081519050919050565b600082825260208201905092915050565b6000819050602082019050919050565b600060808301600083015184820360008601526124de8282611b6d565b915050602083015184820360208601526124f88282611b6d565b915050604083015161250d6040860182611afe565b5060608301516125206060860182611d51565b508091505092915050565b600061253783836124c1565b905092915050565b6000602082019050919050565b600061255782612495565b61256181856124a0565b935083602082028501612573856124b1565b8060005b858110156125af5784840389528151612590858261252b565b945061259b8361253f565b925060208a01995050600181019050612577565b50829750879550505050505092915050565b600060208201905081810360008301526125db818461254c565b905092915050565b6125ec81611d3f565b82525050565b600060208201905061260760008301846125e3565b92915050565b6000806040838503121561262457612623611a91565b5b600061263285828601611e81565b925050602061264385828601611abc565b9150509250929050565b61265681611c81565b82525050565b6000602082019050612671600083018461264d565b92915050565b600081519050919050565b600082825260208201905092915050565b6000819050602082019050919050565b6000610140830160008301516126bc6000860182611afe565b50602083015184820360208601526126d48282611b6d565b91505060408301516126e96040860182611afe565b5060608301516126fc6060860182611afe565b50608083015161270f6080860182611afe565b5060a083015184820360a08601526127278282611bf7565b91505060c083015184820360c08601526127418282611cc1565b91505060e083015161275660e0860182611c8d565b5061010083015161276b610100860182611d51565b50610120830151612780610120860182611d51565b508091505092915050565b600061279783836126a3565b905092915050565b6000602082019050919050565b60006127b782612677565b6127c18185612682565b9350836020820285016127d385612693565b8060005b8581101561280f57848403895281516127f0858261278b565b94506127fb8361279f565b925060208a019950506001810190506127d7565b50829750879550505050505092915050565b6000602082019050818103600083015261283b81846127ac565b905092915050565b600061284e82611d3f565b9050919050565b61285e81612843565b811461286957600080fd5b50565b60008135905061287b81612855565b92915050565b60006020828403121561289757612896611a91565b5b60006128a58482850161286c565b91505092915050565b6000819050919050565b60006128d36128ce6128c984611d1f565b6128ae565b611d1f565b9050919050565b60006128e5826128b8565b9050919050565b60006128f7826128da565b9050919050565b612907816128ec565b82525050565b600060208201905061292260008301846128fe565b92915050565b600082825260208201905092915050565b7f5573657220686173206e6f20696e766573746d656e7473000000000000000000600082015250565b600061296f601783612928565b915061297a82612939565b602082019050919050565b6000602082019050818103600083015261299e81612962565b9050919050565b7f496e766573746d656e7420646f6573206e6f7420657869737400000000000000600082015250565b60006129db601983612928565b91506129e6826129a5565b602082019050919050565b60006020820190508181036000830152612a0a816129ce565b9050919050565b7f4e487b7100000000000000000000000000000000000000000000000000000000600052603260045260246000fd5b7f4e487b7100000000000000000000000000000000000000000000000000000000600052602260045260246000fd5b60006002820490506001821680612a8757607f821691505b60208210811415612a9b57612a9a612a40565b5b50919050565b7f4f776e61626c653a2063616c6c6572206973206e6f7420746865206f776e6572600082015250565b6000612ad7602083612928565b9150612ae282612aa1565b602082019050919050565b60006020820190508181036000830152612b0681612aca565b9050919050565b7f4f6e6c7920746f6b656e2063726561746f722063616e2061646420746f20706f60008201527f7274666f6c696f00000000000000000000000000000000000000000000000000602082015250565b6000612b69602783612928565b9150612b7482612b0d565b604082019050919050565b60006020820190508181036000830152612b9881612b5c565b9050919050565b600081519050612bae816120dc565b92915050565b600060208284031215612bca57612bc9611a91565b5b6000612bd884828501612b9f565b91505092915050565b7f53616c65206973206e6f742076616c6964000000000000000000000000000000600082015250565b6000612c17601183612928565b9150612c2282612be1565b602082019050919050565b60006020820190508181036000830152612c4681612c0a565b9050919050565b7f4e487b7100000000000000000000000000000000000000000000000000000000600052601160045260246000fd5b6000612c8782611a9b565b91507fffffffffffffffffffffffffffffffffffffffffffffffffffffffffffffffff821415612cba57612cb9612c4d565b5b600182019050919050565b7f4f776e61626c653a206e6577206f776e657220697320746865207a65726f206160008201527f6464726573730000000000000000000000000000000000000000000000000000602082015250565b6000612d21602683612928565b9150612d2c82612cc5565b604082019050919050565b60006020820190508181036000830152612d5081612d14565b905091905056fea2646970667358221220f05de24c15a8d37605b1fce93701bad4a2e561a714deb52d6820a70c31d422d664736f6c634300080c0033",
  "immutableReferences": {},
  "source": "// !! This contract is not audited. Do not use in production!!\n\n//SPDX-License-Identifier: UNLICENSED\npragma solidity ^0.8.0;\n\n// Imports\nimport \"@openzeppelin/contracts/token/ERC20/IERC20.sol\"; // ERC20 interface\nimport \"@openzeppelin/contracts/access/Ownable.sol\"; //  Ownable.sol\nimport \"./Factory.sol\"; // Factory Contract\n\nimport \"./lib/IDO.sol\";\n\n// Portolio contract for tracking the token distribution\ncontract Portfolio is Ownable {\n    // Mapping for user address to Component struct\n    mapping(address => IDOLib.Investment[]) internal usersInvesments;\n\n    // Mapping for created ERC20 tokens\n    mapping(address => IDOLib.ERC20[]) internal userERC20s;\n\n    // Factory contract\n    Factory public factoryContract;\n\n    // Token Creator Contract\n    address public tokenCreator;\n\n    constructor() {}\n\n    // Setter function for factory contract\n    function setFactoryContract(Factory _factory) external onlyOwner {\n        factoryContract = _factory;\n    }\n\n    // Msg.sender must be valid sale for adding to portfolio\n    modifier isSaleValid() {\n        require(factoryContract.isSaleValid(msg.sender), \"Sale is not valid\");\n        _;\n    }\n\n    // Msg.sender needs to be token creator account for ERC20 portfolio\n    modifier isTokenCreator() {\n        require(\n            msg.sender == tokenCreator,\n            \"Only token creator can add to portfolio\"\n        );\n        _;\n    }\n\n    // Getter function for msg.sender portfolio\n    function getMyPortfolio()\n        external\n        view\n        returns (IDOLib.Investment[] memory)\n    {\n        return usersInvesments[msg.sender];\n    }\n\n    // Getter function for msg.sender ERC20 tokens\n    function getMyERC20s() external view returns (IDOLib.ERC20[] memory) {\n        return userERC20s[msg.sender];\n    }\n\n    // Getter function for individual investment\n    function getInvestment(uint256 _id)\n        external\n        view\n        returns (IDOLib.Investment memory)\n    {\n        require(\n            usersInvesments[msg.sender].length > 0,\n            \"User has no investments\"\n        );\n        require(\n            _id < usersInvesments[msg.sender].length,\n            \"Investment does not exist\"\n        );\n\n        return usersInvesments[msg.sender][_id];\n    }\n\n    // Getter function for check if invesment already exists\n    function isInvesmentExists(address user, uint256 _saleId)\n        external\n        view\n        returns (bool)\n    {\n        uint256 length = usersInvesments[user].length;\n\n        if (length == 0) return false;\n\n        // Local variable for isHere\n        bool isHere = false;\n\n        // For gas optimization\n        uint256 index;\n        for (index; index < length; index++) {\n            if (usersInvesments[user][index].saleId == _saleId) {\n                isHere = true;\n            }\n        }\n\n        return isHere;\n    }\n\n    // Setter function for set new sale\n    function addPortfolio(IDOLib.Investment memory _invesment, address user)\n        external\n        isSaleValid\n    {\n        usersInvesments[user].push(_invesment);\n    }\n\n    // Update portolio for user\n    function updatePortolio(\n        address user,\n        uint256 saleID,\n        uint256 newWithdrawnAmount,\n        bool[] memory newPortionArray\n    ) external isSaleValid {\n        uint256 length = usersInvesments[user].length;\n\n        // Local variable for index\n        uint256 index;\n        for (index; index < length; index++) {\n            if (usersInvesments[user][index].saleId == saleID) {\n                usersInvesments[user][index]\n                    .withdrawnAmount = newWithdrawnAmount;\n                usersInvesments[user][index]\n                    .isPortionWithdrawn = newPortionArray;\n                if (isFinished(newPortionArray))\n                    usersInvesments[user][index].isFinished = true;\n            }\n        }\n    }\n\n    // Internal function for set isFinished variable\n    function isFinished(bool[] memory arr) internal pure returns (bool) {\n        bool finished = true;\n\n        uint256 length = arr.length;\n        uint256 index;\n        for (index; index < length; index++) {\n            if (!arr[index]) {\n                finished = false;\n            }\n        }\n\n        return finished;\n    }\n\n    // External function for add new ERC20 token to portfolio\n    function addERC20(\n        address user,\n        string memory name,\n        string memory symbol,\n        uint256 totalSupply,\n        address tokenAddress\n    ) external isTokenCreator {\n        IDOLib.ERC20 memory newERC20 = IDOLib.ERC20(\n            name,\n            symbol,\n            totalSupply,\n            tokenAddress\n        );\n\n        userERC20s[user].push(newERC20);\n    }\n\n    // Setter function for set token creator\n    function setTokenCreator(address _tokenCreator) external onlyOwner {\n        tokenCreator = _tokenCreator;\n    }\n}\n",
  "sourcePath": "/Users/mehmetberatozturk/Documents/Github/ido-for-everyone/contracts/Portfolio.sol",
  "compiler": {
    "name": "solc",
    "version": "0.8.12+commit.f00d7308.Emscripten.clang"
  },
  "schemaVersion": "3.4.6",
  "updatedAt": "2022-05-08T12:53:15.985Z",
  "networkType": "ethereum",
  "devdoc": {
    "kind": "dev",
    "methods": {
      "owner()": {
        "details": "Returns the address of the current owner."
      },
      "renounceOwnership()": {
        "details": "Leaves the contract without owner. It will not be possible to call `onlyOwner` functions anymore. Can only be called by the current owner. NOTE: Renouncing ownership will leave the contract without an owner, thereby removing any functionality that is only available to the owner."
      },
      "transferOwnership(address)": {
        "details": "Transfers ownership of the contract to a new account (`newOwner`). Can only be called by the current owner."
      }
    },
    "version": 1
  },
  "userdoc": {
    "kind": "user",
    "methods": {},
    "version": 1
  }
}