{
  "contractName": "Portfolio",
  "abi": [
    {
      "inputs": [],
      "stateMutability": "nonpayable",
      "type": "constructor"
    },
    {
      "anonymous": false,
      "inputs": [
        {
          "indexed": true,
          "internalType": "address",
          "name": "previousOwner",
          "type": "address"
        },
        {
          "indexed": true,
          "internalType": "address",
          "name": "newOwner",
          "type": "address"
        }
      ],
      "name": "OwnershipTransferred",
      "type": "event"
    },
    {
      "inputs": [],
      "name": "factoryContract",
      "outputs": [
        {
          "internalType": "contract Factory",
          "name": "",
          "type": "address"
        }
      ],
      "stateMutability": "view",
      "type": "function",
      "constant": true
    },
    {
      "inputs": [],
      "name": "owner",
      "outputs": [
        {
          "internalType": "address",
          "name": "",
          "type": "address"
        }
      ],
      "stateMutability": "view",
      "type": "function",
      "constant": true
    },
    {
      "inputs": [],
      "name": "renounceOwnership",
      "outputs": [],
      "stateMutability": "nonpayable",
      "type": "function"
    },
    {
      "inputs": [
        {
          "internalType": "address",
          "name": "newOwner",
          "type": "address"
        }
      ],
      "name": "transferOwnership",
      "outputs": [],
      "stateMutability": "nonpayable",
      "type": "function"
    },
    {
      "inputs": [
        {
          "internalType": "contract Factory",
          "name": "_factory",
          "type": "address"
        }
      ],
      "name": "setFactoryContract",
      "outputs": [],
      "stateMutability": "nonpayable",
      "type": "function"
    },
    {
      "inputs": [],
      "name": "getMyPortfolio",
      "outputs": [
        {
          "components": [
            {
              "internalType": "uint256",
              "name": "saleId",
              "type": "uint256"
            },
            {
              "internalType": "string",
              "name": "saleName",
              "type": "string"
            },
            {
              "internalType": "uint256",
              "name": "vestedAmount",
              "type": "uint256"
            },
            {
              "internalType": "uint256",
              "name": "withdrawnAmount",
              "type": "uint256"
            },
            {
              "internalType": "uint256",
              "name": "price",
              "type": "uint256"
            },
            {
              "internalType": "uint256[]",
              "name": "distributionDates",
              "type": "uint256[]"
            },
            {
              "internalType": "bool[]",
              "name": "isPortionWithdrawn",
              "type": "bool[]"
            },
            {
              "internalType": "bool",
              "name": "isFinished",
              "type": "bool"
            },
            {
              "internalType": "address",
              "name": "tokenAddress",
              "type": "address"
            }
          ],
          "internalType": "struct IDOLib.Investment[]",
          "name": "",
          "type": "tuple[]"
        }
      ],
      "stateMutability": "view",
      "type": "function",
      "constant": true
    },
    {
      "inputs": [
        {
          "internalType": "uint256",
          "name": "_id",
          "type": "uint256"
        }
      ],
      "name": "getInvestment",
      "outputs": [
        {
          "components": [
            {
              "internalType": "uint256",
              "name": "saleId",
              "type": "uint256"
            },
            {
              "internalType": "string",
              "name": "saleName",
              "type": "string"
            },
            {
              "internalType": "uint256",
              "name": "vestedAmount",
              "type": "uint256"
            },
            {
              "internalType": "uint256",
              "name": "withdrawnAmount",
              "type": "uint256"
            },
            {
              "internalType": "uint256",
              "name": "price",
              "type": "uint256"
            },
            {
              "internalType": "uint256[]",
              "name": "distributionDates",
              "type": "uint256[]"
            },
            {
              "internalType": "bool[]",
              "name": "isPortionWithdrawn",
              "type": "bool[]"
            },
            {
              "internalType": "bool",
              "name": "isFinished",
              "type": "bool"
            },
            {
              "internalType": "address",
              "name": "tokenAddress",
              "type": "address"
            }
          ],
          "internalType": "struct IDOLib.Investment",
          "name": "",
          "type": "tuple"
        }
      ],
      "stateMutability": "view",
      "type": "function",
      "constant": true
    },
    {
      "inputs": [
        {
          "internalType": "address",
          "name": "user",
          "type": "address"
        },
        {
          "internalType": "uint256",
          "name": "_saleId",
          "type": "uint256"
        }
      ],
      "name": "isInvesmentExists",
      "outputs": [
        {
          "internalType": "bool",
          "name": "",
          "type": "bool"
        }
      ],
      "stateMutability": "view",
      "type": "function",
      "constant": true
    },
    {
      "inputs": [
        {
          "components": [
            {
              "internalType": "uint256",
              "name": "saleId",
              "type": "uint256"
            },
            {
              "internalType": "string",
              "name": "saleName",
              "type": "string"
            },
            {
              "internalType": "uint256",
              "name": "vestedAmount",
              "type": "uint256"
            },
            {
              "internalType": "uint256",
              "name": "withdrawnAmount",
              "type": "uint256"
            },
            {
              "internalType": "uint256",
              "name": "price",
              "type": "uint256"
            },
            {
              "internalType": "uint256[]",
              "name": "distributionDates",
              "type": "uint256[]"
            },
            {
              "internalType": "bool[]",
              "name": "isPortionWithdrawn",
              "type": "bool[]"
            },
            {
              "internalType": "bool",
              "name": "isFinished",
              "type": "bool"
            },
            {
              "internalType": "address",
              "name": "tokenAddress",
              "type": "address"
            }
          ],
          "internalType": "struct IDOLib.Investment",
          "name": "_invesment",
          "type": "tuple"
        },
        {
          "internalType": "address",
          "name": "user",
          "type": "address"
        }
      ],
      "name": "addPortfolio",
      "outputs": [],
      "stateMutability": "nonpayable",
      "type": "function"
    },
    {
      "inputs": [
        {
          "internalType": "address",
          "name": "user",
          "type": "address"
        },
        {
          "internalType": "uint256",
          "name": "saleID",
          "type": "uint256"
        },
        {
          "internalType": "uint256",
          "name": "newWithdrawnAmount",
          "type": "uint256"
        },
        {
          "internalType": "bool[]",
          "name": "newPortionArray",
          "type": "bool[]"
        }
      ],
      "name": "updatePortolio",
      "outputs": [],
      "stateMutability": "nonpayable",
      "type": "function"
    }
  ],
  "bytecode": "0x608060405234801561001057600080fd5b5061002d61002261003260201b60201c565b61003a60201b60201c565b6100fe565b600033905090565b60008060009054906101000a900473ffffffffffffffffffffffffffffffffffffffff169050816000806101000a81548173ffffffffffffffffffffffffffffffffffffffff021916908373ffffffffffffffffffffffffffffffffffffffff1602179055508173ffffffffffffffffffffffffffffffffffffffff168173ffffffffffffffffffffffffffffffffffffffff167f8be0079c531659141344cd1fd0a4f28419497f9722a3daafe3b4186f6b6457e060405160405180910390a35050565b61241a806200010e6000396000f3fe608060405234801561001057600080fd5b506004361061009e5760003560e01c8063b5151ed511610066578063b5151ed514610147578063d360086114610165578063d424134114610181578063de11c94a1461019d578063f2fde38b146101bb5761009e565b806322ae634f146100a35780634d403467146100d3578063715018a6146100ef5780638da5cb5b146100f9578063915f5fde14610117575b600080fd5b6100bd60048036038101906100b89190611431565b6101d7565b6040516100ca9190611793565b60405180910390f35b6100ed60048036038101906100e89190611955565b61055a565b005b6100f7610874565b005b6101016108fc565b60405161010e91906119e7565b60405180910390f35b610131600480360381019061012c9190611a02565b610925565b60405161013e9190611a51565b60405180910390f35b61014f610a1b565b60405161015c9190611c01565b60405180910390f35b61017f600480360381019061017a9190611ed9565b610cb8565b005b61019b60048036038101906101969190611f73565b610ee9565b005b6101a5610fa9565b6040516101b29190611fff565b60405180910390f35b6101d560048036038101906101d0919061201a565b610fcf565b005b6101df6111ed565b6000600160003373ffffffffffffffffffffffffffffffffffffffff1673ffffffffffffffffffffffffffffffffffffffff1681526020019081526020016000208054905011610264576040517f08c379a000000000000000000000000000000000000000000000000000000000815260040161025b906120a4565b60405180910390fd5b600160003373ffffffffffffffffffffffffffffffffffffffff1673ffffffffffffffffffffffffffffffffffffffff1681526020019081526020016000208054905082106102e8576040517f08c379a00000000000000000000000000000000000000000000000000000000081526004016102df90612110565b60405180910390fd5b600160003373ffffffffffffffffffffffffffffffffffffffff1673ffffffffffffffffffffffffffffffffffffffff168152602001908152602001600020828154811061033957610338612130565b5b9060005260206000209060080201604051806101200160405290816000820154815260200160018201805461036d9061218e565b80601f01602080910402602001604051908101604052809291908181526020018280546103999061218e565b80156103e65780601f106103bb576101008083540402835291602001916103e6565b820191906000526020600020905b8154815290600101906020018083116103c957829003601f168201915b505050505081526020016002820154815260200160038201548152602001600482015481526020016005820180548060200260200160405190810160405280929190818152602001828054801561045c57602002820191906000526020600020905b815481526020019060010190808311610448575b50505050508152602001600682018054806020026020016040519081016040528092919081815260200182805480156104d957602002820191906000526020600020906000905b82829054906101000a900460ff161515815260200190600101906020826000010492830192600103820291508084116104a35790505b505050505081526020016007820160009054906101000a900460ff161515151581526020016007820160019054906101000a900473ffffffffffffffffffffffffffffffffffffffff1673ffffffffffffffffffffffffffffffffffffffff1673ffffffffffffffffffffffffffffffffffffffff16815250509050919050565b600260009054906101000a900473ffffffffffffffffffffffffffffffffffffffff1673ffffffffffffffffffffffffffffffffffffffff1663421d2ccf336040518263ffffffff1660e01b81526004016105b591906119e7565b602060405180830381865afa1580156105d2573d6000803e3d6000fd5b505050506040513d601f19601f820116820180604052508101906105f691906121d5565b610635576040517f08c379a000000000000000000000000000000000000000000000000000000000815260040161062c9061224e565b60405180910390fd5b6000600160008673ffffffffffffffffffffffffffffffffffffffff1673ffffffffffffffffffffffffffffffffffffffff16815260200190815260200160002080549050905060005b8181101561086c5784600160008873ffffffffffffffffffffffffffffffffffffffff1673ffffffffffffffffffffffffffffffffffffffff16815260200190815260200160002082815481106106d9576106d8612130565b5b90600052602060002090600802016000015414156108595783600160008873ffffffffffffffffffffffffffffffffffffffff1673ffffffffffffffffffffffffffffffffffffffff168152602001908152602001600020828154811061074357610742612130565b5b90600052602060002090600802016003018190555082600160008873ffffffffffffffffffffffffffffffffffffffff1673ffffffffffffffffffffffffffffffffffffffff16815260200190815260200160002082815481106107aa576107a9612130565b5b906000526020600020906008020160060190805190602001906107ce929190611251565b506107d8836110c7565b156108585760018060008873ffffffffffffffffffffffffffffffffffffffff1673ffffffffffffffffffffffffffffffffffffffff168152602001908152602001600020828154811061082f5761082e612130565b5b906000526020600020906008020160070160006101000a81548160ff0219169083151502179055505b5b80806108649061229d565b91505061067f565b505050505050565b61087c611121565b73ffffffffffffffffffffffffffffffffffffffff1661089a6108fc565b73ffffffffffffffffffffffffffffffffffffffff16146108f0576040517f08c379a00000000000000000000000000000000000000000000000000000000081526004016108e790612332565b60405180910390fd5b6108fa6000611129565b565b60008060009054906101000a900473ffffffffffffffffffffffffffffffffffffffff16905090565b600080600160008573ffffffffffffffffffffffffffffffffffffffff1673ffffffffffffffffffffffffffffffffffffffff1681526020019081526020016000208054905090506000811415610980576000915050610a15565b6000805b82811015610a0e5784600160008873ffffffffffffffffffffffffffffffffffffffff1673ffffffffffffffffffffffffffffffffffffffff16815260200190815260200160002082815481106109de576109dd612130565b5b90600052602060002090600802016000015414156109fb57600191505b8080610a069061229d565b915050610984565b8193505050505b92915050565b6060600160003373ffffffffffffffffffffffffffffffffffffffff1673ffffffffffffffffffffffffffffffffffffffff168152602001908152602001600020805480602002602001604051908101604052809291908181526020016000905b82821015610caf57838290600052602060002090600802016040518061012001604052908160008201548152602001600182018054610aba9061218e565b80601f0160208091040260200160405190810160405280929190818152602001828054610ae69061218e565b8015610b335780601f10610b0857610100808354040283529160200191610b33565b820191906000526020600020905b815481529060010190602001808311610b1657829003601f168201915b5050505050815260200160028201548152602001600382015481526020016004820154815260200160058201805480602002602001604051908101604052809291908181526020018280548015610ba957602002820191906000526020600020905b815481526020019060010190808311610b95575b5050505050815260200160068201805480602002602001604051908101604052809291908181526020018280548015610c2657602002820191906000526020600020906000905b82829054906101000a900460ff16151581526020019060010190602082600001049283019260010382029150808411610bf05790505b505050505081526020016007820160009054906101000a900460ff161515151581526020016007820160019054906101000a900473ffffffffffffffffffffffffffffffffffffffff1673ffffffffffffffffffffffffffffffffffffffff1673ffffffffffffffffffffffffffffffffffffffff168152505081526020019060010190610a7c565b50505050905090565b600260009054906101000a900473ffffffffffffffffffffffffffffffffffffffff1673ffffffffffffffffffffffffffffffffffffffff1663421d2ccf336040518263ffffffff1660e01b8152600401610d1391906119e7565b602060405180830381865afa158015610d30573d6000803e3d6000fd5b505050506040513d601f19601f82011682018060405250810190610d5491906121d5565b610d93576040517f08c379a0000000000000000000000000000000000000000000000000000000008152600401610d8a9061224e565b60405180910390fd5b600160008273ffffffffffffffffffffffffffffffffffffffff1673ffffffffffffffffffffffffffffffffffffffff168152602001908152602001600020829080600181540180825580915050600190039060005260206000209060080201600090919091909150600082015181600001556020820151816001019080519060200190610e229291906112f7565b5060408201518160020155606082015181600301556080820151816004015560a0820151816005019080519060200190610e5d92919061137d565b5060c0820151816006019080519060200190610e7a929190611251565b5060e08201518160070160006101000a81548160ff0219169083151502179055506101008201518160070160016101000a81548173ffffffffffffffffffffffffffffffffffffffff021916908373ffffffffffffffffffffffffffffffffffffffff16021790555050505050565b610ef1611121565b73ffffffffffffffffffffffffffffffffffffffff16610f0f6108fc565b73ffffffffffffffffffffffffffffffffffffffff1614610f65576040517f08c379a0000000000000000000000000000000000000000000000000000000008152600401610f5c90612332565b60405180910390fd5b80600260006101000a81548173ffffffffffffffffffffffffffffffffffffffff021916908373ffffffffffffffffffffffffffffffffffffffff16021790555050565b600260009054906101000a900473ffffffffffffffffffffffffffffffffffffffff1681565b610fd7611121565b73ffffffffffffffffffffffffffffffffffffffff16610ff56108fc565b73ffffffffffffffffffffffffffffffffffffffff161461104b576040517f08c379a000000000000000000000000000000000000000000000000000000000815260040161104290612332565b60405180910390fd5b600073ffffffffffffffffffffffffffffffffffffffff168173ffffffffffffffffffffffffffffffffffffffff1614156110bb576040517f08c379a00000000000000000000000000000000000000000000000000000000081526004016110b2906123c4565b60405180910390fd5b6110c481611129565b50565b6000806001905060008351905060005b81811015611116578481815181106110f2576110f1612130565b5b602002602001015161110357600092505b808061110e9061229d565b9150506110d7565b829350505050919050565b600033905090565b60008060009054906101000a900473ffffffffffffffffffffffffffffffffffffffff169050816000806101000a81548173ffffffffffffffffffffffffffffffffffffffff021916908373ffffffffffffffffffffffffffffffffffffffff1602179055508173ffffffffffffffffffffffffffffffffffffffff168173ffffffffffffffffffffffffffffffffffffffff167f8be0079c531659141344cd1fd0a4f28419497f9722a3daafe3b4186f6b6457e060405160405180910390a35050565b60405180610120016040528060008152602001606081526020016000815260200160008152602001600081526020016060815260200160608152602001600015158152602001600073ffffffffffffffffffffffffffffffffffffffff1681525090565b82805482825590600052602060002090601f016020900481019282156112e65791602002820160005b838211156112b757835183826101000a81548160ff021916908315150217905550926020019260010160208160000104928301926001030261127a565b80156112e45782816101000a81549060ff02191690556001016020816000010492830192600103026112b7565b505b5090506112f391906113ca565b5090565b8280546113039061218e565b90600052602060002090601f016020900481019282611325576000855561136c565b82601f1061133e57805160ff191683800117855561136c565b8280016001018555821561136c579182015b8281111561136b578251825591602001919060010190611350565b5b50905061137991906113ca565b5090565b8280548282559060005260206000209081019282156113b9579160200282015b828111156113b857825182559160200191906001019061139d565b5b5090506113c691906113ca565b5090565b5b808211156113e35760008160009055506001016113cb565b5090565b6000604051905090565b600080fd5b600080fd5b6000819050919050565b61140e816113fb565b811461141957600080fd5b50565b60008135905061142b81611405565b92915050565b600060208284031215611447576114466113f1565b5b60006114558482850161141c565b91505092915050565b611467816113fb565b82525050565b600081519050919050565b600082825260208201905092915050565b60005b838110156114a757808201518184015260208101905061148c565b838111156114b6576000848401525b50505050565b6000601f19601f8301169050919050565b60006114d88261146d565b6114e28185611478565b93506114f2818560208601611489565b6114fb816114bc565b840191505092915050565b600081519050919050565b600082825260208201905092915050565b6000819050602082019050919050565b600061153e838361145e565b60208301905092915050565b6000602082019050919050565b600061156282611506565b61156c8185611511565b935061157783611522565b8060005b838110156115a857815161158f8882611532565b975061159a8361154a565b92505060018101905061157b565b5085935050505092915050565b600081519050919050565b600082825260208201905092915050565b6000819050602082019050919050565b60008115159050919050565b6115f6816115e1565b82525050565b600061160883836115ed565b60208301905092915050565b6000602082019050919050565b600061162c826115b5565b61163681856115c0565b9350611641836115d1565b8060005b8381101561167257815161165988826115fc565b975061166483611614565b925050600181019050611645565b5085935050505092915050565b600073ffffffffffffffffffffffffffffffffffffffff82169050919050565b60006116aa8261167f565b9050919050565b6116ba8161169f565b82525050565b6000610120830160008301516116d9600086018261145e565b50602083015184820360208601526116f182826114cd565b9150506040830151611706604086018261145e565b506060830151611719606086018261145e565b50608083015161172c608086018261145e565b5060a083015184820360a08601526117448282611557565b91505060c083015184820360c086015261175e8282611621565b91505060e083015161177360e08601826115ed565b506101008301516117886101008601826116b1565b508091505092915050565b600060208201905081810360008301526117ad81846116c0565b905092915050565b6117be8161169f565b81146117c957600080fd5b50565b6000813590506117db816117b5565b92915050565b600080fd5b7f4e487b7100000000000000000000000000000000000000000000000000000000600052604160045260246000fd5b61181e826114bc565b810181811067ffffffffffffffff8211171561183d5761183c6117e6565b5b80604052505050565b60006118506113e7565b905061185c8282611815565b919050565b600067ffffffffffffffff82111561187c5761187b6117e6565b5b602082029050602081019050919050565b600080fd5b61189b816115e1565b81146118a657600080fd5b50565b6000813590506118b881611892565b92915050565b60006118d16118cc84611861565b611846565b905080838252602082019050602084028301858111156118f4576118f361188d565b5b835b8181101561191d578061190988826118a9565b8452602084019350506020810190506118f6565b5050509392505050565b600082601f83011261193c5761193b6117e1565b5b813561194c8482602086016118be565b91505092915050565b6000806000806080858703121561196f5761196e6113f1565b5b600061197d878288016117cc565b945050602061198e8782880161141c565b935050604061199f8782880161141c565b925050606085013567ffffffffffffffff8111156119c0576119bf6113f6565b5b6119cc87828801611927565b91505092959194509250565b6119e18161169f565b82525050565b60006020820190506119fc60008301846119d8565b92915050565b60008060408385031215611a1957611a186113f1565b5b6000611a27858286016117cc565b9250506020611a388582860161141c565b9150509250929050565b611a4b816115e1565b82525050565b6000602082019050611a666000830184611a42565b92915050565b600081519050919050565b600082825260208201905092915050565b6000819050602082019050919050565b600061012083016000830151611ab1600086018261145e565b5060208301518482036020860152611ac982826114cd565b9150506040830151611ade604086018261145e565b506060830151611af1606086018261145e565b506080830151611b04608086018261145e565b5060a083015184820360a0860152611b1c8282611557565b91505060c083015184820360c0860152611b368282611621565b91505060e0830151611b4b60e08601826115ed565b50610100830151611b606101008601826116b1565b508091505092915050565b6000611b778383611a98565b905092915050565b6000602082019050919050565b6000611b9782611a6c565b611ba18185611a77565b935083602082028501611bb385611a88565b8060005b85811015611bef5784840389528151611bd08582611b6b565b9450611bdb83611b7f565b925060208a01995050600181019050611bb7565b50829750879550505050505092915050565b60006020820190508181036000830152611c1b8184611b8c565b905092915050565b600080fd5b600080fd5b600080fd5b600067ffffffffffffffff821115611c4d57611c4c6117e6565b5b611c56826114bc565b9050602081019050919050565b82818337600083830152505050565b6000611c85611c8084611c32565b611846565b905082815260208101848484011115611ca157611ca0611c2d565b5b611cac848285611c63565b509392505050565b600082601f830112611cc957611cc86117e1565b5b8135611cd9848260208601611c72565b91505092915050565b600067ffffffffffffffff821115611cfd57611cfc6117e6565b5b602082029050602081019050919050565b6000611d21611d1c84611ce2565b611846565b90508083825260208201905060208402830185811115611d4457611d4361188d565b5b835b81811015611d6d5780611d59888261141c565b845260208401935050602081019050611d46565b5050509392505050565b600082601f830112611d8c57611d8b6117e1565b5b8135611d9c848260208601611d0e565b91505092915050565b60006101208284031215611dbc57611dbb611c23565b5b611dc7610120611846565b90506000611dd78482850161141c565b600083015250602082013567ffffffffffffffff811115611dfb57611dfa611c28565b5b611e0784828501611cb4565b6020830152506040611e1b8482850161141c565b6040830152506060611e2f8482850161141c565b6060830152506080611e438482850161141c565b60808301525060a082013567ffffffffffffffff811115611e6757611e66611c28565b5b611e7384828501611d77565b60a08301525060c082013567ffffffffffffffff811115611e9757611e96611c28565b5b611ea384828501611927565b60c08301525060e0611eb7848285016118a9565b60e083015250610100611ecc848285016117cc565b6101008301525092915050565b60008060408385031215611ef057611eef6113f1565b5b600083013567ffffffffffffffff811115611f0e57611f0d6113f6565b5b611f1a85828601611da5565b9250506020611f2b858286016117cc565b9150509250929050565b6000611f408261169f565b9050919050565b611f5081611f35565b8114611f5b57600080fd5b50565b600081359050611f6d81611f47565b92915050565b600060208284031215611f8957611f886113f1565b5b6000611f9784828501611f5e565b91505092915050565b6000819050919050565b6000611fc5611fc0611fbb8461167f565b611fa0565b61167f565b9050919050565b6000611fd782611faa565b9050919050565b6000611fe982611fcc565b9050919050565b611ff981611fde565b82525050565b60006020820190506120146000830184611ff0565b92915050565b6000602082840312156120305761202f6113f1565b5b600061203e848285016117cc565b91505092915050565b600082825260208201905092915050565b7f5573657220686173206e6f20696e766573746d656e7473000000000000000000600082015250565b600061208e601783612047565b915061209982612058565b602082019050919050565b600060208201905081810360008301526120bd81612081565b9050919050565b7f496e766573746d656e7420646f6573206e6f7420657869737400000000000000600082015250565b60006120fa601983612047565b9150612105826120c4565b602082019050919050565b60006020820190508181036000830152612129816120ed565b9050919050565b7f4e487b7100000000000000000000000000000000000000000000000000000000600052603260045260246000fd5b7f4e487b7100000000000000000000000000000000000000000000000000000000600052602260045260246000fd5b600060028204905060018216806121a657607f821691505b602082108114156121ba576121b961215f565b5b50919050565b6000815190506121cf81611892565b92915050565b6000602082840312156121eb576121ea6113f1565b5b60006121f9848285016121c0565b91505092915050565b7f53616c65206973206e6f742076616c6964000000000000000000000000000000600082015250565b6000612238601183612047565b915061224382612202565b602082019050919050565b600060208201905081810360008301526122678161222b565b9050919050565b7f4e487b7100000000000000000000000000000000000000000000000000000000600052601160045260246000fd5b60006122a8826113fb565b91507fffffffffffffffffffffffffffffffffffffffffffffffffffffffffffffffff8214156122db576122da61226e565b5b600182019050919050565b7f4f776e61626c653a2063616c6c6572206973206e6f7420746865206f776e6572600082015250565b600061231c602083612047565b9150612327826122e6565b602082019050919050565b6000602082019050818103600083015261234b8161230f565b9050919050565b7f4f776e61626c653a206e6577206f776e657220697320746865207a65726f206160008201527f6464726573730000000000000000000000000000000000000000000000000000602082015250565b60006123ae602683612047565b91506123b982612352565b604082019050919050565b600060208201905081810360008301526123dd816123a1565b905091905056fea2646970667358221220d1c76fdb080860946579c7e5e5e7bade1ef969bcb011f5ae61a1bc73656d5b3e64736f6c634300080c0033",
  "immutableReferences": {},
  "source": "// !! This contract is not audited. Do not use in production!!\n\n//SPDX-License-Identifier: UNLICENSED\npragma solidity ^0.8.0;\n\n// Imports\nimport \"@openzeppelin/contracts/token/ERC20/IERC20.sol\"; // ERC20 interface\nimport \"@openzeppelin/contracts/access/Ownable.sol\"; //  Ownable.sol\nimport \"./Factory.sol\"; // Factory Contract\n\nimport \"./lib/IDO.sol\";\n\n// Portolio contract for tracking the token distribution\ncontract Portfolio is Ownable {\n    // Mapping for user address to Component struct\n    mapping(address => IDOLib.Investment[]) internal usersInvesments;\n\n    // Factory contract\n    Factory public factoryContract;\n\n    constructor() {}\n\n    // Setter function for factory contract\n    function setFactoryContract(Factory _factory) external onlyOwner {\n        factoryContract = _factory;\n    }\n\n    // Msg.sender must be valid sale for adding to portfolio\n    modifier isSaleValid() {\n        require(factoryContract.isSaleValid(msg.sender), \"Sale is not valid\");\n        _;\n    }\n\n    // Getter function for msg.sender portfolio\n    function getMyPortfolio()\n        external\n        view\n        returns (IDOLib.Investment[] memory)\n    {\n        return usersInvesments[msg.sender];\n    }\n\n    // Getter function for individual investment\n    function getInvestment(uint256 _id)\n        external\n        view\n        returns (IDOLib.Investment memory)\n    {\n        require(\n            usersInvesments[msg.sender].length > 0,\n            \"User has no investments\"\n        );\n        require(\n            _id < usersInvesments[msg.sender].length,\n            \"Investment does not exist\"\n        );\n\n        return usersInvesments[msg.sender][_id];\n    }\n\n    // Getter function for check if invesment already exists\n    function isInvesmentExists(address user, uint256 _saleId)\n        external\n        view\n        returns (bool)\n    {\n        uint256 length = usersInvesments[user].length;\n\n        if (length == 0) return false;\n\n        // Local variable for isHere\n        bool isHere = false;\n\n        // For gas optimization\n        uint256 index;\n        for (index; index < length; index++) {\n            if (usersInvesments[user][index].saleId == _saleId) {\n                isHere = true;\n            }\n        }\n\n        return isHere;\n    }\n\n    // Setter function for set new sale\n    function addPortfolio(IDOLib.Investment memory _invesment, address user)\n        external\n        isSaleValid\n    {\n        usersInvesments[user].push(_invesment);\n    }\n\n    // Update portolio for user\n    function updatePortolio(\n        address user,\n        uint256 saleID,\n        uint256 newWithdrawnAmount,\n        bool[] memory newPortionArray\n    ) external isSaleValid {\n        uint256 length = usersInvesments[user].length;\n\n        // Local variable for index\n        uint256 index;\n        for (index; index < length; index++) {\n            if (usersInvesments[user][index].saleId == saleID) {\n                usersInvesments[user][index]\n                    .withdrawnAmount = newWithdrawnAmount;\n                usersInvesments[user][index]\n                    .isPortionWithdrawn = newPortionArray;\n                if (isFinished(newPortionArray))\n                    usersInvesments[user][index].isFinished = true;\n            }\n        }\n    }\n\n    // Internal function for set isFinished variable\n    function isFinished(bool[] memory arr) internal pure returns (bool) {\n        bool finished = true;\n\n        uint256 length = arr.length;\n        uint256 index;\n        for (index; index < length; index++) {\n            if (!arr[index]) {\n                finished = false;\n            }\n        }\n\n        return finished;\n    }\n}\n",
  "sourcePath": "/Users/mehmetberatozturk/Documents/Github/ido-for-everyone/contracts/Portfolio.sol",
  "compiler": {
    "name": "solc",
    "version": "0.8.12+commit.f00d7308.Emscripten.clang"
  },
  "schemaVersion": "3.4.6",
  "updatedAt": "2022-04-30T21:25:25.332Z",
  "networkType": "ethereum",
  "devdoc": {
    "kind": "dev",
    "methods": {
      "owner()": {
        "details": "Returns the address of the current owner."
      },
      "renounceOwnership()": {
        "details": "Leaves the contract without owner. It will not be possible to call `onlyOwner` functions anymore. Can only be called by the current owner. NOTE: Renouncing ownership will leave the contract without an owner, thereby removing any functionality that is only available to the owner."
      },
      "transferOwnership(address)": {
        "details": "Transfers ownership of the contract to a new account (`newOwner`). Can only be called by the current owner."
      }
    },
    "version": 1
  },
  "userdoc": {
    "kind": "user",
    "methods": {},
    "version": 1
  }
}