{
  "contractName": "Sale",
  "abi": [
    {
      "inputs": [
        {
          "internalType": "uint256",
          "name": "_id",
          "type": "uint256"
        },
        {
          "internalType": "string",
          "name": "_name",
          "type": "string"
        },
        {
          "internalType": "uint256",
          "name": "_numberOfPortion",
          "type": "uint256"
        },
        {
          "internalType": "uint256",
          "name": "_timeBetweenPortions",
          "type": "uint256"
        },
        {
          "internalType": "uint256",
          "name": "_price",
          "type": "uint256"
        },
        {
          "internalType": "address",
          "name": "_admin",
          "type": "address"
        },
        {
          "internalType": "contract IERC20",
          "name": "_projectToken",
          "type": "address"
        },
        {
          "internalType": "contract IERC20",
          "name": "_paymentToken",
          "type": "address"
        },
        {
          "internalType": "contract Portfolio",
          "name": "_portfolioContract",
          "type": "address"
        }
      ],
      "stateMutability": "nonpayable",
      "type": "constructor"
    },
    {
      "anonymous": false,
      "inputs": [
        {
          "indexed": false,
          "internalType": "uint256",
          "name": "amount",
          "type": "uint256"
        }
      ],
      "name": "OwnerWithdrawn",
      "type": "event"
    },
    {
      "anonymous": false,
      "inputs": [
        {
          "indexed": false,
          "internalType": "address",
          "name": "user",
          "type": "address"
        },
        {
          "indexed": false,
          "internalType": "uint256",
          "name": "amount",
          "type": "uint256"
        }
      ],
      "name": "TokenSold",
      "type": "event"
    },
    {
      "anonymous": false,
      "inputs": [
        {
          "indexed": false,
          "internalType": "address",
          "name": "user",
          "type": "address"
        },
        {
          "indexed": false,
          "internalType": "uint256",
          "name": "amount",
          "type": "uint256"
        }
      ],
      "name": "TokenWithdrawn",
      "type": "event"
    },
    {
      "inputs": [],
      "name": "admin",
      "outputs": [
        {
          "internalType": "address",
          "name": "",
          "type": "address"
        }
      ],
      "stateMutability": "view",
      "type": "function"
    },
    {
      "inputs": [
        {
          "internalType": "uint256",
          "name": "",
          "type": "uint256"
        }
      ],
      "name": "distributionDates",
      "outputs": [
        {
          "internalType": "uint256",
          "name": "",
          "type": "uint256"
        }
      ],
      "stateMutability": "view",
      "type": "function"
    },
    {
      "inputs": [],
      "name": "maxDistributionAmount",
      "outputs": [
        {
          "internalType": "uint256",
          "name": "",
          "type": "uint256"
        }
      ],
      "stateMutability": "view",
      "type": "function"
    },
    {
      "inputs": [],
      "name": "minDistributionAmount",
      "outputs": [
        {
          "internalType": "uint256",
          "name": "",
          "type": "uint256"
        }
      ],
      "stateMutability": "view",
      "type": "function"
    },
    {
      "inputs": [],
      "name": "name",
      "outputs": [
        {
          "internalType": "string",
          "name": "",
          "type": "string"
        }
      ],
      "stateMutability": "view",
      "type": "function"
    },
    {
      "inputs": [],
      "name": "numberOfBuyers",
      "outputs": [
        {
          "internalType": "uint256",
          "name": "",
          "type": "uint256"
        }
      ],
      "stateMutability": "view",
      "type": "function"
    },
    {
      "inputs": [],
      "name": "numberOfPortions",
      "outputs": [
        {
          "internalType": "uint256",
          "name": "",
          "type": "uint256"
        }
      ],
      "stateMutability": "view",
      "type": "function"
    },
    {
      "inputs": [],
      "name": "paymentToken",
      "outputs": [
        {
          "internalType": "contract IERC20",
          "name": "",
          "type": "address"
        }
      ],
      "stateMutability": "view",
      "type": "function"
    },
    {
      "inputs": [],
      "name": "portfolioContract",
      "outputs": [
        {
          "internalType": "contract Portfolio",
          "name": "",
          "type": "address"
        }
      ],
      "stateMutability": "view",
      "type": "function"
    },
    {
      "inputs": [],
      "name": "price",
      "outputs": [
        {
          "internalType": "uint256",
          "name": "",
          "type": "uint256"
        }
      ],
      "stateMutability": "view",
      "type": "function"
    },
    {
      "inputs": [],
      "name": "projectToken",
      "outputs": [
        {
          "internalType": "contract IERC20",
          "name": "",
          "type": "address"
        }
      ],
      "stateMutability": "view",
      "type": "function"
    },
    {
      "inputs": [],
      "name": "saleId",
      "outputs": [
        {
          "internalType": "uint256",
          "name": "",
          "type": "uint256"
        }
      ],
      "stateMutability": "view",
      "type": "function"
    },
    {
      "inputs": [],
      "name": "timeBetweenPortions",
      "outputs": [
        {
          "internalType": "uint256",
          "name": "",
          "type": "uint256"
        }
      ],
      "stateMutability": "view",
      "type": "function"
    },
    {
      "inputs": [],
      "name": "totalTokenForBuyed",
      "outputs": [
        {
          "internalType": "uint256",
          "name": "",
          "type": "uint256"
        }
      ],
      "stateMutability": "view",
      "type": "function"
    },
    {
      "inputs": [],
      "name": "totalTokenWithdrawn",
      "outputs": [
        {
          "internalType": "uint256",
          "name": "",
          "type": "uint256"
        }
      ],
      "stateMutability": "view",
      "type": "function"
    },
    {
      "inputs": [
        {
          "internalType": "uint256",
          "name": "amountInPaymentToken",
          "type": "uint256"
        }
      ],
      "name": "buy",
      "outputs": [],
      "stateMutability": "nonpayable",
      "type": "function"
    },
    {
      "inputs": [],
      "name": "withdraw",
      "outputs": [],
      "stateMutability": "nonpayable",
      "type": "function"
    },
    {
      "inputs": [
        {
          "internalType": "address",
          "name": "user",
          "type": "address"
        }
      ],
      "name": "getInfo",
      "outputs": [
        {
          "components": [
            {
              "internalType": "uint256",
              "name": "amount",
              "type": "uint256"
            },
            {
              "internalType": "uint256",
              "name": "unlockTime",
              "type": "uint256"
            },
            {
              "internalType": "bool",
              "name": "isClaimed",
              "type": "bool"
            },
            {
              "internalType": "bool",
              "name": "canClaim",
              "type": "bool"
            }
          ],
          "internalType": "struct Sale.Info[]",
          "name": "",
          "type": "tuple[]"
        }
      ],
      "stateMutability": "view",
      "type": "function"
    },
    {
      "inputs": [],
      "name": "getInfo__sender",
      "outputs": [
        {
          "components": [
            {
              "internalType": "uint256",
              "name": "amount",
              "type": "uint256"
            },
            {
              "internalType": "uint256",
              "name": "unlockTime",
              "type": "uint256"
            },
            {
              "internalType": "bool",
              "name": "isClaimed",
              "type": "bool"
            },
            {
              "internalType": "bool",
              "name": "canClaim",
              "type": "bool"
            }
          ],
          "internalType": "struct Sale.Info[]",
          "name": "",
          "type": "tuple[]"
        }
      ],
      "stateMutability": "view",
      "type": "function"
    },
    {
      "inputs": [],
      "name": "getDistributionDates",
      "outputs": [
        {
          "internalType": "uint256[]",
          "name": "",
          "type": "uint256[]"
        }
      ],
      "stateMutability": "view",
      "type": "function"
    }
  ],
  "bytecode": "0x6080604052670de0b6b3a7640000600a55678ac7230489e80000600b553480156200002957600080fd5b50604051620037d1380380620037d183398181016040528101906200004f919062000644565b600160008190555088600f8190555087600e9080519060200190620000769291906200027b565b5083600360006101000a81548173ffffffffffffffffffffffffffffffffffffffff021916908373ffffffffffffffffffffffffffffffffffffffff16021790555086600581905550856006819055508460078190555060055467ffffffffffffffff811115620000ec57620000eb620003e7565b5b6040519080825280602002602001820160405280156200011b5781602001602082028036833780820191505090505b5060049080519060200190620001339291906200030c565b5060005b600554811015620001a85760065460018262000154919062000771565b620001609190620007ce565b426200016d919062000771565b600482815481106200018457620001836200082f565b5b906000526020600020018190555080806200019f906200085e565b91505062000137565b83600860006101000a81548173ffffffffffffffffffffffffffffffffffffffff021916908373ffffffffffffffffffffffffffffffffffffffff16021790555082600960006101000a81548173ffffffffffffffffffffffffffffffffffffffff021916908373ffffffffffffffffffffffffffffffffffffffff16021790555081600260006101000a81548173ffffffffffffffffffffffffffffffffffffffff021916908373ffffffffffffffffffffffffffffffffffffffff1602179055505050505050505050505062000911565b8280546200028990620008db565b90600052602060002090601f016020900481019282620002ad5760008555620002f9565b82601f10620002c857805160ff1916838001178555620002f9565b82800160010185558215620002f9579182015b82811115620002f8578251825591602001919060010190620002db565b5b5090506200030891906200035e565b5090565b8280548282559060005260206000209081019282156200034b579160200282015b828111156200034a5782518255916020019190600101906200032d565b5b5090506200035a91906200035e565b5090565b5b80821115620003795760008160009055506001016200035f565b5090565b6000604051905090565b600080fd5b600080fd5b6000819050919050565b620003a68162000391565b8114620003b257600080fd5b50565b600081519050620003c6816200039b565b92915050565b600080fd5b600080fd5b6000601f19601f8301169050919050565b7f4e487b7100000000000000000000000000000000000000000000000000000000600052604160045260246000fd5b6200042182620003d6565b810181811067ffffffffffffffff82111715620004435762000442620003e7565b5b80604052505050565b6000620004586200037d565b905062000466828262000416565b919050565b600067ffffffffffffffff821115620004895762000488620003e7565b5b6200049482620003d6565b9050602081019050919050565b60005b83811015620004c1578082015181840152602081019050620004a4565b83811115620004d1576000848401525b50505050565b6000620004ee620004e8846200046b565b6200044c565b9050828152602081018484840111156200050d576200050c620003d1565b5b6200051a848285620004a1565b509392505050565b600082601f8301126200053a5762000539620003cc565b5b81516200054c848260208601620004d7565b91505092915050565b600073ffffffffffffffffffffffffffffffffffffffff82169050919050565b6000620005828262000555565b9050919050565b620005948162000575565b8114620005a057600080fd5b50565b600081519050620005b48162000589565b92915050565b6000620005c78262000575565b9050919050565b620005d981620005ba565b8114620005e557600080fd5b50565b600081519050620005f981620005ce565b92915050565b60006200060c8262000575565b9050919050565b6200061e81620005ff565b81146200062a57600080fd5b50565b6000815190506200063e8162000613565b92915050565b60008060008060008060008060006101208a8c0312156200066a576200066962000387565b5b60006200067a8c828d01620003b5565b99505060208a015167ffffffffffffffff8111156200069e576200069d6200038c565b5b620006ac8c828d0162000522565b9850506040620006bf8c828d01620003b5565b9750506060620006d28c828d01620003b5565b9650506080620006e58c828d01620003b5565b95505060a0620006f88c828d01620005a3565b94505060c06200070b8c828d01620005e8565b93505060e06200071e8c828d01620005e8565b925050610100620007328c828d016200062d565b9150509295985092959850929598565b7f4e487b7100000000000000000000000000000000000000000000000000000000600052601160045260246000fd5b60006200077e8262000391565b91506200078b8362000391565b9250827fffffffffffffffffffffffffffffffffffffffffffffffffffffffffffffffff03821115620007c357620007c262000742565b5b828201905092915050565b6000620007db8262000391565b9150620007e88362000391565b9250817fffffffffffffffffffffffffffffffffffffffffffffffffffffffffffffffff048311821515161562000824576200082362000742565b5b828202905092915050565b7f4e487b7100000000000000000000000000000000000000000000000000000000600052603260045260246000fd5b60006200086b8262000391565b91507fffffffffffffffffffffffffffffffffffffffffffffffffffffffffffffffff821415620008a157620008a062000742565b5b600182019050919050565b7f4e487b7100000000000000000000000000000000000000000000000000000000600052602260045260246000fd5b60006002820490506001821680620008f457607f821691505b602082108114156200090b576200090a620008ac565b5b50919050565b612eb080620009216000396000f3fe608060405234801561001057600080fd5b506004361061012c5760003560e01c8063939972bc116100ad578063cc538d6d11610071578063cc538d6d146102f1578063d96a094a1461030f578063dae518fa1461032b578063f851a44014610349578063ffdd5cf1146103675761012c565b8063939972bc1461025b57806394c8814414610279578063a035b1fe14610297578063a1534c1e146102b5578063c84c0387146102d35761012c565b80634a13c3c6116100f45780634a13c3c6146101b35780634b60ce77146101d15780635bc02c75146101ef5780637b739b601461020d57806386735bd31461023d5761012c565b806306fdde03146101315780630a65fb211461014f5780633013ce291461016d5780633c6974981461018b5780633ccfd60b146101a9575b600080fd5b610139610397565b6040516101469190611354565b60405180910390f35b610157610425565b604051610164919061138f565b60405180910390f35b61017561042b565b6040516101829190611429565b60405180910390f35b610193610451565b6040516101a0919061138f565b60405180910390f35b6101b1610457565b005b6101bb610829565b6040516101c89190611465565b60405180910390f35b6101d961084f565b6040516101e69190611429565b60405180910390f35b6101f7610875565b604051610204919061138f565b60405180910390f35b610227600480360381019061022291906114b1565b61087b565b604051610234919061138f565b60405180910390f35b61024561089f565b604051610252919061138f565b60405180910390f35b6102636108a5565b604051610270919061138f565b60405180910390f35b6102816108ab565b60405161028e919061160c565b60405180910390f35b61029f6108bb565b6040516102ac919061138f565b60405180910390f35b6102bd6108c1565b6040516102ca919061138f565b60405180910390f35b6102db6108c7565b6040516102e8919061138f565b60405180910390f35b6102f96108cd565b604051610306919061138f565b60405180910390f35b610329600480360381019061032491906114b1565b6108d3565b005b610333610a80565b60405161034091906116dd565b60405180910390f35b610351610ad8565b60405161035e9190611720565b60405180910390f35b610381600480360381019061037c9190611767565b610afe565b60405161038e919061160c565b60405180910390f35b600e80546103a4906117c3565b80601f01602080910402602001604051908101604052809291908181526020018280546103d0906117c3565b801561041d5780601f106103f25761010080835404028352916020019161041d565b820191906000526020600020905b81548152906001019060200180831161040057829003601f168201915b505050505081565b600a5481565b600960009054906101000a900473ffffffffffffffffffffffffffffffffffffffff1681565b600c5481565b6002600054141561049d576040517f08c379a000000000000000000000000000000000000000000000000000000000815260040161049490611841565b60405180910390fd5b600260008190555060003390506000600160008373ffffffffffffffffffffffffffffffffffffffff1673ffffffffffffffffffffffffffffffffffffffff16815260200190815260200160002090506000816001015482600001546105039190611890565b1415610544576040517f08c379a000000000000000000000000000000000000000000000000000000000815260040161053b90611936565b60405180910390fd5b6000806000600480549050905060005b8181101561062d57600481815481106105705761056f611956565b5b9060005260206000200154421192508280156105bf575084600201818154811061059d5761059c611956565b5b90600052602060002090602091828204019190069054906101000a900460ff16155b1561061a5760055485600001546105d691906119b4565b935060018560020182815481106105f0576105ef611956565b5b90600052602060002090602091828204019190066101000a81548160ff0219169083151502179055505b8080610625906119e5565b915050610554565b60008411610670576040517f08c379a000000000000000000000000000000000000000000000000000000000815260040161066790611a7a565b60405180910390fd5b838560010160008282546106849190611a9a565b9250508190555083600d546106999190611a9a565b600d81905550600860009054906101000a900473ffffffffffffffffffffffffffffffffffffffff1673ffffffffffffffffffffffffffffffffffffffff1663a9059cbb87866040518363ffffffff1660e01b81526004016106fc929190611af0565b6020604051808303816000875af115801561071b573d6000803e3d6000fd5b505050506040513d601f19601f8201168201806040525081019061073f9190611b45565b61074857600080fd5b7fa2bd9fcfcdba69f52bcd9a520846ad4bd685b187483f53efc42d035b2ddebff08685604051610779929190611af0565b60405180910390a1600260009054906101000a900473ffffffffffffffffffffffffffffffffffffffff1673ffffffffffffffffffffffffffffffffffffffff16634d40346787600f5487896002016040518563ffffffff1660e01b81526004016107e794939291906128d6565b600060405180830381600087803b15801561080157600080fd5b505af1158015610815573d6000803e3d6000fd5b505050505050505050506001600081905550565b600260009054906101000a900473ffffffffffffffffffffffffffffffffffffffff1681565b600860009054906101000a900473ffffffffffffffffffffffffffffffffffffffff1681565b600b5481565b6004818154811061088b57600080fd5b906000526020600020016000915090505481565b60065481565b600d5481565b60606108b633610afe565b905090565b60075481565b60105481565b600f5481565b60055481565b60026000541415610919576040517f08c379a000000000000000000000000000000000000000000000000000000000815260040161091090611841565b60405180910390fd5b60026000819055506000339050600a548210806109375750600b5482115b15610977576040517f08c379a000000000000000000000000000000000000000000000000000000000815260040161096e906129ba565b60405180910390fd5b6000600754670de0b6b3a76400008461099091906129da565b61099a91906119b4565b9050600960009054906101000a900473ffffffffffffffffffffffffffffffffffffffff1673ffffffffffffffffffffffffffffffffffffffff166323b872dd83600360009054906101000a900473ffffffffffffffffffffffffffffffffffffffff16866040518463ffffffff1660e01b8152600401610a1d93929190612a34565b6020604051808303816000875af1158015610a3c573d6000803e3d6000fd5b505050506040513d601f19601f82011682018060405250810190610a609190611b45565b610a6957600080fd5b610a738282610cf3565b5050600160008190555050565b60606004805480602002602001604051908101604052809291908181526020018280548015610ace57602002820191906000526020600020905b815481526020019060010190808311610aba575b5050505050905090565b600360009054906101000a900473ffffffffffffffffffffffffffffffffffffffff1681565b60606000600160008473ffffffffffffffffffffffffffffffffffffffff1673ffffffffffffffffffffffffffffffffffffffff1681526020019081526020016000209050600060048054905067ffffffffffffffff811115610b6457610b63612a6b565b5b604051908082528060200260200182016040528015610b9d57816020015b610b8a6111cc565b815260200190600190039081610b825790505b50905060008060048054905090505b80821015610ce7576005548460000154610bc691906119b4565b838381518110610bd957610bd8611956565b5b6020026020010151600001818152505060048281548110610bfd57610bfc611956565b5b9060005260206000200154838381518110610c1b57610c1a611956565b5b60200260200101516020018181525050836002018281548110610c4157610c40611956565b5b90600052602060002090602091828204019190069054906101000a900460ff16838381518110610c7457610c73611956565b5b6020026020010151604001901515908115158152505060048281548110610c9e57610c9d611956565b5b90600052602060002001544211838381518110610cbe57610cbd611956565b5b602002602001015160600190151590811515815250508180610cdf906119e5565b925050610bac565b82945050505050919050565b600860009054906101000a900473ffffffffffffffffffffffffffffffffffffffff1673ffffffffffffffffffffffffffffffffffffffff166370a08231306040518263ffffffff1660e01b8152600401610d4e9190611720565b602060405180830381865afa158015610d6b573d6000803e3d6000fd5b505050506040513d601f19601f82011682018060405250810190610d8f9190612aaf565b81600d54600c54610da09190611890565b610daa9190611a9a565b1115610deb576040517f08c379a0000000000000000000000000000000000000000000000000000000008152600401610de290612b4e565b60405180910390fd5b6000600160008473ffffffffffffffffffffffffffffffffffffffff1673ffffffffffffffffffffffffffffffffffffffff1681526020019081526020016000206000015414610e70576040517f08c379a0000000000000000000000000000000000000000000000000000000008152600401610e6790612be0565b60405180910390fd5b600060048054905067ffffffffffffffff811115610e9157610e90612a6b565b5b604051908082528060200260200182016040528015610ebf5781602001602082028036833780820191505090505b50905081600160008573ffffffffffffffffffffffffffffffffffffffff1673ffffffffffffffffffffffffffffffffffffffff1681526020019081526020016000206000016000828254610f149190611a9a565b9250508190555080600160008573ffffffffffffffffffffffffffffffffffffffff1673ffffffffffffffffffffffffffffffffffffffff1681526020019081526020016000206002019080519060200190610f719291906111f8565b5081600c54610f809190611a9a565b600c819055506000604051806101200160405280600f548152602001600e8054610fa9906117c3565b80601f0160208091040260200160405190810160405280929190818152602001828054610fd5906117c3565b80156110225780601f10610ff757610100808354040283529160200191611022565b820191906000526020600020905b81548152906001019060200180831161100557829003601f168201915b50505050508152602001848152602001600081526020016007548152602001600480548060200260200160405190810160405280929190818152602001828054801561108d57602002820191906000526020600020905b815481526020019060010190808311611079575b50505050508152602001838152602001600015158152602001600860009054906101000a900473ffffffffffffffffffffffffffffffffffffffff1673ffffffffffffffffffffffffffffffffffffffff168152509050600260009054906101000a900473ffffffffffffffffffffffffffffffffffffffff1673ffffffffffffffffffffffffffffffffffffffff1663d360086182866040518363ffffffff1660e01b8152600401611141929190612e4a565b600060405180830381600087803b15801561115b57600080fd5b505af115801561116f573d6000803e3d6000fd5b505050506001601060008282546111869190611a9a565b925050819055507ffe2ff4cf36ff7d2c2b06eb960897ee0d76d9c3e58da12feb7b93e86b226dd34484846040516111be929190611af0565b60405180910390a150505050565b604051806080016040528060008152602001600081526020016000151581526020016000151581525090565b82805482825590600052602060002090601f0160209004810192821561128d5791602002820160005b8382111561125e57835183826101000a81548160ff0219169083151502179055509260200192600101602081600001049283019260010302611221565b801561128b5782816101000a81549060ff021916905560010160208160000104928301926001030261125e565b505b50905061129a919061129e565b5090565b5b808211156112b757600081600090555060010161129f565b5090565b600081519050919050565b600082825260208201905092915050565b60005b838110156112f55780820151818401526020810190506112da565b83811115611304576000848401525b50505050565b6000601f19601f8301169050919050565b6000611326826112bb565b61133081856112c6565b93506113408185602086016112d7565b6113498161130a565b840191505092915050565b6000602082019050818103600083015261136e818461131b565b905092915050565b6000819050919050565b61138981611376565b82525050565b60006020820190506113a46000830184611380565b92915050565b600073ffffffffffffffffffffffffffffffffffffffff82169050919050565b6000819050919050565b60006113ef6113ea6113e5846113aa565b6113ca565b6113aa565b9050919050565b6000611401826113d4565b9050919050565b6000611413826113f6565b9050919050565b61142381611408565b82525050565b600060208201905061143e600083018461141a565b92915050565b600061144f826113f6565b9050919050565b61145f81611444565b82525050565b600060208201905061147a6000830184611456565b92915050565b600080fd5b61148e81611376565b811461149957600080fd5b50565b6000813590506114ab81611485565b92915050565b6000602082840312156114c7576114c6611480565b5b60006114d58482850161149c565b91505092915050565b600081519050919050565b600082825260208201905092915050565b6000819050602082019050919050565b61151381611376565b82525050565b60008115159050919050565b61152e81611519565b82525050565b60808201600082015161154a600085018261150a565b50602082015161155d602085018261150a565b5060408201516115706040850182611525565b5060608201516115836060850182611525565b50505050565b60006115958383611534565b60808301905092915050565b6000602082019050919050565b60006115b9826114de565b6115c381856114e9565b93506115ce836114fa565b8060005b838110156115ff5781516115e68882611589565b97506115f1836115a1565b9250506001810190506115d2565b5085935050505092915050565b6000602082019050818103600083015261162681846115ae565b905092915050565b600081519050919050565b600082825260208201905092915050565b6000819050602082019050919050565b6000611666838361150a565b60208301905092915050565b6000602082019050919050565b600061168a8261162e565b6116948185611639565b935061169f8361164a565b8060005b838110156116d05781516116b7888261165a565b97506116c283611672565b9250506001810190506116a3565b5085935050505092915050565b600060208201905081810360008301526116f7818461167f565b905092915050565b600061170a826113aa565b9050919050565b61171a816116ff565b82525050565b60006020820190506117356000830184611711565b92915050565b611744816116ff565b811461174f57600080fd5b50565b6000813590506117618161173b565b92915050565b60006020828403121561177d5761177c611480565b5b600061178b84828501611752565b91505092915050565b7f4e487b7100000000000000000000000000000000000000000000000000000000600052602260045260246000fd5b600060028204905060018216806117db57607f821691505b602082108114156117ef576117ee611794565b5b50919050565b7f5265656e7472616e637947756172643a207265656e7472616e742063616c6c00600082015250565b600061182b601f836112c6565b9150611836826117f5565b602082019050919050565b6000602082019050818103600083015261185a8161181e565b9050919050565b7f4e487b7100000000000000000000000000000000000000000000000000000000600052601160045260246000fd5b600061189b82611376565b91506118a683611376565b9250828210156118b9576118b8611861565b5b828203905092915050565b7f557365722068617320616c72656164792077697468647261776e20616c6c206f60008201527f662074686520746f6b656e2e0000000000000000000000000000000000000000602082015250565b6000611920602c836112c6565b915061192b826118c4565b604082019050919050565b6000602082019050818103600083015261194f81611913565b9050919050565b7f4e487b7100000000000000000000000000000000000000000000000000000000600052603260045260246000fd5b7f4e487b7100000000000000000000000000000000000000000000000000000000600052601260045260246000fd5b60006119bf82611376565b91506119ca83611376565b9250826119da576119d9611985565b5b828204905092915050565b60006119f082611376565b91507fffffffffffffffffffffffffffffffffffffffffffffffffffffffffffffffff821415611a2357611a22611861565b5b600182019050919050565b7f4e6f7468696e6720746f20776974686472617700000000000000000000000000600082015250565b6000611a646013836112c6565b9150611a6f82611a2e565b602082019050919050565b60006020820190508181036000830152611a9381611a57565b9050919050565b6000611aa582611376565b9150611ab083611376565b9250827fffffffffffffffffffffffffffffffffffffffffffffffffffffffffffffffff03821115611ae557611ae4611861565b5b828201905092915050565b6000604082019050611b056000830185611711565b611b126020830184611380565b9392505050565b611b2281611519565b8114611b2d57600080fd5b50565b600081519050611b3f81611b19565b92915050565b600060208284031215611b5b57611b5a611480565b5b6000611b6984828501611b30565b91505092915050565b600081549050919050565b600082825260208201905092915050565b60008190508160005260206000209050919050565b60008160001c9050919050565b600060ff82169050919050565b6000611bd0611bcb83611ba3565b611bb0565b9050919050565b60008160081c9050919050565b6000611bf7611bf283611bd7565b611bb0565b9050919050565b60008160101c9050919050565b6000611c1e611c1983611bfe565b611bb0565b9050919050565b60008160181c9050919050565b6000611c45611c4083611c25565b611bb0565b9050919050565b60008160201c9050919050565b6000611c6c611c6783611c4c565b611bb0565b9050919050565b60008160281c9050919050565b6000611c93611c8e83611c73565b611bb0565b9050919050565b60008160301c9050919050565b6000611cba611cb583611c9a565b611bb0565b9050919050565b60008160381c9050919050565b6000611ce1611cdc83611cc1565b611bb0565b9050919050565b60008160401c9050919050565b6000611d08611d0383611ce8565b611bb0565b9050919050565b60008160481c9050919050565b6000611d2f611d2a83611d0f565b611bb0565b9050919050565b60008160501c9050919050565b6000611d56611d5183611d36565b611bb0565b9050919050565b60008160581c9050919050565b6000611d7d611d7883611d5d565b611bb0565b9050919050565b60008160601c9050919050565b6000611da4611d9f83611d84565b611bb0565b9050919050565b60008160681c9050919050565b6000611dcb611dc683611dab565b611bb0565b9050919050565b60008160701c9050919050565b6000611df2611ded83611dd2565b611bb0565b9050919050565b60008160781c9050919050565b6000611e19611e1483611df9565b611bb0565b9050919050565b60008160801c9050919050565b6000611e40611e3b83611e20565b611bb0565b9050919050565b60008160881c9050919050565b6000611e67611e6283611e47565b611bb0565b9050919050565b60008160901c9050919050565b6000611e8e611e8983611e6e565b611bb0565b9050919050565b60008160981c9050919050565b6000611eb5611eb083611e95565b611bb0565b9050919050565b60008160a01c9050919050565b6000611edc611ed783611ebc565b611bb0565b9050919050565b60008160a81c9050919050565b6000611f03611efe83611ee3565b611bb0565b9050919050565b60008160b01c9050919050565b6000611f2a611f2583611f0a565b611bb0565b9050919050565b60008160b81c9050919050565b6000611f51611f4c83611f31565b611bb0565b9050919050565b60008160c01c9050919050565b6000611f78611f7383611f58565b611bb0565b9050919050565b60008160c81c9050919050565b6000611f9f611f9a83611f7f565b611bb0565b9050919050565b60008160d01c9050919050565b6000611fc6611fc183611fa6565b611bb0565b9050919050565b60008160d81c9050919050565b6000611fed611fe883611fcd565b611bb0565b9050919050565b60008160e01c9050919050565b600061201461200f83611ff4565b611bb0565b9050919050565b60008160e81c9050919050565b600061203b6120368361201b565b611bb0565b9050919050565b60008160f01c9050919050565b600061206261205d83612042565b611bb0565b9050919050565b60008160f81c9050919050565b600061208961208483612069565b611bb0565b9050919050565b600061209b82611b72565b6120a58185611b7d565b9350836120b184611b8e565b60006001156123de575b836001602003820110156123dd5781546120dd886120d883611bbd565b611525565b6020880197506120f5886120f083611be4565b611525565b60208801975061210d8861210883611c0b565b611525565b6020880197506121258861212083611c32565b611525565b60208801975061213d8861213883611c59565b611525565b6020880197506121558861215083611c80565b611525565b60208801975061216d8861216883611ca7565b611525565b6020880197506121858861218083611cce565b611525565b60208801975061219d8861219883611cf5565b611525565b6020880197506121b5886121b083611d1c565b611525565b6020880197506121cd886121c883611d43565b611525565b6020880197506121e5886121e083611d6a565b611525565b6020880197506121fd886121f883611d91565b611525565b6020880197506122158861221083611db8565b611525565b60208801975061222d8861222883611ddf565b611525565b6020880197506122458861224083611e06565b611525565b60208801975061225d8861225883611e2d565b611525565b6020880197506122758861227083611e54565b611525565b60208801975061228d8861228883611e7b565b611525565b6020880197506122a5886122a083611ea2565b611525565b6020880197506122bd886122b883611ec9565b611525565b6020880197506122d5886122d083611ef0565b611525565b6020880197506122ed886122e883611f17565b611525565b6020880197506123058861230083611f3e565b611525565b60208801975061231d8861231883611f65565b611525565b6020880197506123358861233083611f8c565b611525565b60208801975061234d8861234883611fb3565b611525565b6020880197506123658861236083611fda565b611525565b60208801975061237d8861237883612001565b611525565b6020880197506123958861239083612028565b611525565b6020880197506123ad886123a88361204f565b611525565b6020880197506123c5886123c083612076565b611525565b602088019750600183019250506020810190506120bb565b5b6001156128c95781548482101561240e57612401886123fc83611bbd565b611525565b6020880197506001820191505b84821015612435576124288861242383611be4565b611525565b6020880197506001820191505b8482101561245c5761244f8861244a83611c0b565b611525565b6020880197506001820191505b84821015612483576124768861247183611c32565b611525565b6020880197506001820191505b848210156124aa5761249d8861249883611c59565b611525565b6020880197506001820191505b848210156124d1576124c4886124bf83611c80565b611525565b6020880197506001820191505b848210156124f8576124eb886124e683611ca7565b611525565b6020880197506001820191505b8482101561251f576125128861250d83611cce565b611525565b6020880197506001820191505b84821015612546576125398861253483611cf5565b611525565b6020880197506001820191505b8482101561256d576125608861255b83611d1c565b611525565b6020880197506001820191505b84821015612594576125878861258283611d43565b611525565b6020880197506001820191505b848210156125bb576125ae886125a983611d6a565b611525565b6020880197506001820191505b848210156125e2576125d5886125d083611d91565b611525565b6020880197506001820191505b84821015612609576125fc886125f783611db8565b611525565b6020880197506001820191505b84821015612630576126238861261e83611ddf565b611525565b6020880197506001820191505b848210156126575761264a8861264583611e06565b611525565b6020880197506001820191505b8482101561267e576126718861266c83611e2d565b611525565b6020880197506001820191505b848210156126a5576126988861269383611e54565b611525565b6020880197506001820191505b848210156126cc576126bf886126ba83611e7b565b611525565b6020880197506001820191505b848210156126f3576126e6886126e183611ea2565b611525565b6020880197506001820191505b8482101561271a5761270d8861270883611ec9565b611525565b6020880197506001820191505b84821015612741576127348861272f83611ef0565b611525565b6020880197506001820191505b848210156127685761275b8861275683611f17565b611525565b6020880197506001820191505b8482101561278f576127828861277d83611f3e565b611525565b6020880197506001820191505b848210156127b6576127a9886127a483611f65565b611525565b6020880197506001820191505b848210156127dd576127d0886127cb83611f8c565b611525565b6020880197506001820191505b84821015612804576127f7886127f283611fb3565b611525565b6020880197506001820191505b8482101561282b5761281e8861281983611fda565b611525565b6020880197506001820191505b84821015612852576128458861284083612001565b611525565b6020880197506001820191505b848210156128795761286c8861286783612028565b611525565b6020880197506001820191505b848210156128a0576128938861288e8361204f565b611525565b6020880197506001820191505b848210156128c7576128ba886128b583612076565b611525565b6020880197506001820191505b505b8694505050505092915050565b60006080820190506128eb6000830187611711565b6128f86020830186611380565b6129056040830185611380565b81810360608301526129178184612090565b905095945050505050565b7f416d6f756e742073686f756c64206265206265747765656e206d696e696d756d60008201527f20616e64206d6178696d756d20616d6f756e74206f66207061796d656e74207460208201527f6f6b656e00000000000000000000000000000000000000000000000000000000604082015250565b60006129a46044836112c6565b91506129af82612922565b606082019050919050565b600060208201905081810360008301526129d381612997565b9050919050565b60006129e582611376565b91506129f083611376565b9250817fffffffffffffffffffffffffffffffffffffffffffffffffffffffffffffffff0483118215151615612a2957612a28611861565b5b828202905092915050565b6000606082019050612a496000830186611711565b612a566020830185611711565b612a636040830184611380565b949350505050565b7f4e487b7100000000000000000000000000000000000000000000000000000000600052604160045260246000fd5b600081519050612aa981611485565b92915050565b600060208284031215612ac557612ac4611480565b5b6000612ad384828501612a9a565b91505092915050565b7f4e6f7420656e6f75676820746f6b656e7320666f72206469737472696275746960008201527f6f6e2e0000000000000000000000000000000000000000000000000000000000602082015250565b6000612b386023836112c6565b9150612b4382612adc565b604082019050919050565b60006020820190508181036000830152612b6781612b2b565b9050919050565b7f5573657220616c72656164792070617274696369706174656420696e2074686960008201527f732073616c652e00000000000000000000000000000000000000000000000000602082015250565b6000612bca6027836112c6565b9150612bd582612b6e565b604082019050919050565b60006020820190508181036000830152612bf981612bbd565b9050919050565b600082825260208201905092915050565b6000612c1c826112bb565b612c268185612c00565b9350612c368185602086016112d7565b612c3f8161130a565b840191505092915050565b600082825260208201905092915050565b6000612c668261162e565b612c708185612c4a565b9350612c7b8361164a565b8060005b83811015612cac578151612c93888261165a565b9750612c9e83611672565b925050600181019050612c7f565b5085935050505092915050565b600081519050919050565b600082825260208201905092915050565b6000819050602082019050919050565b6000612cf18383611525565b60208301905092915050565b6000602082019050919050565b6000612d1582612cb9565b612d1f8185612cc4565b9350612d2a83612cd5565b8060005b83811015612d5b578151612d428882612ce5565b9750612d4d83612cfd565b925050600181019050612d2e565b5085935050505092915050565b612d71816116ff565b82525050565b600061012083016000830151612d90600086018261150a565b5060208301518482036020860152612da88282612c11565b9150506040830151612dbd604086018261150a565b506060830151612dd0606086018261150a565b506080830151612de3608086018261150a565b5060a083015184820360a0860152612dfb8282612c5b565b91505060c083015184820360c0860152612e158282612d0a565b91505060e0830151612e2a60e0860182611525565b50610100830151612e3f610100860182612d68565b508091505092915050565b60006040820190508181036000830152612e648185612d77565b9050612e736020830184611711565b939250505056fea26469706673582212203bae6094c276f84225ec7b43e0399464de76599a86c3014a11fe857ed75edf9e64736f6c634300080c0033",
  "immutableReferences": {},
  "source": "// !! This contract is not audited. Do not use in production!!\n\n//SPDX-License-Identifier: UNLICENSED\npragma solidity ^0.8.0;\n\n// Imports\nimport \"@openzeppelin/contracts/token/ERC20/IERC20.sol\"; // ERC20 interface\nimport \"@openzeppelin/contracts/security/ReentrancyGuard.sol\"; //  ReentrancyGuard.sol\nimport \"./Portfolio.sol\"; // Portfolio Contract\nimport \"./lib/IDO.sol\";\n\n// Errors\nerror OnlySaleAdmin();\n\ncontract Sale is ReentrancyGuard {\n    // User address to Participant struct\n    mapping(address => Participant) internal userToParticipant;\n\n    // Participant Struct\n    struct Participant {\n        uint256 vestedAmount; // Total amount of token vested\n        uint256 withdrawnAmount; // Total amount of token withdrawn\n        bool[] isPortionWithdrawn; // Array of booleans for each portion\n    }\n\n    // Infor struct for send data to front end\n    struct Info {\n        uint256 amount;\n        uint256 unlockTime;\n        bool isClaimed;\n        bool canClaim;\n    }\n\n    // Events\n    event TokenSold(address user, uint256 amount);\n    event TokenWithdrawn(address user, uint256 amount);\n    event OwnerWithdrawn(uint256 amount);\n\n    // Portfolio Contract\n    Portfolio public portfolioContract;\n\n    // Admin of sale\n    address public admin;\n\n    // Distribution Dates\n    uint256[] public distributionDates;\n\n    // Number of portions for locking\n    uint256 public numberOfPortions;\n\n    // Time between portions\n    uint256 public timeBetweenPortions;\n\n    // Price (Should be in ether)\n    uint256 public price;\n\n    // Project && Payment Token\n    IERC20 public projectToken;\n    IERC20 public paymentToken;\n\n    // Minimum distribution amount\n    uint256 public minDistributionAmount = 1 ether;\n\n    // Maximum distribution amount\n    uint256 public maxDistributionAmount = 10 ether;\n\n    // Total Token For Sale\n    uint256 public totalTokenForBuyed;\n\n    // Total Token Withdrawn\n    uint256 public totalTokenWithdrawn;\n\n    // Sale Name\n    string public name;\n\n    // Sale ID\n    uint256 public saleId;\n\n    // Number of people who bought tokens\n    uint256 public numberOfBuyers;\n\n    constructor(\n        uint256 _id,\n        string memory _name,\n        uint256 _numberOfPortion,\n        uint256 _timeBetweenPortions,\n        uint256 _price,\n        address _admin,\n        IERC20 _projectToken,\n        IERC20 _paymentToken,\n        Portfolio _portfolioContract\n    ) {\n        // Set ID of sale\n        saleId = _id;\n\n        // Set name of sale\n        name = _name;\n\n        // Setting admin\n        admin = _admin;\n\n        // Setting number of portions\n        numberOfPortions = _numberOfPortion;\n\n        // Setting time between portions\n        timeBetweenPortions = _timeBetweenPortions;\n\n        // Setting price\n        price = _price;\n\n        // Setting distribution dates\n        distributionDates = new uint256[](numberOfPortions);\n\n        uint256 index;\n        for (index; index < numberOfPortions; index++) {\n            distributionDates[index] =\n                block.timestamp +\n                (index + 1) *\n                timeBetweenPortions;\n        }\n\n        // Setting project && payment token\n        projectToken = _projectToken;\n        paymentToken = _paymentToken;\n\n        // Setting portfolio contract\n        portfolioContract = _portfolioContract;\n    }\n\n    // Modifier\n    // Only Sale Admin Modifier\n    modifier onlySaleAdmin() {\n        if (msg.sender != admin) {\n            revert OnlySaleAdmin();\n        }\n        _;\n    }\n\n    // TODO => Setter function for admin\n\n    function buy(uint256 amountInPaymentToken) external nonReentrant {\n        // Local variable for msg.sender\n        address user = msg.sender;\n\n        // Distribution amount should be between minimum and maximum amount of payment token\n        if (\n            amountInPaymentToken < minDistributionAmount ||\n            amountInPaymentToken > maxDistributionAmount\n        ) {\n            revert(\n                \"Amount should be between minimum and maximum amount of payment token\"\n            );\n        }\n\n        // Amount of project token\n        uint256 amountOfProjectToken = (amountInPaymentToken * 10**18) / price;\n\n        require(paymentToken.transferFrom(user, admin, amountInPaymentToken));\n\n        updateParticipant(user, amountOfProjectToken);\n    }\n\n    // Internal function for update participant\n    function updateParticipant(address participant, uint256 amount) internal {\n        // Contract should have enough token for distribution\n        require(\n            totalTokenForBuyed - totalTokenWithdrawn + amount <=\n                projectToken.balanceOf(address(this)),\n            \"Not enough tokens for distribution.\"\n        );\n\n        // Every user can only buy once\n        require(\n            userToParticipant[participant].vestedAmount == 0,\n            \"User already participated in this sale.\"\n        );\n\n        bool[] memory isPortionWithdrawn = new bool[](distributionDates.length);\n\n        // Update participant struct in mapping\n        userToParticipant[participant].vestedAmount += amount;\n        userToParticipant[participant].isPortionWithdrawn = isPortionWithdrawn;\n\n        // Update total token buyed variable\n        totalTokenForBuyed = totalTokenForBuyed + amount;\n\n        // Memory variable for investment\n        IDOLib.Investment memory _invesment = IDOLib.Investment(\n            saleId,\n            name,\n            amount,\n            0,\n            price,\n            distributionDates,\n            isPortionWithdrawn,\n            false,\n            address(projectToken)\n        );\n\n        // Add investment to portfolio\n        portfolioContract.addPortfolio(_invesment, participant);\n\n        numberOfBuyers += 1;\n\n        // Emit token sold event\n        emit TokenSold(participant, amount);\n    }\n\n    function withdraw() public nonReentrant {\n        // Local variable user for msg.sender\n        address user = msg.sender;\n\n        // Local variable for participant struct\n        Participant storage participant = userToParticipant[user];\n\n        // User should not have withdrawn all of the token\n        require(\n            participant.vestedAmount - participant.withdrawnAmount != 0,\n            \"User has already withdrawn all of the token.\"\n        );\n\n        // Local Variables\n        uint256 withdrawAmount;\n\n        bool isPortionUnlocked;\n        uint256 length = distributionDates.length; // For Gas Optimization\n\n        uint256 index;\n        for (index; index < length; index++) {\n            isPortionUnlocked = block.timestamp > distributionDates[index];\n\n            if (isPortionUnlocked && !participant.isPortionWithdrawn[index]) {\n                withdrawAmount = participant.vestedAmount / numberOfPortions;\n                participant.isPortionWithdrawn[index] = true;\n            }\n        }\n\n        require(withdrawAmount > 0, \"Nothing to withdraw\");\n\n        // Update participant struct in mapping\n        participant.withdrawnAmount += withdrawAmount;\n\n        // Update total token withdrawn variable\n        totalTokenWithdrawn = totalTokenWithdrawn + withdrawAmount;\n\n        // Transfer token to user\n        require(projectToken.transfer(user, withdrawAmount));\n\n        // Emit token withdrawn event\n        emit TokenWithdrawn(user, withdrawAmount);\n\n        // Modify portfolio\n        portfolioContract.updatePortolio(\n            user,\n            saleId,\n            withdrawAmount,\n            participant.isPortionWithdrawn\n        );\n    }\n\n    // Get Info From User\n    function getInfo(address user) public view returns (Info[] memory) {\n        // Local variable for participant struct\n        Participant storage participant = userToParticipant[user];\n\n        // Local variable for info struct\n        Info[] memory info = new Info[](distributionDates.length);\n\n        uint256 index;\n        uint256 length = distributionDates.length;\n\n        for (index; index < length; index++) {\n            info[index].amount = (participant.vestedAmount / numberOfPortions);\n            info[index].unlockTime = distributionDates[index];\n            info[index].isClaimed = participant.isPortionWithdrawn[index];\n            info[index].canClaim = block.timestamp > distributionDates[index];\n        }\n\n        return info;\n    }\n\n    // Get Info From msg.sender\n    function getInfo__sender() external view returns (Info[] memory) {\n        return getInfo(msg.sender);\n    }\n\n    // Get distribution dates\n    function getDistributionDates() public view returns (uint256[] memory) {\n        return distributionDates;\n    }\n}\n",
  "sourcePath": "/Users/mehmetberatozturk/Documents/Github/ido-for-everyone/contracts/Sale.sol",
  "compiler": {
    "name": "solc",
    "version": "0.8.12+commit.f00d7308.Emscripten.clang"
  },
  "schemaVersion": "3.4.6",
  "updatedAt": "2022-04-30T21:25:22.083Z",
  "devdoc": {
    "kind": "dev",
    "methods": {},
    "version": 1
  },
  "userdoc": {
    "kind": "user",
    "methods": {},
    "version": 1
  }
}