{
  "contractName": "Sale",
  "abi": [
    {
      "inputs": [
        {
          "internalType": "uint256",
          "name": "_id",
          "type": "uint256"
        },
        {
          "internalType": "string",
          "name": "_name",
          "type": "string"
        },
        {
          "internalType": "uint256",
          "name": "_numberOfPortion",
          "type": "uint256"
        },
        {
          "internalType": "uint256",
          "name": "_timeBetweenPortions",
          "type": "uint256"
        },
        {
          "internalType": "uint256",
          "name": "_price",
          "type": "uint256"
        },
        {
          "internalType": "address",
          "name": "_admin",
          "type": "address"
        },
        {
          "internalType": "contract IERC20",
          "name": "_projectToken",
          "type": "address"
        },
        {
          "internalType": "contract IERC20",
          "name": "_paymentToken",
          "type": "address"
        },
        {
          "internalType": "contract Portfolio",
          "name": "_portfolioContract",
          "type": "address"
        }
      ],
      "stateMutability": "nonpayable",
      "type": "constructor"
    },
    {
      "anonymous": false,
      "inputs": [
        {
          "indexed": false,
          "internalType": "uint256",
          "name": "amount",
          "type": "uint256"
        }
      ],
      "name": "OwnerWithdrawn",
      "type": "event"
    },
    {
      "anonymous": false,
      "inputs": [
        {
          "indexed": false,
          "internalType": "address",
          "name": "user",
          "type": "address"
        },
        {
          "indexed": false,
          "internalType": "uint256",
          "name": "amount",
          "type": "uint256"
        }
      ],
      "name": "TokenSold",
      "type": "event"
    },
    {
      "anonymous": false,
      "inputs": [
        {
          "indexed": false,
          "internalType": "address",
          "name": "user",
          "type": "address"
        },
        {
          "indexed": false,
          "internalType": "uint256",
          "name": "amount",
          "type": "uint256"
        }
      ],
      "name": "TokenWithdrawn",
      "type": "event"
    },
    {
      "inputs": [],
      "name": "admin",
      "outputs": [
        {
          "internalType": "address",
          "name": "",
          "type": "address"
        }
      ],
      "stateMutability": "view",
      "type": "function"
    },
    {
      "inputs": [
        {
          "internalType": "uint256",
          "name": "",
          "type": "uint256"
        }
      ],
      "name": "distributionDates",
      "outputs": [
        {
          "internalType": "uint256",
          "name": "",
          "type": "uint256"
        }
      ],
      "stateMutability": "view",
      "type": "function"
    },
    {
      "inputs": [],
      "name": "maxDistributionAmount",
      "outputs": [
        {
          "internalType": "uint256",
          "name": "",
          "type": "uint256"
        }
      ],
      "stateMutability": "view",
      "type": "function"
    },
    {
      "inputs": [],
      "name": "minDistributionAmount",
      "outputs": [
        {
          "internalType": "uint256",
          "name": "",
          "type": "uint256"
        }
      ],
      "stateMutability": "view",
      "type": "function"
    },
    {
      "inputs": [],
      "name": "name",
      "outputs": [
        {
          "internalType": "string",
          "name": "",
          "type": "string"
        }
      ],
      "stateMutability": "view",
      "type": "function"
    },
    {
      "inputs": [],
      "name": "numberOfBuyers",
      "outputs": [
        {
          "internalType": "uint256",
          "name": "",
          "type": "uint256"
        }
      ],
      "stateMutability": "view",
      "type": "function"
    },
    {
      "inputs": [],
      "name": "numberOfPortions",
      "outputs": [
        {
          "internalType": "uint256",
          "name": "",
          "type": "uint256"
        }
      ],
      "stateMutability": "view",
      "type": "function"
    },
    {
      "inputs": [],
      "name": "paymentToken",
      "outputs": [
        {
          "internalType": "contract IERC20",
          "name": "",
          "type": "address"
        }
      ],
      "stateMutability": "view",
      "type": "function"
    },
    {
      "inputs": [],
      "name": "portfolioContract",
      "outputs": [
        {
          "internalType": "contract Portfolio",
          "name": "",
          "type": "address"
        }
      ],
      "stateMutability": "view",
      "type": "function"
    },
    {
      "inputs": [],
      "name": "price",
      "outputs": [
        {
          "internalType": "uint256",
          "name": "",
          "type": "uint256"
        }
      ],
      "stateMutability": "view",
      "type": "function"
    },
    {
      "inputs": [],
      "name": "projectToken",
      "outputs": [
        {
          "internalType": "contract IERC20",
          "name": "",
          "type": "address"
        }
      ],
      "stateMutability": "view",
      "type": "function"
    },
    {
      "inputs": [],
      "name": "saleId",
      "outputs": [
        {
          "internalType": "uint256",
          "name": "",
          "type": "uint256"
        }
      ],
      "stateMutability": "view",
      "type": "function"
    },
    {
      "inputs": [],
      "name": "timeBetweenPortions",
      "outputs": [
        {
          "internalType": "uint256",
          "name": "",
          "type": "uint256"
        }
      ],
      "stateMutability": "view",
      "type": "function"
    },
    {
      "inputs": [],
      "name": "totalTokenForBuyed",
      "outputs": [
        {
          "internalType": "uint256",
          "name": "",
          "type": "uint256"
        }
      ],
      "stateMutability": "view",
      "type": "function"
    },
    {
      "inputs": [],
      "name": "totalTokenWithdrawn",
      "outputs": [
        {
          "internalType": "uint256",
          "name": "",
          "type": "uint256"
        }
      ],
      "stateMutability": "view",
      "type": "function"
    },
    {
      "inputs": [
        {
          "internalType": "uint256",
          "name": "amountInPaymentToken",
          "type": "uint256"
        }
      ],
      "name": "buy",
      "outputs": [],
      "stateMutability": "nonpayable",
      "type": "function"
    },
    {
      "inputs": [],
      "name": "withdraw",
      "outputs": [],
      "stateMutability": "nonpayable",
      "type": "function"
    },
    {
      "inputs": [
        {
          "internalType": "address",
          "name": "user",
          "type": "address"
        }
      ],
      "name": "getInfo",
      "outputs": [
        {
          "components": [
            {
              "internalType": "uint256",
              "name": "amount",
              "type": "uint256"
            },
            {
              "internalType": "uint256",
              "name": "unlockTime",
              "type": "uint256"
            },
            {
              "internalType": "bool",
              "name": "isClaimed",
              "type": "bool"
            },
            {
              "internalType": "bool",
              "name": "canClaim",
              "type": "bool"
            }
          ],
          "internalType": "struct Sale.Info[]",
          "name": "",
          "type": "tuple[]"
        }
      ],
      "stateMutability": "view",
      "type": "function"
    },
    {
      "inputs": [],
      "name": "getInfo__sender",
      "outputs": [
        {
          "components": [
            {
              "internalType": "uint256",
              "name": "amount",
              "type": "uint256"
            },
            {
              "internalType": "uint256",
              "name": "unlockTime",
              "type": "uint256"
            },
            {
              "internalType": "bool",
              "name": "isClaimed",
              "type": "bool"
            },
            {
              "internalType": "bool",
              "name": "canClaim",
              "type": "bool"
            }
          ],
          "internalType": "struct Sale.Info[]",
          "name": "",
          "type": "tuple[]"
        }
      ],
      "stateMutability": "view",
      "type": "function"
    },
    {
      "inputs": [],
      "name": "getDistributionDates",
      "outputs": [
        {
          "internalType": "uint256[]",
          "name": "",
          "type": "uint256[]"
        }
      ],
      "stateMutability": "view",
      "type": "function"
    },
    {
      "inputs": [],
      "name": "getSaleInfo",
      "outputs": [
        {
          "internalType": "string",
          "name": "_name",
          "type": "string"
        },
        {
          "internalType": "uint256",
          "name": "id",
          "type": "uint256"
        },
        {
          "internalType": "uint256",
          "name": "_numberOfBuyers",
          "type": "uint256"
        },
        {
          "internalType": "uint256",
          "name": "_timeBetweenPortions",
          "type": "uint256"
        },
        {
          "internalType": "uint256[]",
          "name": "_distributionDates",
          "type": "uint256[]"
        },
        {
          "internalType": "address",
          "name": "_admin",
          "type": "address"
        },
        {
          "internalType": "uint256",
          "name": "_totalTokenForBuyed",
          "type": "uint256"
        },
        {
          "internalType": "uint256",
          "name": "_totalTokenWithdrawn",
          "type": "uint256"
        },
        {
          "internalType": "uint256",
          "name": "_price",
          "type": "uint256"
        },
        {
          "internalType": "address",
          "name": "_projectToken",
          "type": "address"
        }
      ],
      "stateMutability": "view",
      "type": "function"
    }
  ],
  "bytecode": "0x6080604052670de0b6b3a7640000600a55678ac7230489e80000600b553480156200002957600080fd5b5060405162003ab938038062003ab983398181016040528101906200004f919062000644565b600160008190555088600f8190555087600e9080519060200190620000769291906200027b565b5083600360006101000a81548173ffffffffffffffffffffffffffffffffffffffff021916908373ffffffffffffffffffffffffffffffffffffffff16021790555086600581905550856006819055508460078190555060055467ffffffffffffffff811115620000ec57620000eb620003e7565b5b6040519080825280602002602001820160405280156200011b5781602001602082028036833780820191505090505b5060049080519060200190620001339291906200030c565b5060005b600554811015620001a85760065460018262000154919062000771565b620001609190620007ce565b426200016d919062000771565b600482815481106200018457620001836200082f565b5b906000526020600020018190555080806200019f906200085e565b91505062000137565b83600860006101000a81548173ffffffffffffffffffffffffffffffffffffffff021916908373ffffffffffffffffffffffffffffffffffffffff16021790555082600960006101000a81548173ffffffffffffffffffffffffffffffffffffffff021916908373ffffffffffffffffffffffffffffffffffffffff16021790555081600260006101000a81548173ffffffffffffffffffffffffffffffffffffffff021916908373ffffffffffffffffffffffffffffffffffffffff1602179055505050505050505050505062000911565b8280546200028990620008db565b90600052602060002090601f016020900481019282620002ad5760008555620002f9565b82601f10620002c857805160ff1916838001178555620002f9565b82800160010185558215620002f9579182015b82811115620002f8578251825591602001919060010190620002db565b5b5090506200030891906200035e565b5090565b8280548282559060005260206000209081019282156200034b579160200282015b828111156200034a5782518255916020019190600101906200032d565b5b5090506200035a91906200035e565b5090565b5b80821115620003795760008160009055506001016200035f565b5090565b6000604051905090565b600080fd5b600080fd5b6000819050919050565b620003a68162000391565b8114620003b257600080fd5b50565b600081519050620003c6816200039b565b92915050565b600080fd5b600080fd5b6000601f19601f8301169050919050565b7f4e487b7100000000000000000000000000000000000000000000000000000000600052604160045260246000fd5b6200042182620003d6565b810181811067ffffffffffffffff82111715620004435762000442620003e7565b5b80604052505050565b6000620004586200037d565b905062000466828262000416565b919050565b600067ffffffffffffffff821115620004895762000488620003e7565b5b6200049482620003d6565b9050602081019050919050565b60005b83811015620004c1578082015181840152602081019050620004a4565b83811115620004d1576000848401525b50505050565b6000620004ee620004e8846200046b565b6200044c565b9050828152602081018484840111156200050d576200050c620003d1565b5b6200051a848285620004a1565b509392505050565b600082601f8301126200053a5762000539620003cc565b5b81516200054c848260208601620004d7565b91505092915050565b600073ffffffffffffffffffffffffffffffffffffffff82169050919050565b6000620005828262000555565b9050919050565b620005948162000575565b8114620005a057600080fd5b50565b600081519050620005b48162000589565b92915050565b6000620005c78262000575565b9050919050565b620005d981620005ba565b8114620005e557600080fd5b50565b600081519050620005f981620005ce565b92915050565b60006200060c8262000575565b9050919050565b6200061e81620005ff565b81146200062a57600080fd5b50565b6000815190506200063e8162000613565b92915050565b60008060008060008060008060006101208a8c0312156200066a576200066962000387565b5b60006200067a8c828d01620003b5565b99505060208a015167ffffffffffffffff8111156200069e576200069d6200038c565b5b620006ac8c828d0162000522565b9850506040620006bf8c828d01620003b5565b9750506060620006d28c828d01620003b5565b9650506080620006e58c828d01620003b5565b95505060a0620006f88c828d01620005a3565b94505060c06200070b8c828d01620005e8565b93505060e06200071e8c828d01620005e8565b925050610100620007328c828d016200062d565b9150509295985092959850929598565b7f4e487b7100000000000000000000000000000000000000000000000000000000600052601160045260246000fd5b60006200077e8262000391565b91506200078b8362000391565b9250827fffffffffffffffffffffffffffffffffffffffffffffffffffffffffffffffff03821115620007c357620007c262000742565b5b828201905092915050565b6000620007db8262000391565b9150620007e88362000391565b9250817fffffffffffffffffffffffffffffffffffffffffffffffffffffffffffffffff048311821515161562000824576200082362000742565b5b828202905092915050565b7f4e487b7100000000000000000000000000000000000000000000000000000000600052603260045260246000fd5b60006200086b8262000391565b91507fffffffffffffffffffffffffffffffffffffffffffffffffffffffffffffffff821415620008a157620008a062000742565b5b600182019050919050565b7f4e487b7100000000000000000000000000000000000000000000000000000000600052602260045260246000fd5b60006002820490506001821680620008f457607f821691505b602082108114156200090b576200090a620008ac565b5b50919050565b61319880620009216000396000f3fe608060405234801561001057600080fd5b50600436106101375760003560e01c8063939972bc116100b8578063cc538d6d1161007c578063cc538d6d146102fc578063d96a094a1461031a578063dae518fa14610336578063db83694c14610354578063f851a4401461037b578063ffdd5cf11461039957610137565b8063939972bc1461026657806394c8814414610284578063a035b1fe146102a2578063a1534c1e146102c0578063c84c0387146102de57610137565b80634a13c3c6116100ff5780634a13c3c6146101be5780634b60ce77146101dc5780635bc02c75146101fa5780637b739b601461021857806386735bd31461024857610137565b806306fdde031461013c5780630a65fb211461015a5780633013ce29146101785780633c697498146101965780633ccfd60b146101b4575b600080fd5b6101446103c9565b604051610151919061157d565b60405180910390f35b610162610457565b60405161016f91906115b8565b60405180910390f35b61018061045d565b60405161018d9190611652565b60405180910390f35b61019e610483565b6040516101ab91906115b8565b60405180910390f35b6101bc610489565b005b6101c6610866565b6040516101d3919061168e565b60405180910390f35b6101e461088c565b6040516101f19190611652565b60405180910390f35b6102026108b2565b60405161020f91906115b8565b60405180910390f35b610232600480360381019061022d91906116da565b6108b8565b60405161023f91906115b8565b60405180910390f35b6102506108dc565b60405161025d91906115b8565b60405180910390f35b61026e6108e2565b60405161027b91906115b8565b60405180910390f35b61028c6108e8565b6040516102999190611835565b60405180910390f35b6102aa6108f8565b6040516102b791906115b8565b60405180910390f35b6102c86108fe565b6040516102d591906115b8565b60405180910390f35b6102e6610904565b6040516102f391906115b8565b60405180910390f35b61030461090a565b60405161031191906115b8565b60405180910390f35b610334600480360381019061032f91906116da565b610910565b005b61033e610abd565b60405161034b9190611906565b60405180910390f35b61035c610b15565b6040516103729a99989796959493929190611949565b60405180910390f35b610383610c7a565b60405161039091906119f3565b60405180910390f35b6103b360048036038101906103ae9190611a3a565b610ca0565b6040516103c09190611835565b60405180910390f35b600e80546103d690611a96565b80601f016020809104026020016040519081016040528092919081815260200182805461040290611a96565b801561044f5780601f106104245761010080835404028352916020019161044f565b820191906000526020600020905b81548152906001019060200180831161043257829003601f168201915b505050505081565b600a5481565b600960009054906101000a900473ffffffffffffffffffffffffffffffffffffffff1681565b600c5481565b600260005414156104cf576040517f08c379a00000000000000000000000000000000000000000000000000000000081526004016104c690611b14565b60405180910390fd5b600260008190555060003390506000600160008373ffffffffffffffffffffffffffffffffffffffff1673ffffffffffffffffffffffffffffffffffffffff16815260200190815260200160002090506000816001015482600001546105359190611b63565b1415610576576040517f08c379a000000000000000000000000000000000000000000000000000000000815260040161056d90611c09565b60405180910390fd5b6000806000600480549050905060005b8181101561066a57600481815481106105a2576105a1611c29565b5b9060005260206000200154421192508280156105f157508460020181815481106105cf576105ce611c29565b5b90600052602060002090602091828204019190069054906101000a900460ff16155b156106575760055485600001546106089190611c87565b846106139190611cb8565b9350600185600201828154811061062d5761062c611c29565b5b90600052602060002090602091828204019190066101000a81548160ff0219169083151502179055505b808061066290611d0e565b915050610586565b600084116106ad576040517f08c379a00000000000000000000000000000000000000000000000000000000081526004016106a490611da3565b60405180910390fd5b838560010160008282546106c19190611cb8565b9250508190555083600d546106d69190611cb8565b600d81905550600860009054906101000a900473ffffffffffffffffffffffffffffffffffffffff1673ffffffffffffffffffffffffffffffffffffffff1663a9059cbb87866040518363ffffffff1660e01b8152600401610739929190611dc3565b6020604051808303816000875af1158015610758573d6000803e3d6000fd5b505050506040513d601f19601f8201168201806040525081019061077c9190611e18565b61078557600080fd5b7fa2bd9fcfcdba69f52bcd9a520846ad4bd685b187483f53efc42d035b2ddebff086856040516107b6929190611dc3565b60405180910390a1600260009054906101000a900473ffffffffffffffffffffffffffffffffffffffff1673ffffffffffffffffffffffffffffffffffffffff16634d40346787600f5487896002016040518563ffffffff1660e01b81526004016108249493929190612ba9565b600060405180830381600087803b15801561083e57600080fd5b505af1158015610852573d6000803e3d6000fd5b505050505050505050506001600081905550565b600260009054906101000a900473ffffffffffffffffffffffffffffffffffffffff1681565b600860009054906101000a900473ffffffffffffffffffffffffffffffffffffffff1681565b600b5481565b600481815481106108c857600080fd5b906000526020600020016000915090505481565b60065481565b600d5481565b60606108f333610ca0565b905090565b60075481565b60105481565b600f5481565b60055481565b60026000541415610956576040517f08c379a000000000000000000000000000000000000000000000000000000000815260040161094d90611b14565b60405180910390fd5b60026000819055506000339050600a548210806109745750600b5482115b156109b4576040517f08c379a00000000000000000000000000000000000000000000000000000000081526004016109ab90612c8d565b60405180910390fd5b6000600754670de0b6b3a7640000846109cd9190612cad565b6109d79190611c87565b9050600960009054906101000a900473ffffffffffffffffffffffffffffffffffffffff1673ffffffffffffffffffffffffffffffffffffffff166323b872dd83600360009054906101000a900473ffffffffffffffffffffffffffffffffffffffff16866040518463ffffffff1660e01b8152600401610a5a93929190612d07565b6020604051808303816000875af1158015610a79573d6000803e3d6000fd5b505050506040513d601f19601f82011682018060405250810190610a9d9190611e18565b610aa657600080fd5b610ab08282610f00565b5050600160008190555050565b60606004805480602002602001604051908101604052809291908181526020018280548015610b0b57602002820191906000526020600020905b815481526020019060010190808311610af7575b5050505050905090565b6060600080600060606000806000806000600e8054610b3390611a96565b80601f0160208091040260200160405190810160405280929190818152602001828054610b5f90611a96565b8015610bac5780601f10610b8157610100808354040283529160200191610bac565b820191906000526020600020905b815481529060010190602001808311610b8f57829003601f168201915b50505050509950600f54985060105497506004805480602002602001604051908101604052809291908181526020018280548015610c0957602002820191906000526020600020905b815481526020019060010190808311610bf5575b50505050509550600360009054906101000a900473ffffffffffffffffffffffffffffffffffffffff169450600c549350600d5492506007549150600860009054906101000a900473ffffffffffffffffffffffffffffffffffffffff169050600654965090919293949596979899565b600360009054906101000a900473ffffffffffffffffffffffffffffffffffffffff1681565b60606000600160008473ffffffffffffffffffffffffffffffffffffffff1673ffffffffffffffffffffffffffffffffffffffff1681526020019081526020016000209050600081600001541415610d4f57600067ffffffffffffffff811115610d0d57610d0c612d3e565b5b604051908082528060200260200182016040528015610d4657816020015b610d336113f5565b815260200190600190039081610d2b5790505b50915050610efb565b600060048054905067ffffffffffffffff811115610d7057610d6f612d3e565b5b604051908082528060200260200182016040528015610da957816020015b610d966113f5565b815260200190600190039081610d8e5790505b50905060008060048054905090505b80821015610ef3576005548460000154610dd29190611c87565b838381518110610de557610de4611c29565b5b6020026020010151600001818152505060048281548110610e0957610e08611c29565b5b9060005260206000200154838381518110610e2757610e26611c29565b5b60200260200101516020018181525050836002018281548110610e4d57610e4c611c29565b5b90600052602060002090602091828204019190069054906101000a900460ff16838381518110610e8057610e7f611c29565b5b6020026020010151604001901515908115158152505060048281548110610eaa57610ea9611c29565b5b90600052602060002001544211838381518110610eca57610ec9611c29565b5b602002602001015160600190151590811515815250508180610eeb90611d0e565b925050610db8565b829450505050505b919050565b600860009054906101000a900473ffffffffffffffffffffffffffffffffffffffff1673ffffffffffffffffffffffffffffffffffffffff166370a08231306040518263ffffffff1660e01b8152600401610f5b91906119f3565b602060405180830381865afa158015610f78573d6000803e3d6000fd5b505050506040513d601f19601f82011682018060405250810190610f9c9190612d82565b81600d54600c54610fad9190611b63565b610fb79190611cb8565b1115610ff8576040517f08c379a0000000000000000000000000000000000000000000000000000000008152600401610fef90612e21565b60405180910390fd5b6000600160008473ffffffffffffffffffffffffffffffffffffffff1673ffffffffffffffffffffffffffffffffffffffff168152602001908152602001600020600001541461107d576040517f08c379a000000000000000000000000000000000000000000000000000000000815260040161107490612eb3565b60405180910390fd5b600060048054905067ffffffffffffffff81111561109e5761109d612d3e565b5b6040519080825280602002602001820160405280156110cc5781602001602082028036833780820191505090505b50905081600160008573ffffffffffffffffffffffffffffffffffffffff1673ffffffffffffffffffffffffffffffffffffffff16815260200190815260200160002060000160008282546111219190611cb8565b9250508190555080600160008573ffffffffffffffffffffffffffffffffffffffff1673ffffffffffffffffffffffffffffffffffffffff168152602001908152602001600020600201908051906020019061117e929190611421565b5081600c5461118d9190611cb8565b600c819055506000604051806101400160405280600f548152602001600e80546111b690611a96565b80601f01602080910402602001604051908101604052809291908181526020018280546111e290611a96565b801561122f5780601f106112045761010080835404028352916020019161122f565b820191906000526020600020905b81548152906001019060200180831161121257829003601f168201915b50505050508152602001848152602001600081526020016007548152602001600480548060200260200160405190810160405280929190818152602001828054801561129a57602002820191906000526020600020905b815481526020019060010190808311611286575b50505050508152602001838152602001600015158152602001600860009054906101000a900473ffffffffffffffffffffffffffffffffffffffff1673ffffffffffffffffffffffffffffffffffffffff1681526020013073ffffffffffffffffffffffffffffffffffffffff168152509050600260009054906101000a900473ffffffffffffffffffffffffffffffffffffffff1673ffffffffffffffffffffffffffffffffffffffff1663739ec8f182866040518363ffffffff1660e01b815260040161136a929190613132565b600060405180830381600087803b15801561138457600080fd5b505af1158015611398573d6000803e3d6000fd5b505050506001601060008282546113af9190611cb8565b925050819055507ffe2ff4cf36ff7d2c2b06eb960897ee0d76d9c3e58da12feb7b93e86b226dd34484846040516113e7929190611dc3565b60405180910390a150505050565b604051806080016040528060008152602001600081526020016000151581526020016000151581525090565b82805482825590600052602060002090601f016020900481019282156114b65791602002820160005b8382111561148757835183826101000a81548160ff021916908315150217905550926020019260010160208160000104928301926001030261144a565b80156114b45782816101000a81549060ff0219169055600101602081600001049283019260010302611487565b505b5090506114c391906114c7565b5090565b5b808211156114e05760008160009055506001016114c8565b5090565b600081519050919050565b600082825260208201905092915050565b60005b8381101561151e578082015181840152602081019050611503565b8381111561152d576000848401525b50505050565b6000601f19601f8301169050919050565b600061154f826114e4565b61155981856114ef565b9350611569818560208601611500565b61157281611533565b840191505092915050565b600060208201905081810360008301526115978184611544565b905092915050565b6000819050919050565b6115b28161159f565b82525050565b60006020820190506115cd60008301846115a9565b92915050565b600073ffffffffffffffffffffffffffffffffffffffff82169050919050565b6000819050919050565b600061161861161361160e846115d3565b6115f3565b6115d3565b9050919050565b600061162a826115fd565b9050919050565b600061163c8261161f565b9050919050565b61164c81611631565b82525050565b60006020820190506116676000830184611643565b92915050565b60006116788261161f565b9050919050565b6116888161166d565b82525050565b60006020820190506116a3600083018461167f565b92915050565b600080fd5b6116b78161159f565b81146116c257600080fd5b50565b6000813590506116d4816116ae565b92915050565b6000602082840312156116f0576116ef6116a9565b5b60006116fe848285016116c5565b91505092915050565b600081519050919050565b600082825260208201905092915050565b6000819050602082019050919050565b61173c8161159f565b82525050565b60008115159050919050565b61175781611742565b82525050565b6080820160008201516117736000850182611733565b5060208201516117866020850182611733565b506040820151611799604085018261174e565b5060608201516117ac606085018261174e565b50505050565b60006117be838361175d565b60808301905092915050565b6000602082019050919050565b60006117e282611707565b6117ec8185611712565b93506117f783611723565b8060005b8381101561182857815161180f88826117b2565b975061181a836117ca565b9250506001810190506117fb565b5085935050505092915050565b6000602082019050818103600083015261184f81846117d7565b905092915050565b600081519050919050565b600082825260208201905092915050565b6000819050602082019050919050565b600061188f8383611733565b60208301905092915050565b6000602082019050919050565b60006118b382611857565b6118bd8185611862565b93506118c883611873565b8060005b838110156118f95781516118e08882611883565b97506118eb8361189b565b9250506001810190506118cc565b5085935050505092915050565b6000602082019050818103600083015261192081846118a8565b905092915050565b6000611933826115d3565b9050919050565b61194381611928565b82525050565b6000610140820190508181036000830152611964818d611544565b9050611973602083018c6115a9565b611980604083018b6115a9565b61198d606083018a6115a9565b818103608083015261199f81896118a8565b90506119ae60a083018861193a565b6119bb60c08301876115a9565b6119c860e08301866115a9565b6119d66101008301856115a9565b6119e461012083018461193a565b9b9a5050505050505050505050565b6000602082019050611a08600083018461193a565b92915050565b611a1781611928565b8114611a2257600080fd5b50565b600081359050611a3481611a0e565b92915050565b600060208284031215611a5057611a4f6116a9565b5b6000611a5e84828501611a25565b91505092915050565b7f4e487b7100000000000000000000000000000000000000000000000000000000600052602260045260246000fd5b60006002820490506001821680611aae57607f821691505b60208210811415611ac257611ac1611a67565b5b50919050565b7f5265656e7472616e637947756172643a207265656e7472616e742063616c6c00600082015250565b6000611afe601f836114ef565b9150611b0982611ac8565b602082019050919050565b60006020820190508181036000830152611b2d81611af1565b9050919050565b7f4e487b7100000000000000000000000000000000000000000000000000000000600052601160045260246000fd5b6000611b6e8261159f565b9150611b798361159f565b925082821015611b8c57611b8b611b34565b5b828203905092915050565b7f557365722068617320616c72656164792077697468647261776e20616c6c206f60008201527f662074686520746f6b656e2e0000000000000000000000000000000000000000602082015250565b6000611bf3602c836114ef565b9150611bfe82611b97565b604082019050919050565b60006020820190508181036000830152611c2281611be6565b9050919050565b7f4e487b7100000000000000000000000000000000000000000000000000000000600052603260045260246000fd5b7f4e487b7100000000000000000000000000000000000000000000000000000000600052601260045260246000fd5b6000611c928261159f565b9150611c9d8361159f565b925082611cad57611cac611c58565b5b828204905092915050565b6000611cc38261159f565b9150611cce8361159f565b9250827fffffffffffffffffffffffffffffffffffffffffffffffffffffffffffffffff03821115611d0357611d02611b34565b5b828201905092915050565b6000611d198261159f565b91507fffffffffffffffffffffffffffffffffffffffffffffffffffffffffffffffff821415611d4c57611d4b611b34565b5b600182019050919050565b7f4e6f7468696e6720746f20776974686472617700000000000000000000000000600082015250565b6000611d8d6013836114ef565b9150611d9882611d57565b602082019050919050565b60006020820190508181036000830152611dbc81611d80565b9050919050565b6000604082019050611dd8600083018561193a565b611de560208301846115a9565b9392505050565b611df581611742565b8114611e0057600080fd5b50565b600081519050611e1281611dec565b92915050565b600060208284031215611e2e57611e2d6116a9565b5b6000611e3c84828501611e03565b91505092915050565b600081549050919050565b600082825260208201905092915050565b60008190508160005260206000209050919050565b60008160001c9050919050565b600060ff82169050919050565b6000611ea3611e9e83611e76565b611e83565b9050919050565b60008160081c9050919050565b6000611eca611ec583611eaa565b611e83565b9050919050565b60008160101c9050919050565b6000611ef1611eec83611ed1565b611e83565b9050919050565b60008160181c9050919050565b6000611f18611f1383611ef8565b611e83565b9050919050565b60008160201c9050919050565b6000611f3f611f3a83611f1f565b611e83565b9050919050565b60008160281c9050919050565b6000611f66611f6183611f46565b611e83565b9050919050565b60008160301c9050919050565b6000611f8d611f8883611f6d565b611e83565b9050919050565b60008160381c9050919050565b6000611fb4611faf83611f94565b611e83565b9050919050565b60008160401c9050919050565b6000611fdb611fd683611fbb565b611e83565b9050919050565b60008160481c9050919050565b6000612002611ffd83611fe2565b611e83565b9050919050565b60008160501c9050919050565b600061202961202483612009565b611e83565b9050919050565b60008160581c9050919050565b600061205061204b83612030565b611e83565b9050919050565b60008160601c9050919050565b600061207761207283612057565b611e83565b9050919050565b60008160681c9050919050565b600061209e6120998361207e565b611e83565b9050919050565b60008160701c9050919050565b60006120c56120c0836120a5565b611e83565b9050919050565b60008160781c9050919050565b60006120ec6120e7836120cc565b611e83565b9050919050565b60008160801c9050919050565b600061211361210e836120f3565b611e83565b9050919050565b60008160881c9050919050565b600061213a6121358361211a565b611e83565b9050919050565b60008160901c9050919050565b600061216161215c83612141565b611e83565b9050919050565b60008160981c9050919050565b600061218861218383612168565b611e83565b9050919050565b60008160a01c9050919050565b60006121af6121aa8361218f565b611e83565b9050919050565b60008160a81c9050919050565b60006121d66121d1836121b6565b611e83565b9050919050565b60008160b01c9050919050565b60006121fd6121f8836121dd565b611e83565b9050919050565b60008160b81c9050919050565b600061222461221f83612204565b611e83565b9050919050565b60008160c01c9050919050565b600061224b6122468361222b565b611e83565b9050919050565b60008160c81c9050919050565b600061227261226d83612252565b611e83565b9050919050565b60008160d01c9050919050565b600061229961229483612279565b611e83565b9050919050565b60008160d81c9050919050565b60006122c06122bb836122a0565b611e83565b9050919050565b60008160e01c9050919050565b60006122e76122e2836122c7565b611e83565b9050919050565b60008160e81c9050919050565b600061230e612309836122ee565b611e83565b9050919050565b60008160f01c9050919050565b600061233561233083612315565b611e83565b9050919050565b60008160f81c9050919050565b600061235c6123578361233c565b611e83565b9050919050565b600061236e82611e45565b6123788185611e50565b93508361238484611e61565b60006001156126b1575b836001602003820110156126b05781546123b0886123ab83611e90565b61174e565b6020880197506123c8886123c383611eb7565b61174e565b6020880197506123e0886123db83611ede565b61174e565b6020880197506123f8886123f383611f05565b61174e565b6020880197506124108861240b83611f2c565b61174e565b6020880197506124288861242383611f53565b61174e565b6020880197506124408861243b83611f7a565b61174e565b6020880197506124588861245383611fa1565b61174e565b6020880197506124708861246b83611fc8565b61174e565b6020880197506124888861248383611fef565b61174e565b6020880197506124a08861249b83612016565b61174e565b6020880197506124b8886124b38361203d565b61174e565b6020880197506124d0886124cb83612064565b61174e565b6020880197506124e8886124e38361208b565b61174e565b602088019750612500886124fb836120b2565b61174e565b60208801975061251888612513836120d9565b61174e565b6020880197506125308861252b83612100565b61174e565b6020880197506125488861254383612127565b61174e565b6020880197506125608861255b8361214e565b61174e565b6020880197506125788861257383612175565b61174e565b6020880197506125908861258b8361219c565b61174e565b6020880197506125a8886125a3836121c3565b61174e565b6020880197506125c0886125bb836121ea565b61174e565b6020880197506125d8886125d383612211565b61174e565b6020880197506125f0886125eb83612238565b61174e565b602088019750612608886126038361225f565b61174e565b6020880197506126208861261b83612286565b61174e565b60208801975061263888612633836122ad565b61174e565b6020880197506126508861264b836122d4565b61174e565b60208801975061266888612663836122fb565b61174e565b6020880197506126808861267b83612322565b61174e565b6020880197506126988861269383612349565b61174e565b6020880197506001830192505060208101905061238e565b5b600115612b9c578154848210156126e1576126d4886126cf83611e90565b61174e565b6020880197506001820191505b84821015612708576126fb886126f683611eb7565b61174e565b6020880197506001820191505b8482101561272f576127228861271d83611ede565b61174e565b6020880197506001820191505b84821015612756576127498861274483611f05565b61174e565b6020880197506001820191505b8482101561277d576127708861276b83611f2c565b61174e565b6020880197506001820191505b848210156127a4576127978861279283611f53565b61174e565b6020880197506001820191505b848210156127cb576127be886127b983611f7a565b61174e565b6020880197506001820191505b848210156127f2576127e5886127e083611fa1565b61174e565b6020880197506001820191505b848210156128195761280c8861280783611fc8565b61174e565b6020880197506001820191505b84821015612840576128338861282e83611fef565b61174e565b6020880197506001820191505b848210156128675761285a8861285583612016565b61174e565b6020880197506001820191505b8482101561288e576128818861287c8361203d565b61174e565b6020880197506001820191505b848210156128b5576128a8886128a383612064565b61174e565b6020880197506001820191505b848210156128dc576128cf886128ca8361208b565b61174e565b6020880197506001820191505b84821015612903576128f6886128f1836120b2565b61174e565b6020880197506001820191505b8482101561292a5761291d88612918836120d9565b61174e565b6020880197506001820191505b84821015612951576129448861293f83612100565b61174e565b6020880197506001820191505b848210156129785761296b8861296683612127565b61174e565b6020880197506001820191505b8482101561299f576129928861298d8361214e565b61174e565b6020880197506001820191505b848210156129c6576129b9886129b483612175565b61174e565b6020880197506001820191505b848210156129ed576129e0886129db8361219c565b61174e565b6020880197506001820191505b84821015612a1457612a0788612a02836121c3565b61174e565b6020880197506001820191505b84821015612a3b57612a2e88612a29836121ea565b61174e565b6020880197506001820191505b84821015612a6257612a5588612a5083612211565b61174e565b6020880197506001820191505b84821015612a8957612a7c88612a7783612238565b61174e565b6020880197506001820191505b84821015612ab057612aa388612a9e8361225f565b61174e565b6020880197506001820191505b84821015612ad757612aca88612ac583612286565b61174e565b6020880197506001820191505b84821015612afe57612af188612aec836122ad565b61174e565b6020880197506001820191505b84821015612b2557612b1888612b13836122d4565b61174e565b6020880197506001820191505b84821015612b4c57612b3f88612b3a836122fb565b61174e565b6020880197506001820191505b84821015612b7357612b6688612b6183612322565b61174e565b6020880197506001820191505b84821015612b9a57612b8d88612b8883612349565b61174e565b6020880197506001820191505b505b8694505050505092915050565b6000608082019050612bbe600083018761193a565b612bcb60208301866115a9565b612bd860408301856115a9565b8181036060830152612bea8184612363565b905095945050505050565b7f416d6f756e742073686f756c64206265206265747765656e206d696e696d756d60008201527f20616e64206d6178696d756d20616d6f756e74206f66207061796d656e74207460208201527f6f6b656e00000000000000000000000000000000000000000000000000000000604082015250565b6000612c776044836114ef565b9150612c8282612bf5565b606082019050919050565b60006020820190508181036000830152612ca681612c6a565b9050919050565b6000612cb88261159f565b9150612cc38361159f565b9250817fffffffffffffffffffffffffffffffffffffffffffffffffffffffffffffffff0483118215151615612cfc57612cfb611b34565b5b828202905092915050565b6000606082019050612d1c600083018661193a565b612d29602083018561193a565b612d3660408301846115a9565b949350505050565b7f4e487b7100000000000000000000000000000000000000000000000000000000600052604160045260246000fd5b600081519050612d7c816116ae565b92915050565b600060208284031215612d9857612d976116a9565b5b6000612da684828501612d6d565b91505092915050565b7f4e6f7420656e6f75676820746f6b656e7320666f72206469737472696275746960008201527f6f6e2e0000000000000000000000000000000000000000000000000000000000602082015250565b6000612e0b6023836114ef565b9150612e1682612daf565b604082019050919050565b60006020820190508181036000830152612e3a81612dfe565b9050919050565b7f5573657220616c72656164792070617274696369706174656420696e2074686960008201527f732073616c652e00000000000000000000000000000000000000000000000000602082015250565b6000612e9d6027836114ef565b9150612ea882612e41565b604082019050919050565b60006020820190508181036000830152612ecc81612e90565b9050919050565b600082825260208201905092915050565b6000612eef826114e4565b612ef98185612ed3565b9350612f09818560208601611500565b612f1281611533565b840191505092915050565b600082825260208201905092915050565b6000612f3982611857565b612f438185612f1d565b9350612f4e83611873565b8060005b83811015612f7f578151612f668882611883565b9750612f718361189b565b925050600181019050612f52565b5085935050505092915050565b600081519050919050565b600082825260208201905092915050565b6000819050602082019050919050565b6000612fc4838361174e565b60208301905092915050565b6000602082019050919050565b6000612fe882612f8c565b612ff28185612f97565b9350612ffd83612fa8565b8060005b8381101561302e5781516130158882612fb8565b975061302083612fd0565b925050600181019050613001565b5085935050505092915050565b61304481611928565b82525050565b6000610140830160008301516130636000860182611733565b506020830151848203602086015261307b8282612ee4565b91505060408301516130906040860182611733565b5060608301516130a36060860182611733565b5060808301516130b66080860182611733565b5060a083015184820360a08601526130ce8282612f2e565b91505060c083015184820360c08601526130e88282612fdd565b91505060e08301516130fd60e086018261174e565b5061010083015161311261010086018261303b565b5061012083015161312761012086018261303b565b508091505092915050565b6000604082019050818103600083015261314c818561304a565b905061315b602083018461193a565b939250505056fea2646970667358221220f56566c6c982115926a220051152a443d9efaa2be985c209a94293b38038c0e764736f6c634300080c0033",
  "immutableReferences": {},
  "source": "// !! This contract is not audited. Do not use in production!!\n\n//SPDX-License-Identifier: UNLICENSED\npragma solidity ^0.8.0;\n\n// Imports\nimport \"@openzeppelin/contracts/token/ERC20/IERC20.sol\"; // ERC20 interface\nimport \"@openzeppelin/contracts/security/ReentrancyGuard.sol\"; //  ReentrancyGuard.sol\nimport \"./Portfolio.sol\"; // Portfolio Contract\nimport \"./lib/IDO.sol\";\n\n// Errors\nerror OnlySaleAdmin();\n\ncontract Sale is ReentrancyGuard {\n    // User address to Participant struct\n    mapping(address => Participant) internal userToParticipant;\n\n    // Participant Struct\n    struct Participant {\n        uint256 vestedAmount; // Total amount of token vested\n        uint256 withdrawnAmount; // Total amount of token withdrawn\n        bool[] isPortionWithdrawn; // Array of booleans for each portion\n    }\n\n    // Info struct for send data to front end\n    struct Info {\n        uint256 amount;\n        uint256 unlockTime;\n        bool isClaimed;\n        bool canClaim;\n    }\n\n    // Events\n    event TokenSold(address user, uint256 amount);\n    event TokenWithdrawn(address user, uint256 amount);\n    event OwnerWithdrawn(uint256 amount);\n\n    // Portfolio Contract\n    Portfolio public portfolioContract;\n\n    // Admin of sale\n    address public admin;\n\n    // Distribution Dates\n    uint256[] public distributionDates;\n\n    // Number of portions for locking\n    uint256 public numberOfPortions;\n\n    // Time between portions\n    uint256 public timeBetweenPortions;\n\n    // Price (Should be in ether)\n    uint256 public price;\n\n    // Project && Payment Token\n    IERC20 public projectToken;\n    IERC20 public paymentToken;\n\n    // Minimum distribution amount\n    uint256 public minDistributionAmount = 1 ether;\n\n    // Maximum distribution amount\n    uint256 public maxDistributionAmount = 10 ether;\n\n    // Total Token For Sale\n    uint256 public totalTokenForBuyed;\n\n    // Total Token Withdrawn\n    uint256 public totalTokenWithdrawn;\n\n    // Sale Name\n    string public name;\n\n    // Sale ID\n    uint256 public saleId;\n\n    // Number of people who bought tokens\n    uint256 public numberOfBuyers;\n\n    constructor(\n        uint256 _id,\n        string memory _name,\n        uint256 _numberOfPortion,\n        uint256 _timeBetweenPortions,\n        uint256 _price,\n        address _admin,\n        IERC20 _projectToken,\n        IERC20 _paymentToken,\n        Portfolio _portfolioContract\n    ) {\n        // Set ID of sale\n        saleId = _id;\n\n        // Set name of sale\n        name = _name;\n\n        // Setting admin\n        admin = _admin;\n\n        // Setting number of portions\n        numberOfPortions = _numberOfPortion;\n\n        // Setting time between portions\n        timeBetweenPortions = _timeBetweenPortions;\n\n        // Setting price\n        price = _price;\n\n        // Setting distribution dates\n        distributionDates = new uint256[](numberOfPortions);\n\n        uint256 index;\n        for (index; index < numberOfPortions; index++) {\n            distributionDates[index] =\n                block.timestamp +\n                (index + 1) *\n                timeBetweenPortions;\n        }\n\n        // Setting project && payment token\n        projectToken = _projectToken;\n        paymentToken = _paymentToken;\n\n        // Setting portfolio contract\n        portfolioContract = _portfolioContract;\n    }\n\n    // Modifier\n    // Only Sale Admin Modifier\n    modifier onlySaleAdmin() {\n        if (msg.sender != admin) {\n            revert OnlySaleAdmin();\n        }\n        _;\n    }\n\n    // TODO => Setter function for admin\n\n    function buy(uint256 amountInPaymentToken) external nonReentrant {\n        // Local variable for msg.sender\n        address user = msg.sender;\n\n        // Distribution amount should be between minimum and maximum amount of payment token\n        if (\n            amountInPaymentToken < minDistributionAmount ||\n            amountInPaymentToken > maxDistributionAmount\n        ) {\n            revert(\n                \"Amount should be between minimum and maximum amount of payment token\"\n            );\n        }\n\n        // Amount of project token\n        uint256 amountOfProjectToken = (amountInPaymentToken * 10**18) / price;\n\n        require(paymentToken.transferFrom(user, admin, amountInPaymentToken));\n\n        updateParticipant(user, amountOfProjectToken);\n    }\n\n    // Internal function for update participant\n    function updateParticipant(address participant, uint256 amount) internal {\n        // Contract should have enough token for distribution\n        require(\n            totalTokenForBuyed - totalTokenWithdrawn + amount <=\n                projectToken.balanceOf(address(this)),\n            \"Not enough tokens for distribution.\"\n        );\n\n        // Every user can only buy once\n        require(\n            userToParticipant[participant].vestedAmount == 0,\n            \"User already participated in this sale.\"\n        );\n\n        bool[] memory isPortionWithdrawn = new bool[](distributionDates.length);\n\n        // Update participant struct in mapping\n        userToParticipant[participant].vestedAmount += amount;\n        userToParticipant[participant].isPortionWithdrawn = isPortionWithdrawn;\n\n        // Update total token buyed variable\n        totalTokenForBuyed = totalTokenForBuyed + amount;\n\n        // Memory variable for investment\n        IDOLib.Investment memory _invesment = IDOLib.Investment(\n            saleId,\n            name,\n            amount,\n            0,\n            price,\n            distributionDates,\n            isPortionWithdrawn,\n            false,\n            address(projectToken),\n            address(this)\n        );\n\n        // Add investment to portfolio\n        portfolioContract.addPortfolio(_invesment, participant);\n\n        numberOfBuyers += 1;\n\n        // Emit token sold event\n        emit TokenSold(participant, amount);\n    }\n\n    function withdraw() public nonReentrant {\n        // Local variable user for msg.sender\n        address user = msg.sender;\n\n        // Local variable for participant struct\n        Participant storage participant = userToParticipant[user];\n\n        // User should not have withdrawn all of the token\n        require(\n            participant.vestedAmount - participant.withdrawnAmount != 0,\n            \"User has already withdrawn all of the token.\"\n        );\n\n        // Local Variables\n        uint256 withdrawAmount;\n\n        bool isPortionUnlocked;\n        uint256 length = distributionDates.length; // For Gas Optimization\n\n        uint256 index;\n        for (index; index < length; index++) {\n            isPortionUnlocked = block.timestamp > distributionDates[index];\n\n            if (isPortionUnlocked && !participant.isPortionWithdrawn[index]) {\n                withdrawAmount += participant.vestedAmount / numberOfPortions;\n                participant.isPortionWithdrawn[index] = true;\n            }\n        }\n\n        require(withdrawAmount > 0, \"Nothing to withdraw\");\n\n        // Update participant struct in mapping\n        participant.withdrawnAmount += withdrawAmount;\n\n        // Update total token withdrawn variable\n        totalTokenWithdrawn = totalTokenWithdrawn + withdrawAmount;\n\n        // Transfer token to user\n        require(projectToken.transfer(user, withdrawAmount));\n\n        // Emit token withdrawn event\n        emit TokenWithdrawn(user, withdrawAmount);\n\n        // Modify portfolio\n        portfolioContract.updatePortolio(\n            user,\n            saleId,\n            withdrawAmount,\n            participant.isPortionWithdrawn\n        );\n    }\n\n    // Get Info From User\n    function getInfo(address user) public view returns (Info[] memory) {\n        // Local variable for participant struct\n        Participant storage participant = userToParticipant[user];\n\n        if (participant.vestedAmount == 0) {\n            return new Info[](0);\n        }\n\n        // Local variable for info struct\n        Info[] memory info = new Info[](distributionDates.length);\n\n        uint256 index;\n        uint256 length = distributionDates.length;\n\n        for (index; index < length; index++) {\n            info[index].amount = (participant.vestedAmount / numberOfPortions);\n            info[index].unlockTime = distributionDates[index];\n            info[index].isClaimed = participant.isPortionWithdrawn[index];\n            info[index].canClaim = block.timestamp > distributionDates[index];\n        }\n\n        return info;\n    }\n\n    // Get Info From msg.sender\n    function getInfo__sender() external view returns (Info[] memory) {\n        return getInfo(msg.sender);\n    }\n\n    // Get distribution dates\n    function getDistributionDates() public view returns (uint256[] memory) {\n        return distributionDates;\n    }\n\n    // Getter function for sale information\n    function getSaleInfo()\n        public\n        view\n        returns (\n            string memory _name,\n            uint256 id,\n            uint256 _numberOfBuyers,\n            uint256 _timeBetweenPortions,\n            uint256[] memory _distributionDates,\n            address _admin,\n            uint256 _totalTokenForBuyed,\n            uint256 _totalTokenWithdrawn,\n            uint256 _price,\n            address _projectToken\n        )\n    {\n        _name = name;\n        id = saleId;\n        _numberOfBuyers = numberOfBuyers;\n        _distributionDates = distributionDates;\n        _admin = admin;\n        _totalTokenForBuyed = totalTokenForBuyed;\n        _totalTokenWithdrawn = totalTokenWithdrawn;\n        _price = price;\n        _projectToken = address(projectToken);\n        _timeBetweenPortions = timeBetweenPortions;\n    }\n}\n",
  "sourcePath": "/Users/mehmetberatozturk/Documents/Github/ido-for-everyone/contracts/Sale.sol",
  "compiler": {
    "name": "solc",
    "version": "0.8.12+commit.f00d7308.Emscripten.clang"
  },
  "schemaVersion": "3.4.6",
  "updatedAt": "2022-05-07T22:03:44.429Z",
  "devdoc": {
    "kind": "dev",
    "methods": {},
    "version": 1
  },
  "userdoc": {
    "kind": "user",
    "methods": {},
    "version": 1
  }
}