{
  "contractName": "TokenCreator",
  "abi": [
    {
      "inputs": [
        {
          "internalType": "contract Portfolio",
          "name": "_contract",
          "type": "address"
        }
      ],
      "stateMutability": "nonpayable",
      "type": "constructor"
    },
    {
      "anonymous": false,
      "inputs": [
        {
          "indexed": true,
          "internalType": "address",
          "name": "previousOwner",
          "type": "address"
        },
        {
          "indexed": true,
          "internalType": "address",
          "name": "newOwner",
          "type": "address"
        }
      ],
      "name": "OwnershipTransferred",
      "type": "event"
    },
    {
      "anonymous": false,
      "inputs": [
        {
          "components": [
            {
              "internalType": "string",
              "name": "name",
              "type": "string"
            },
            {
              "internalType": "string",
              "name": "symbol",
              "type": "string"
            },
            {
              "internalType": "uint256",
              "name": "totalSupply",
              "type": "uint256"
            },
            {
              "internalType": "address",
              "name": "tokenAddress",
              "type": "address"
            }
          ],
          "indexed": false,
          "internalType": "struct IDOLib.ERC20",
          "name": "infoToken",
          "type": "tuple"
        }
      ],
      "name": "TokenCreated",
      "type": "event"
    },
    {
      "inputs": [],
      "name": "COOLDOWN_TIME",
      "outputs": [
        {
          "internalType": "uint256",
          "name": "",
          "type": "uint256"
        }
      ],
      "stateMutability": "view",
      "type": "function",
      "constant": true
    },
    {
      "inputs": [],
      "name": "MAX_AMOUNT",
      "outputs": [
        {
          "internalType": "uint256",
          "name": "",
          "type": "uint256"
        }
      ],
      "stateMutability": "view",
      "type": "function",
      "constant": true
    },
    {
      "inputs": [],
      "name": "owner",
      "outputs": [
        {
          "internalType": "address",
          "name": "",
          "type": "address"
        }
      ],
      "stateMutability": "view",
      "type": "function",
      "constant": true
    },
    {
      "inputs": [],
      "name": "portfolioContract",
      "outputs": [
        {
          "internalType": "contract Portfolio",
          "name": "",
          "type": "address"
        }
      ],
      "stateMutability": "view",
      "type": "function",
      "constant": true
    },
    {
      "inputs": [],
      "name": "renounceOwnership",
      "outputs": [],
      "stateMutability": "nonpayable",
      "type": "function"
    },
    {
      "inputs": [
        {
          "internalType": "address",
          "name": "newOwner",
          "type": "address"
        }
      ],
      "name": "transferOwnership",
      "outputs": [],
      "stateMutability": "nonpayable",
      "type": "function"
    },
    {
      "inputs": [],
      "name": "getMyTokens",
      "outputs": [
        {
          "components": [
            {
              "internalType": "string",
              "name": "name",
              "type": "string"
            },
            {
              "internalType": "string",
              "name": "symbol",
              "type": "string"
            },
            {
              "internalType": "uint256",
              "name": "totalSupply",
              "type": "uint256"
            },
            {
              "internalType": "address",
              "name": "tokenAddress",
              "type": "address"
            }
          ],
          "internalType": "struct IDOLib.ERC20[]",
          "name": "",
          "type": "tuple[]"
        }
      ],
      "stateMutability": "view",
      "type": "function",
      "constant": true
    },
    {
      "inputs": [
        {
          "internalType": "string",
          "name": "name",
          "type": "string"
        },
        {
          "internalType": "string",
          "name": "symbol",
          "type": "string"
        },
        {
          "internalType": "uint256",
          "name": "totalSupply",
          "type": "uint256"
        }
      ],
      "name": "createToken",
      "outputs": [],
      "stateMutability": "nonpayable",
      "type": "function"
    },
    {
      "inputs": [],
      "name": "getMyCooldown",
      "outputs": [
        {
          "internalType": "uint256",
          "name": "",
          "type": "uint256"
        }
      ],
      "stateMutability": "view",
      "type": "function",
      "constant": true
    },
    {
      "inputs": [
        {
          "internalType": "contract Portfolio",
          "name": "_contract",
          "type": "address"
        }
      ],
      "name": "setPortfolioContract",
      "outputs": [],
      "stateMutability": "nonpayable",
      "type": "function"
    }
  ],
  "bytecode": "0x60806040523480156200001157600080fd5b5060405162003461380380620034618339818101604052810190620000379190620001e9565b620000576200004b6200009f60201b60201c565b620000a760201b60201c565b80600160006101000a81548173ffffffffffffffffffffffffffffffffffffffff021916908373ffffffffffffffffffffffffffffffffffffffff160217905550506200021b565b600033905090565b60008060009054906101000a900473ffffffffffffffffffffffffffffffffffffffff169050816000806101000a81548173ffffffffffffffffffffffffffffffffffffffff021916908373ffffffffffffffffffffffffffffffffffffffff1602179055508173ffffffffffffffffffffffffffffffffffffffff168173ffffffffffffffffffffffffffffffffffffffff167f8be0079c531659141344cd1fd0a4f28419497f9722a3daafe3b4186f6b6457e060405160405180910390a35050565b600080fd5b600073ffffffffffffffffffffffffffffffffffffffff82169050919050565b60006200019d8262000170565b9050919050565b6000620001b18262000190565b9050919050565b620001c381620001a4565b8114620001cf57600080fd5b50565b600081519050620001e381620001b8565b92915050565b6000602082840312156200020257620002016200016b565b5b60006200021284828501620001d2565b91505092915050565b613236806200022b6000396000f3fe60806040523480156200001157600080fd5b5060043610620000ac5760003560e01c80637d263245116200006f5780637d26324514620001415780638da5cb5b1462000163578063bb69e95a1462000185578063d40dc87014620001a7578063f2fde38b14620001c957620000ac565b806327fda0d614620000b15780634a13c3c614620000d15780635b06053014620000f35780635b3b136a1462000113578063715018a61462000135575b600080fd5b620000cf6004803603810190620000c9919062000d0e565b620001e9565b005b620000db620002b0565b604051620000ea919062000dab565b60405180910390f35b6200011160048036038101906200010b919062000f65565b620002d6565b005b6200011d6200068d565b6040516200012c9190620011f6565b60405180910390f35b6200013f620008bf565b005b6200014b62000950565b6040516200015a91906200122b565b60405180910390f35b6200016d62000956565b6040516200017c919062001259565b60405180910390f35b6200018f6200097f565b6040516200019e91906200122b565b60405180910390f35b620001b1620009ee565b604051620001c091906200122b565b60405180910390f35b620001e76004803603810190620001e19190620012a7565b620009f3565b005b620001f362000af7565b73ffffffffffffffffffffffffffffffffffffffff166200021362000956565b73ffffffffffffffffffffffffffffffffffffffff16146200026c576040517f08c379a000000000000000000000000000000000000000000000000000000000815260040162000263906200133a565b60405180910390fd5b80600160006101000a81548173ffffffffffffffffffffffffffffffffffffffff021916908373ffffffffffffffffffffffffffffffffffffffff16021790555050565b600160009054906101000a900473ffffffffffffffffffffffffffffffffffffffff1681565b600360003373ffffffffffffffffffffffffffffffffffffffff1673ffffffffffffffffffffffffffffffffffffffff168152602001908152602001600020544210156200035b576040517f08c379a00000000000000000000000000000000000000000000000000000000081526004016200035290620013ac565b60405180910390fd5b6005600260003373ffffffffffffffffffffffffffffffffffffffff1673ffffffffffffffffffffffffffffffffffffffff1681526020019081526020016000208054905010620003e3576040517f08c379a0000000000000000000000000000000000000000000000000000000008152600401620003da9062001444565b60405180910390fd5b600083838333604051620003f79062000bc3565b620004069493929190620014a7565b604051809103906000f08015801562000423573d6000803e3d6000fd5b5090506000819050600060405180608001604052808781526020018681526020018581526020018373ffffffffffffffffffffffffffffffffffffffff168152509050600260003373ffffffffffffffffffffffffffffffffffffffff1673ffffffffffffffffffffffffffffffffffffffff1681526020019081526020016000208190806001815401808255809150506001900390600052602060002090600402016000909190919091506000820151816000019080519060200190620004ed92919062000bd1565b5060208201518160010190805190602001906200050c92919062000bd1565b506040820151816002015560608201518160030160006101000a81548173ffffffffffffffffffffffffffffffffffffffff021916908373ffffffffffffffffffffffffffffffffffffffff1602179055505050600160009054906101000a900473ffffffffffffffffffffffffffffffffffffffff1673ffffffffffffffffffffffffffffffffffffffff16632f3af0a633888888876040518663ffffffff1660e01b8152600401620005c595949392919062001502565b600060405180830381600087803b158015620005e057600080fd5b505af1158015620005f5573d6000803e3d6000fd5b50505050610258426200060991906200159c565b600360003373ffffffffffffffffffffffffffffffffffffffff1673ffffffffffffffffffffffffffffffffffffffff168152602001908152602001600020819055507f075a2807ecf2e770d44aae1cfce7604675551662e1958cb2a5636d6fe7eba78a816040516200067d91906200166b565b60405180910390a1505050505050565b6060600260003373ffffffffffffffffffffffffffffffffffffffff1673ffffffffffffffffffffffffffffffffffffffff168152602001908152602001600020805480602002602001604051908101604052809291908181526020016000905b82821015620008b657838290600052602060002090600402016040518060800160405290816000820180546200072490620016be565b80601f01602080910402602001604051908101604052809291908181526020018280546200075290620016be565b8015620007a35780601f106200077757610100808354040283529160200191620007a3565b820191906000526020600020905b8154815290600101906020018083116200078557829003601f168201915b50505050508152602001600182018054620007be90620016be565b80601f0160208091040260200160405190810160405280929190818152602001828054620007ec90620016be565b80156200083d5780601f1062000811576101008083540402835291602001916200083d565b820191906000526020600020905b8154815290600101906020018083116200081f57829003601f168201915b50505050508152602001600282015481526020016003820160009054906101000a900473ffffffffffffffffffffffffffffffffffffffff1673ffffffffffffffffffffffffffffffffffffffff1673ffffffffffffffffffffffffffffffffffffffff168152505081526020019060010190620006ee565b50505050905090565b620008c962000af7565b73ffffffffffffffffffffffffffffffffffffffff16620008e962000956565b73ffffffffffffffffffffffffffffffffffffffff161462000942576040517f08c379a000000000000000000000000000000000000000000000000000000000815260040162000939906200133a565b60405180910390fd5b6200094e600062000aff565b565b61025881565b60008060009054906101000a900473ffffffffffffffffffffffffffffffffffffffff16905090565b600080600360003373ffffffffffffffffffffffffffffffffffffffff1673ffffffffffffffffffffffffffffffffffffffff1681526020019081526020016000205490506000811415620009d9576000915050620009eb565b4281620009e79190620016f4565b9150505b90565b600581565b620009fd62000af7565b73ffffffffffffffffffffffffffffffffffffffff1662000a1d62000956565b73ffffffffffffffffffffffffffffffffffffffff161462000a76576040517f08c379a000000000000000000000000000000000000000000000000000000000815260040162000a6d906200133a565b60405180910390fd5b600073ffffffffffffffffffffffffffffffffffffffff168173ffffffffffffffffffffffffffffffffffffffff16141562000ae9576040517f08c379a000000000000000000000000000000000000000000000000000000000815260040162000ae090620017a5565b60405180910390fd5b62000af48162000aff565b50565b600033905090565b60008060009054906101000a900473ffffffffffffffffffffffffffffffffffffffff169050816000806101000a81548173ffffffffffffffffffffffffffffffffffffffff021916908373ffffffffffffffffffffffffffffffffffffffff1602179055508173ffffffffffffffffffffffffffffffffffffffff168173ffffffffffffffffffffffffffffffffffffffff167f8be0079c531659141344cd1fd0a4f28419497f9722a3daafe3b4186f6b6457e060405160405180910390a35050565b611a3980620017c883390190565b82805462000bdf90620016be565b90600052602060002090601f01602090048101928262000c03576000855562000c4f565b82601f1062000c1e57805160ff191683800117855562000c4f565b8280016001018555821562000c4f579182015b8281111562000c4e57825182559160200191906001019062000c31565b5b50905062000c5e919062000c62565b5090565b5b8082111562000c7d57600081600090555060010162000c63565b5090565b6000604051905090565b600080fd5b600080fd5b600073ffffffffffffffffffffffffffffffffffffffff82169050919050565b600062000cc28262000c95565b9050919050565b600062000cd68262000cb5565b9050919050565b62000ce88162000cc9565b811462000cf457600080fd5b50565b60008135905062000d088162000cdd565b92915050565b60006020828403121562000d275762000d2662000c8b565b5b600062000d378482850162000cf7565b91505092915050565b6000819050919050565b600062000d6b62000d6562000d5f8462000c95565b62000d40565b62000c95565b9050919050565b600062000d7f8262000d4a565b9050919050565b600062000d938262000d72565b9050919050565b62000da58162000d86565b82525050565b600060208201905062000dc2600083018462000d9a565b92915050565b600080fd5b600080fd5b6000601f19601f8301169050919050565b7f4e487b7100000000000000000000000000000000000000000000000000000000600052604160045260246000fd5b62000e1d8262000dd2565b810181811067ffffffffffffffff8211171562000e3f5762000e3e62000de3565b5b80604052505050565b600062000e5462000c81565b905062000e62828262000e12565b919050565b600067ffffffffffffffff82111562000e855762000e8462000de3565b5b62000e908262000dd2565b9050602081019050919050565b82818337600083830152505050565b600062000ec362000ebd8462000e67565b62000e48565b90508281526020810184848401111562000ee25762000ee162000dcd565b5b62000eef84828562000e9d565b509392505050565b600082601f83011262000f0f5762000f0e62000dc8565b5b813562000f2184826020860162000eac565b91505092915050565b6000819050919050565b62000f3f8162000f2a565b811462000f4b57600080fd5b50565b60008135905062000f5f8162000f34565b92915050565b60008060006060848603121562000f815762000f8062000c8b565b5b600084013567ffffffffffffffff81111562000fa25762000fa162000c90565b5b62000fb08682870162000ef7565b935050602084013567ffffffffffffffff81111562000fd45762000fd362000c90565b5b62000fe28682870162000ef7565b925050604062000ff58682870162000f4e565b9150509250925092565b600081519050919050565b600082825260208201905092915050565b6000819050602082019050919050565b600081519050919050565b600082825260208201905092915050565b60005b83811015620010675780820151818401526020810190506200104a565b8381111562001077576000848401525b50505050565b60006200108a826200102b565b62001096818562001036565b9350620010a881856020860162001047565b620010b38162000dd2565b840191505092915050565b620010c98162000f2a565b82525050565b620010da8162000cb5565b82525050565b60006080830160008301518482036000860152620010ff82826200107d565b915050602083015184820360208601526200111b82826200107d565b9150506040830151620011326040860182620010be565b506060830151620011476060860182620010cf565b508091505092915050565b6000620011608383620010e0565b905092915050565b6000602082019050919050565b6000620011828262000fff565b6200118e81856200100a565b935083602082028501620011a2856200101b565b8060005b85811015620011e45784840389528151620011c2858262001152565b9450620011cf8362001168565b925060208a01995050600181019050620011a6565b50829750879550505050505092915050565b6000602082019050818103600083015262001212818462001175565b905092915050565b620012258162000f2a565b82525050565b60006020820190506200124260008301846200121a565b92915050565b620012538162000cb5565b82525050565b600060208201905062001270600083018462001248565b92915050565b620012818162000cb5565b81146200128d57600080fd5b50565b600081359050620012a18162001276565b92915050565b600060208284031215620012c057620012bf62000c8b565b5b6000620012d08482850162001290565b91505092915050565b600082825260208201905092915050565b7f4f776e61626c653a2063616c6c6572206973206e6f7420746865206f776e6572600082015250565b600062001322602083620012d9565b91506200132f82620012ea565b602082019050919050565b60006020820190508181036000830152620013558162001313565b9050919050565b7f546f6b656e206372656174696f6e206973206f6e20636f6f6c646f776e000000600082015250565b600062001394601d83620012d9565b9150620013a1826200135c565b602082019050919050565b60006020820190508181036000830152620013c78162001385565b9050919050565b7f596f752063616e277420637265617465206d6f7265207468616e203520746f6b60008201527f656e730000000000000000000000000000000000000000000000000000000000602082015250565b60006200142c602383620012d9565b91506200143982620013ce565b604082019050919050565b600060208201905081810360008301526200145f816200141d565b9050919050565b600062001473826200102b565b6200147f8185620012d9565b93506200149181856020860162001047565b6200149c8162000dd2565b840191505092915050565b60006080820190508181036000830152620014c3818762001466565b90508181036020830152620014d9818662001466565b9050620014ea60408301856200121a565b620014f9606083018462001248565b95945050505050565b600060a08201905062001519600083018862001248565b81810360208301526200152d818762001466565b9050818103604083015262001543818662001466565b90506200155460608301856200121a565b62001563608083018462001248565b9695505050505050565b7f4e487b7100000000000000000000000000000000000000000000000000000000600052601160045260246000fd5b6000620015a98262000f2a565b9150620015b68362000f2a565b9250827fffffffffffffffffffffffffffffffffffffffffffffffffffffffffffffffff03821115620015ee57620015ed6200156d565b5b828201905092915050565b600060808301600083015184820360008601526200161882826200107d565b915050602083015184820360208601526200163482826200107d565b91505060408301516200164b6040860182620010be565b506060830151620016606060860182620010cf565b508091505092915050565b60006020820190508181036000830152620016878184620015f9565b905092915050565b7f4e487b7100000000000000000000000000000000000000000000000000000000600052602260045260246000fd5b60006002820490506001821680620016d757607f821691505b60208210811415620016ee57620016ed6200168f565b5b50919050565b6000620017018262000f2a565b91506200170e8362000f2a565b9250828210156200172457620017236200156d565b5b828203905092915050565b7f4f776e61626c653a206e6577206f776e657220697320746865207a65726f206160008201527f6464726573730000000000000000000000000000000000000000000000000000602082015250565b60006200178d602683620012d9565b91506200179a826200172f565b604082019050919050565b60006020820190508181036000830152620017c0816200177e565b905091905056fe60806040523480156200001157600080fd5b5060405162001a3938038062001a3983398181016040528101906200003791906200050e565b838381600390805190602001906200005192919062000221565b5080600490805190602001906200006a92919062000221565b5050506200009481670de0b6b3a764000084620000889190620005ed565b6200009e60201b60201c565b50505050620007c1565b600073ffffffffffffffffffffffffffffffffffffffff168273ffffffffffffffffffffffffffffffffffffffff16141562000111576040517f08c379a00000000000000000000000000000000000000000000000000000000081526004016200010890620006af565b60405180910390fd5b62000125600083836200021760201b60201c565b8060026000828254620001399190620006d1565b92505081905550806000808473ffffffffffffffffffffffffffffffffffffffff1673ffffffffffffffffffffffffffffffffffffffff1681526020019081526020016000206000828254620001909190620006d1565b925050819055508173ffffffffffffffffffffffffffffffffffffffff16600073ffffffffffffffffffffffffffffffffffffffff167fddf252ad1be2c89b69c2b068fc378daa952ba7f163c4a11628f55a4df523b3ef83604051620001f791906200073f565b60405180910390a362000213600083836200021c60201b60201c565b5050565b505050565b505050565b8280546200022f906200078b565b90600052602060002090601f0160209004810192826200025357600085556200029f565b82601f106200026e57805160ff19168380011785556200029f565b828001600101855582156200029f579182015b828111156200029e57825182559160200191906001019062000281565b5b509050620002ae9190620002b2565b5090565b5b80821115620002cd576000816000905550600101620002b3565b5090565b6000604051905090565b600080fd5b600080fd5b600080fd5b600080fd5b6000601f19601f8301169050919050565b7f4e487b7100000000000000000000000000000000000000000000000000000000600052604160045260246000fd5b6200033a82620002ef565b810181811067ffffffffffffffff821117156200035c576200035b62000300565b5b80604052505050565b600062000371620002d1565b90506200037f82826200032f565b919050565b600067ffffffffffffffff821115620003a257620003a162000300565b5b620003ad82620002ef565b9050602081019050919050565b60005b83811015620003da578082015181840152602081019050620003bd565b83811115620003ea576000848401525b50505050565b600062000407620004018462000384565b62000365565b905082815260208101848484011115620004265762000425620002ea565b5b62000433848285620003ba565b509392505050565b600082601f830112620004535762000452620002e5565b5b815162000465848260208601620003f0565b91505092915050565b6000819050919050565b62000483816200046e565b81146200048f57600080fd5b50565b600081519050620004a38162000478565b92915050565b600073ffffffffffffffffffffffffffffffffffffffff82169050919050565b6000620004d682620004a9565b9050919050565b620004e881620004c9565b8114620004f457600080fd5b50565b6000815190506200050881620004dd565b92915050565b600080600080608085870312156200052b576200052a620002db565b5b600085015167ffffffffffffffff8111156200054c576200054b620002e0565b5b6200055a878288016200043b565b945050602085015167ffffffffffffffff8111156200057e576200057d620002e0565b5b6200058c878288016200043b565b93505060406200059f8782880162000492565b9250506060620005b287828801620004f7565b91505092959194509250565b7f4e487b7100000000000000000000000000000000000000000000000000000000600052601160045260246000fd5b6000620005fa826200046e565b915062000607836200046e565b9250817fffffffffffffffffffffffffffffffffffffffffffffffffffffffffffffffff0483118215151615620006435762000642620005be565b5b828202905092915050565b600082825260208201905092915050565b7f45524332303a206d696e7420746f20746865207a65726f206164647265737300600082015250565b600062000697601f836200064e565b9150620006a4826200065f565b602082019050919050565b60006020820190508181036000830152620006ca8162000688565b9050919050565b6000620006de826200046e565b9150620006eb836200046e565b9250827fffffffffffffffffffffffffffffffffffffffffffffffffffffffffffffffff03821115620007235762000722620005be565b5b828201905092915050565b62000739816200046e565b82525050565b60006020820190506200075660008301846200072e565b92915050565b7f4e487b7100000000000000000000000000000000000000000000000000000000600052602260045260246000fd5b60006002820490506001821680620007a457607f821691505b60208210811415620007bb57620007ba6200075c565b5b50919050565b61126880620007d16000396000f3fe608060405234801561001057600080fd5b50600436106100a95760003560e01c80633950935111610071578063395093511461016857806370a082311461019857806395d89b41146101c8578063a457c2d7146101e6578063a9059cbb14610216578063dd62ed3e14610246576100a9565b806306fdde03146100ae578063095ea7b3146100cc57806318160ddd146100fc57806323b872dd1461011a578063313ce5671461014a575b600080fd5b6100b6610276565b6040516100c39190610b22565b60405180910390f35b6100e660048036038101906100e19190610bdd565b610308565b6040516100f39190610c38565b60405180910390f35b61010461032b565b6040516101119190610c62565b60405180910390f35b610134600480360381019061012f9190610c7d565b610335565b6040516101419190610c38565b60405180910390f35b610152610364565b60405161015f9190610cec565b60405180910390f35b610182600480360381019061017d9190610bdd565b61036d565b60405161018f9190610c38565b60405180910390f35b6101b260048036038101906101ad9190610d07565b6103a4565b6040516101bf9190610c62565b60405180910390f35b6101d06103ec565b6040516101dd9190610b22565b60405180910390f35b61020060048036038101906101fb9190610bdd565b61047e565b60405161020d9190610c38565b60405180910390f35b610230600480360381019061022b9190610bdd565b6104f5565b60405161023d9190610c38565b60405180910390f35b610260600480360381019061025b9190610d34565b610518565b60405161026d9190610c62565b60405180910390f35b60606003805461028590610da3565b80601f01602080910402602001604051908101604052809291908181526020018280546102b190610da3565b80156102fe5780601f106102d3576101008083540402835291602001916102fe565b820191906000526020600020905b8154815290600101906020018083116102e157829003601f168201915b5050505050905090565b60008061031361059f565b90506103208185856105a7565b600191505092915050565b6000600254905090565b60008061034061059f565b905061034d858285610772565b6103588585856107fe565b60019150509392505050565b60006012905090565b60008061037861059f565b905061039981858561038a8589610518565b6103949190610e04565b6105a7565b600191505092915050565b60008060008373ffffffffffffffffffffffffffffffffffffffff1673ffffffffffffffffffffffffffffffffffffffff168152602001908152602001600020549050919050565b6060600480546103fb90610da3565b80601f016020809104026020016040519081016040528092919081815260200182805461042790610da3565b80156104745780601f1061044957610100808354040283529160200191610474565b820191906000526020600020905b81548152906001019060200180831161045757829003601f168201915b5050505050905090565b60008061048961059f565b905060006104978286610518565b9050838110156104dc576040517f08c379a00000000000000000000000000000000000000000000000000000000081526004016104d390610ecc565b60405180910390fd5b6104e982868684036105a7565b60019250505092915050565b60008061050061059f565b905061050d8185856107fe565b600191505092915050565b6000600160008473ffffffffffffffffffffffffffffffffffffffff1673ffffffffffffffffffffffffffffffffffffffff16815260200190815260200160002060008373ffffffffffffffffffffffffffffffffffffffff1673ffffffffffffffffffffffffffffffffffffffff16815260200190815260200160002054905092915050565b600033905090565b600073ffffffffffffffffffffffffffffffffffffffff168373ffffffffffffffffffffffffffffffffffffffff161415610617576040517f08c379a000000000000000000000000000000000000000000000000000000000815260040161060e90610f5e565b60405180910390fd5b600073ffffffffffffffffffffffffffffffffffffffff168273ffffffffffffffffffffffffffffffffffffffff161415610687576040517f08c379a000000000000000000000000000000000000000000000000000000000815260040161067e90610ff0565b60405180910390fd5b80600160008573ffffffffffffffffffffffffffffffffffffffff1673ffffffffffffffffffffffffffffffffffffffff16815260200190815260200160002060008473ffffffffffffffffffffffffffffffffffffffff1673ffffffffffffffffffffffffffffffffffffffff168152602001908152602001600020819055508173ffffffffffffffffffffffffffffffffffffffff168373ffffffffffffffffffffffffffffffffffffffff167f8c5be1e5ebec7d5bd14f71427d1e84f3dd0314c0f7b2291e5b200ac8c7c3b925836040516107659190610c62565b60405180910390a3505050565b600061077e8484610518565b90507fffffffffffffffffffffffffffffffffffffffffffffffffffffffffffffffff81146107f857818110156107ea576040517f08c379a00000000000000000000000000000000000000000000000000000000081526004016107e19061105c565b60405180910390fd5b6107f784848484036105a7565b5b50505050565b600073ffffffffffffffffffffffffffffffffffffffff168373ffffffffffffffffffffffffffffffffffffffff16141561086e576040517f08c379a0000000000000000000000000000000000000000000000000000000008152600401610865906110ee565b60405180910390fd5b600073ffffffffffffffffffffffffffffffffffffffff168273ffffffffffffffffffffffffffffffffffffffff1614156108de576040517f08c379a00000000000000000000000000000000000000000000000000000000081526004016108d590611180565b60405180910390fd5b6108e9838383610a7f565b60008060008573ffffffffffffffffffffffffffffffffffffffff1673ffffffffffffffffffffffffffffffffffffffff1681526020019081526020016000205490508181101561096f576040517f08c379a000000000000000000000000000000000000000000000000000000000815260040161096690611212565b60405180910390fd5b8181036000808673ffffffffffffffffffffffffffffffffffffffff1673ffffffffffffffffffffffffffffffffffffffff16815260200190815260200160002081905550816000808573ffffffffffffffffffffffffffffffffffffffff1673ffffffffffffffffffffffffffffffffffffffff1681526020019081526020016000206000828254610a029190610e04565b925050819055508273ffffffffffffffffffffffffffffffffffffffff168473ffffffffffffffffffffffffffffffffffffffff167fddf252ad1be2c89b69c2b068fc378daa952ba7f163c4a11628f55a4df523b3ef84604051610a669190610c62565b60405180910390a3610a79848484610a84565b50505050565b505050565b505050565b600081519050919050565b600082825260208201905092915050565b60005b83811015610ac3578082015181840152602081019050610aa8565b83811115610ad2576000848401525b50505050565b6000601f19601f8301169050919050565b6000610af482610a89565b610afe8185610a94565b9350610b0e818560208601610aa5565b610b1781610ad8565b840191505092915050565b60006020820190508181036000830152610b3c8184610ae9565b905092915050565b600080fd5b600073ffffffffffffffffffffffffffffffffffffffff82169050919050565b6000610b7482610b49565b9050919050565b610b8481610b69565b8114610b8f57600080fd5b50565b600081359050610ba181610b7b565b92915050565b6000819050919050565b610bba81610ba7565b8114610bc557600080fd5b50565b600081359050610bd781610bb1565b92915050565b60008060408385031215610bf457610bf3610b44565b5b6000610c0285828601610b92565b9250506020610c1385828601610bc8565b9150509250929050565b60008115159050919050565b610c3281610c1d565b82525050565b6000602082019050610c4d6000830184610c29565b92915050565b610c5c81610ba7565b82525050565b6000602082019050610c776000830184610c53565b92915050565b600080600060608486031215610c9657610c95610b44565b5b6000610ca486828701610b92565b9350506020610cb586828701610b92565b9250506040610cc686828701610bc8565b9150509250925092565b600060ff82169050919050565b610ce681610cd0565b82525050565b6000602082019050610d016000830184610cdd565b92915050565b600060208284031215610d1d57610d1c610b44565b5b6000610d2b84828501610b92565b91505092915050565b60008060408385031215610d4b57610d4a610b44565b5b6000610d5985828601610b92565b9250506020610d6a85828601610b92565b9150509250929050565b7f4e487b7100000000000000000000000000000000000000000000000000000000600052602260045260246000fd5b60006002820490506001821680610dbb57607f821691505b60208210811415610dcf57610dce610d74565b5b50919050565b7f4e487b7100000000000000000000000000000000000000000000000000000000600052601160045260246000fd5b6000610e0f82610ba7565b9150610e1a83610ba7565b9250827fffffffffffffffffffffffffffffffffffffffffffffffffffffffffffffffff03821115610e4f57610e4e610dd5565b5b828201905092915050565b7f45524332303a2064656372656173656420616c6c6f77616e63652062656c6f7760008201527f207a65726f000000000000000000000000000000000000000000000000000000602082015250565b6000610eb6602583610a94565b9150610ec182610e5a565b604082019050919050565b60006020820190508181036000830152610ee581610ea9565b9050919050565b7f45524332303a20617070726f76652066726f6d20746865207a65726f2061646460008201527f7265737300000000000000000000000000000000000000000000000000000000602082015250565b6000610f48602483610a94565b9150610f5382610eec565b604082019050919050565b60006020820190508181036000830152610f7781610f3b565b9050919050565b7f45524332303a20617070726f766520746f20746865207a65726f20616464726560008201527f7373000000000000000000000000000000000000000000000000000000000000602082015250565b6000610fda602283610a94565b9150610fe582610f7e565b604082019050919050565b6000602082019050818103600083015261100981610fcd565b9050919050565b7f45524332303a20696e73756666696369656e7420616c6c6f77616e6365000000600082015250565b6000611046601d83610a94565b915061105182611010565b602082019050919050565b6000602082019050818103600083015261107581611039565b9050919050565b7f45524332303a207472616e736665722066726f6d20746865207a65726f20616460008201527f6472657373000000000000000000000000000000000000000000000000000000602082015250565b60006110d8602583610a94565b91506110e38261107c565b604082019050919050565b60006020820190508181036000830152611107816110cb565b9050919050565b7f45524332303a207472616e7366657220746f20746865207a65726f206164647260008201527f6573730000000000000000000000000000000000000000000000000000000000602082015250565b600061116a602383610a94565b91506111758261110e565b604082019050919050565b600060208201905081810360008301526111998161115d565b9050919050565b7f45524332303a207472616e7366657220616d6f756e742065786365656473206260008201527f616c616e63650000000000000000000000000000000000000000000000000000602082015250565b60006111fc602683610a94565b9150611207826111a0565b604082019050919050565b6000602082019050818103600083015261122b816111ef565b905091905056fea26469706673582212202e610ef9789eabc1d7834e24fb0dcaca1fa6099d3c9c30e007ff5fd8363c8ee064736f6c634300080c0033a2646970667358221220909e26b1a2cb64ec0b7fd51f6a46b2b4a4afb39a40f5a9cfafbab78cc10897e764736f6c634300080c0033",
  "immutableReferences": {},
  "source": "// !! This contract is not audited. Do not use in production!!\n\n//SPDX-License-Identifier: UNLICENSED\npragma solidity ^0.8.0;\n\nimport \"@openzeppelin/contracts/access/Ownable.sol\"; //  Ownable.sol\nimport \"./SampleProjectToken.sol\"; // Sample project token\nimport \"./lib/IDO.sol\"; // IDO library\nimport \"./Portfolio.sol\"; // Portfolio.sol\n\ncontract TokenCreator is Ownable {\n    // Portfolio contract\n    Portfolio public portfolioContract;\n\n    // Cooldowns for creating tokens\n    uint256 public constant COOLDOWN_TIME = 10 minutes;\n\n    // Maximum amount for creating ERC-20 token\n    uint256 public constant MAX_AMOUNT = 5;\n\n    // Users to tokens mapping\n    mapping(address => IDOLib.ERC20[]) internal userCollections;\n\n    // Cooldowns\n    mapping(address => uint256) internal cooldowns;\n\n    // Events\n    event TokenCreated(IDOLib.ERC20 infoToken);\n\n    // Modifier\n    modifier canCreateERC20() {\n        // Check for cooldown\n        require(\n            block.timestamp >= cooldowns[msg.sender],\n            \"Token creation is on cooldown\"\n        );\n\n        // Check for max amount\n        require(\n            userCollections[msg.sender].length < MAX_AMOUNT,\n            \"You can't create more than 5 tokens\"\n        );\n        _;\n    }\n\n    // Default constructor\n    constructor(Portfolio _contract) Ownable() {\n        portfolioContract = _contract;\n    }\n\n    // Get msg.sender's tokens\n    function getMyTokens() external view returns (IDOLib.ERC20[] memory) {\n        return userCollections[msg.sender];\n    }\n\n    function createToken(\n        string memory name,\n        string memory symbol,\n        uint256 totalSupply\n    ) public canCreateERC20 {\n        // Create new token\n        ProjectToken token = new ProjectToken(\n            name,\n            symbol,\n            totalSupply,\n            msg.sender\n        );\n\n        // Generated token address\n        address tokenAddress = address(token);\n\n        // Temp data for mapping\n        IDOLib.ERC20 memory newERC20 = IDOLib.ERC20(\n            name,\n            symbol,\n            totalSupply,\n            tokenAddress\n        );\n\n        // Add token to mapping\n        userCollections[msg.sender].push(newERC20);\n\n        // Add token to portfolio\n        portfolioContract.addERC20(\n            msg.sender,\n            name,\n            symbol,\n            totalSupply,\n            tokenAddress\n        );\n\n        // Add cooldown\n        cooldowns[msg.sender] = block.timestamp + COOLDOWN_TIME;\n\n        // Emit event\n        emit TokenCreated(newERC20);\n    }\n\n    function getMyCooldown() external view returns (uint256) {\n        uint256 cooldown = cooldowns[msg.sender];\n\n        if (cooldown == 0) return 0;\n\n        return cooldown - block.timestamp;\n    }\n\n    // Setter function for set portfolio contract\n    function setPortfolioContract(Portfolio _contract) public onlyOwner {\n        portfolioContract = _contract;\n    }\n}\n",
  "sourcePath": "/Users/mehmetberatozturk/Documents/Github/ido-for-everyone/contracts/TokenCreator.sol",
  "compiler": {
    "name": "solc",
    "version": "0.8.12+commit.f00d7308.Emscripten.clang"
  },
  "schemaVersion": "3.4.6",
  "updatedAt": "2022-05-07T23:10:32.403Z",
  "networkType": "ethereum",
  "devdoc": {
    "kind": "dev",
    "methods": {
      "owner()": {
        "details": "Returns the address of the current owner."
      },
      "renounceOwnership()": {
        "details": "Leaves the contract without owner. It will not be possible to call `onlyOwner` functions anymore. Can only be called by the current owner. NOTE: Renouncing ownership will leave the contract without an owner, thereby removing any functionality that is only available to the owner."
      },
      "transferOwnership(address)": {
        "details": "Transfers ownership of the contract to a new account (`newOwner`). Can only be called by the current owner."
      }
    },
    "version": 1
  },
  "userdoc": {
    "kind": "user",
    "methods": {},
    "version": 1
  }
}