{
  "contractName": "TokenCreator",
  "abi": [
    {
      "inputs": [
        {
          "internalType": "contract Portfolio",
          "name": "_contract",
          "type": "address"
        }
      ],
      "stateMutability": "nonpayable",
      "type": "constructor"
    },
    {
      "anonymous": false,
      "inputs": [
        {
          "indexed": true,
          "internalType": "address",
          "name": "previousOwner",
          "type": "address"
        },
        {
          "indexed": true,
          "internalType": "address",
          "name": "newOwner",
          "type": "address"
        }
      ],
      "name": "OwnershipTransferred",
      "type": "event"
    },
    {
      "anonymous": false,
      "inputs": [
        {
          "components": [
            {
              "internalType": "string",
              "name": "name",
              "type": "string"
            },
            {
              "internalType": "string",
              "name": "symbol",
              "type": "string"
            },
            {
              "internalType": "uint256",
              "name": "totalSupply",
              "type": "uint256"
            },
            {
              "internalType": "address",
              "name": "tokenAddress",
              "type": "address"
            }
          ],
          "indexed": false,
          "internalType": "struct IDOLib.ERC20",
          "name": "infoToken",
          "type": "tuple"
        }
      ],
      "name": "TokenCreated",
      "type": "event"
    },
    {
      "inputs": [],
      "name": "COOLDOWN_TIME",
      "outputs": [
        {
          "internalType": "uint256",
          "name": "",
          "type": "uint256"
        }
      ],
      "stateMutability": "view",
      "type": "function",
      "constant": true
    },
    {
      "inputs": [],
      "name": "MAX_AMOUNT",
      "outputs": [
        {
          "internalType": "uint256",
          "name": "",
          "type": "uint256"
        }
      ],
      "stateMutability": "view",
      "type": "function",
      "constant": true
    },
    {
      "inputs": [],
      "name": "owner",
      "outputs": [
        {
          "internalType": "address",
          "name": "",
          "type": "address"
        }
      ],
      "stateMutability": "view",
      "type": "function",
      "constant": true
    },
    {
      "inputs": [],
      "name": "portfolioContract",
      "outputs": [
        {
          "internalType": "contract Portfolio",
          "name": "",
          "type": "address"
        }
      ],
      "stateMutability": "view",
      "type": "function",
      "constant": true
    },
    {
      "inputs": [],
      "name": "renounceOwnership",
      "outputs": [],
      "stateMutability": "nonpayable",
      "type": "function"
    },
    {
      "inputs": [
        {
          "internalType": "address",
          "name": "newOwner",
          "type": "address"
        }
      ],
      "name": "transferOwnership",
      "outputs": [],
      "stateMutability": "nonpayable",
      "type": "function"
    },
    {
      "inputs": [],
      "name": "getMyTokens",
      "outputs": [
        {
          "components": [
            {
              "internalType": "string",
              "name": "name",
              "type": "string"
            },
            {
              "internalType": "string",
              "name": "symbol",
              "type": "string"
            },
            {
              "internalType": "uint256",
              "name": "totalSupply",
              "type": "uint256"
            },
            {
              "internalType": "address",
              "name": "tokenAddress",
              "type": "address"
            }
          ],
          "internalType": "struct IDOLib.ERC20[]",
          "name": "",
          "type": "tuple[]"
        }
      ],
      "stateMutability": "view",
      "type": "function",
      "constant": true
    },
    {
      "inputs": [
        {
          "internalType": "string",
          "name": "name",
          "type": "string"
        },
        {
          "internalType": "string",
          "name": "symbol",
          "type": "string"
        },
        {
          "internalType": "uint256",
          "name": "totalSupply",
          "type": "uint256"
        }
      ],
      "name": "createToken",
      "outputs": [],
      "stateMutability": "nonpayable",
      "type": "function"
    },
    {
      "inputs": [],
      "name": "getMyCooldown",
      "outputs": [
        {
          "internalType": "uint256",
          "name": "",
          "type": "uint256"
        }
      ],
      "stateMutability": "view",
      "type": "function",
      "constant": true
    },
    {
      "inputs": [
        {
          "internalType": "contract Portfolio",
          "name": "_contract",
          "type": "address"
        }
      ],
      "name": "setPortfolioContract",
      "outputs": [],
      "stateMutability": "nonpayable",
      "type": "function"
    }
  ],
  "bytecode": "0x60806040523480156200001157600080fd5b50604051620033d3380380620033d38339818101604052810190620000379190620001e9565b620000576200004b6200009f60201b60201c565b620000a760201b60201c565b80600160006101000a81548173ffffffffffffffffffffffffffffffffffffffff021916908373ffffffffffffffffffffffffffffffffffffffff160217905550506200021b565b600033905090565b60008060009054906101000a900473ffffffffffffffffffffffffffffffffffffffff169050816000806101000a81548173ffffffffffffffffffffffffffffffffffffffff021916908373ffffffffffffffffffffffffffffffffffffffff1602179055508173ffffffffffffffffffffffffffffffffffffffff168173ffffffffffffffffffffffffffffffffffffffff167f8be0079c531659141344cd1fd0a4f28419497f9722a3daafe3b4186f6b6457e060405160405180910390a35050565b600080fd5b600073ffffffffffffffffffffffffffffffffffffffff82169050919050565b60006200019d8262000170565b9050919050565b6000620001b18262000190565b9050919050565b620001c381620001a4565b8114620001cf57600080fd5b50565b600081519050620001e381620001b8565b92915050565b6000602082840312156200020257620002016200016b565b5b60006200021284828501620001d2565b91505092915050565b6131a8806200022b6000396000f3fe60806040523480156200001157600080fd5b5060043610620000ac5760003560e01c80637d263245116200006f5780637d26324514620001415780638da5cb5b1462000163578063bb69e95a1462000185578063d40dc87014620001a7578063f2fde38b14620001c957620000ac565b806327fda0d614620000b15780634a13c3c614620000d15780635b06053014620000f35780635b3b136a1462000113578063715018a61462000135575b600080fd5b620000cf6004803603810190620000c9919062000d0c565b620001e9565b005b620000db620002b0565b604051620000ea919062000da9565b60405180910390f35b6200011160048036038101906200010b919062000f63565b620002d6565b005b6200011d6200068b565b6040516200012c9190620011f4565b60405180910390f35b6200013f620008bd565b005b6200014b6200094e565b6040516200015a919062001229565b60405180910390f35b6200016d62000954565b6040516200017c919062001257565b60405180910390f35b6200018f6200097d565b6040516200019e919062001229565b60405180910390f35b620001b1620009ec565b604051620001c0919062001229565b60405180910390f35b620001e76004803603810190620001e19190620012a5565b620009f1565b005b620001f362000af5565b73ffffffffffffffffffffffffffffffffffffffff166200021362000954565b73ffffffffffffffffffffffffffffffffffffffff16146200026c576040517f08c379a0000000000000000000000000000000000000000000000000000000008152600401620002639062001338565b60405180910390fd5b80600160006101000a81548173ffffffffffffffffffffffffffffffffffffffff021916908373ffffffffffffffffffffffffffffffffffffffff16021790555050565b600160009054906101000a900473ffffffffffffffffffffffffffffffffffffffff1681565b600360003373ffffffffffffffffffffffffffffffffffffffff1673ffffffffffffffffffffffffffffffffffffffff168152602001908152602001600020544210156200035b576040517f08c379a00000000000000000000000000000000000000000000000000000000081526004016200035290620013aa565b60405180910390fd5b6005600260003373ffffffffffffffffffffffffffffffffffffffff1673ffffffffffffffffffffffffffffffffffffffff1681526020019081526020016000208054905010620003e3576040517f08c379a0000000000000000000000000000000000000000000000000000000008152600401620003da9062001442565b60405180910390fd5b6000838383604051620003f69062000bc1565b6200040493929190620014a5565b604051809103906000f08015801562000421573d6000803e3d6000fd5b5090506000819050600060405180608001604052808781526020018681526020018581526020018373ffffffffffffffffffffffffffffffffffffffff168152509050600260003373ffffffffffffffffffffffffffffffffffffffff1673ffffffffffffffffffffffffffffffffffffffff1681526020019081526020016000208190806001815401808255809150506001900390600052602060002090600402016000909190919091506000820151816000019080519060200190620004eb92919062000bcf565b5060208201518160010190805190602001906200050a92919062000bcf565b506040820151816002015560608201518160030160006101000a81548173ffffffffffffffffffffffffffffffffffffffff021916908373ffffffffffffffffffffffffffffffffffffffff1602179055505050600160009054906101000a900473ffffffffffffffffffffffffffffffffffffffff1673ffffffffffffffffffffffffffffffffffffffff16632f3af0a633888888876040518663ffffffff1660e01b8152600401620005c3959493929190620014f0565b600060405180830381600087803b158015620005de57600080fd5b505af1158015620005f3573d6000803e3d6000fd5b50505050610258426200060791906200158a565b600360003373ffffffffffffffffffffffffffffffffffffffff1673ffffffffffffffffffffffffffffffffffffffff168152602001908152602001600020819055507f075a2807ecf2e770d44aae1cfce7604675551662e1958cb2a5636d6fe7eba78a816040516200067b919062001659565b60405180910390a1505050505050565b6060600260003373ffffffffffffffffffffffffffffffffffffffff1673ffffffffffffffffffffffffffffffffffffffff168152602001908152602001600020805480602002602001604051908101604052809291908181526020016000905b82821015620008b457838290600052602060002090600402016040518060800160405290816000820180546200072290620016ac565b80601f01602080910402602001604051908101604052809291908181526020018280546200075090620016ac565b8015620007a15780601f106200077557610100808354040283529160200191620007a1565b820191906000526020600020905b8154815290600101906020018083116200078357829003601f168201915b50505050508152602001600182018054620007bc90620016ac565b80601f0160208091040260200160405190810160405280929190818152602001828054620007ea90620016ac565b80156200083b5780601f106200080f576101008083540402835291602001916200083b565b820191906000526020600020905b8154815290600101906020018083116200081d57829003601f168201915b50505050508152602001600282015481526020016003820160009054906101000a900473ffffffffffffffffffffffffffffffffffffffff1673ffffffffffffffffffffffffffffffffffffffff1673ffffffffffffffffffffffffffffffffffffffff168152505081526020019060010190620006ec565b50505050905090565b620008c762000af5565b73ffffffffffffffffffffffffffffffffffffffff16620008e762000954565b73ffffffffffffffffffffffffffffffffffffffff161462000940576040517f08c379a0000000000000000000000000000000000000000000000000000000008152600401620009379062001338565b60405180910390fd5b6200094c600062000afd565b565b61025881565b60008060009054906101000a900473ffffffffffffffffffffffffffffffffffffffff16905090565b600080600360003373ffffffffffffffffffffffffffffffffffffffff1673ffffffffffffffffffffffffffffffffffffffff1681526020019081526020016000205490506000811415620009d7576000915050620009e9565b4281620009e59190620016e2565b9150505b90565b600581565b620009fb62000af5565b73ffffffffffffffffffffffffffffffffffffffff1662000a1b62000954565b73ffffffffffffffffffffffffffffffffffffffff161462000a74576040517f08c379a000000000000000000000000000000000000000000000000000000000815260040162000a6b9062001338565b60405180910390fd5b600073ffffffffffffffffffffffffffffffffffffffff168173ffffffffffffffffffffffffffffffffffffffff16141562000ae7576040517f08c379a000000000000000000000000000000000000000000000000000000000815260040162000ade9062001793565b60405180910390fd5b62000af28162000afd565b50565b600033905090565b60008060009054906101000a900473ffffffffffffffffffffffffffffffffffffffff169050816000806101000a81548173ffffffffffffffffffffffffffffffffffffffff021916908373ffffffffffffffffffffffffffffffffffffffff1602179055508173ffffffffffffffffffffffffffffffffffffffff168173ffffffffffffffffffffffffffffffffffffffff167f8be0079c531659141344cd1fd0a4f28419497f9722a3daafe3b4186f6b6457e060405160405180910390a35050565b6119bd80620017b683390190565b82805462000bdd90620016ac565b90600052602060002090601f01602090048101928262000c01576000855562000c4d565b82601f1062000c1c57805160ff191683800117855562000c4d565b8280016001018555821562000c4d579182015b8281111562000c4c57825182559160200191906001019062000c2f565b5b50905062000c5c919062000c60565b5090565b5b8082111562000c7b57600081600090555060010162000c61565b5090565b6000604051905090565b600080fd5b600080fd5b600073ffffffffffffffffffffffffffffffffffffffff82169050919050565b600062000cc08262000c93565b9050919050565b600062000cd48262000cb3565b9050919050565b62000ce68162000cc7565b811462000cf257600080fd5b50565b60008135905062000d068162000cdb565b92915050565b60006020828403121562000d255762000d2462000c89565b5b600062000d358482850162000cf5565b91505092915050565b6000819050919050565b600062000d6962000d6362000d5d8462000c93565b62000d3e565b62000c93565b9050919050565b600062000d7d8262000d48565b9050919050565b600062000d918262000d70565b9050919050565b62000da38162000d84565b82525050565b600060208201905062000dc0600083018462000d98565b92915050565b600080fd5b600080fd5b6000601f19601f8301169050919050565b7f4e487b7100000000000000000000000000000000000000000000000000000000600052604160045260246000fd5b62000e1b8262000dd0565b810181811067ffffffffffffffff8211171562000e3d5762000e3c62000de1565b5b80604052505050565b600062000e5262000c7f565b905062000e60828262000e10565b919050565b600067ffffffffffffffff82111562000e835762000e8262000de1565b5b62000e8e8262000dd0565b9050602081019050919050565b82818337600083830152505050565b600062000ec162000ebb8462000e65565b62000e46565b90508281526020810184848401111562000ee05762000edf62000dcb565b5b62000eed84828562000e9b565b509392505050565b600082601f83011262000f0d5762000f0c62000dc6565b5b813562000f1f84826020860162000eaa565b91505092915050565b6000819050919050565b62000f3d8162000f28565b811462000f4957600080fd5b50565b60008135905062000f5d8162000f32565b92915050565b60008060006060848603121562000f7f5762000f7e62000c89565b5b600084013567ffffffffffffffff81111562000fa05762000f9f62000c8e565b5b62000fae8682870162000ef5565b935050602084013567ffffffffffffffff81111562000fd25762000fd162000c8e565b5b62000fe08682870162000ef5565b925050604062000ff38682870162000f4c565b9150509250925092565b600081519050919050565b600082825260208201905092915050565b6000819050602082019050919050565b600081519050919050565b600082825260208201905092915050565b60005b838110156200106557808201518184015260208101905062001048565b8381111562001075576000848401525b50505050565b6000620010888262001029565b62001094818562001034565b9350620010a681856020860162001045565b620010b18162000dd0565b840191505092915050565b620010c78162000f28565b82525050565b620010d88162000cb3565b82525050565b60006080830160008301518482036000860152620010fd82826200107b565b915050602083015184820360208601526200111982826200107b565b9150506040830151620011306040860182620010bc565b506060830151620011456060860182620010cd565b508091505092915050565b60006200115e8383620010de565b905092915050565b6000602082019050919050565b6000620011808262000ffd565b6200118c818562001008565b935083602082028501620011a08562001019565b8060005b85811015620011e25784840389528151620011c0858262001150565b9450620011cd8362001166565b925060208a01995050600181019050620011a4565b50829750879550505050505092915050565b6000602082019050818103600083015262001210818462001173565b905092915050565b620012238162000f28565b82525050565b600060208201905062001240600083018462001218565b92915050565b620012518162000cb3565b82525050565b60006020820190506200126e600083018462001246565b92915050565b6200127f8162000cb3565b81146200128b57600080fd5b50565b6000813590506200129f8162001274565b92915050565b600060208284031215620012be57620012bd62000c89565b5b6000620012ce848285016200128e565b91505092915050565b600082825260208201905092915050565b7f4f776e61626c653a2063616c6c6572206973206e6f7420746865206f776e6572600082015250565b600062001320602083620012d7565b91506200132d82620012e8565b602082019050919050565b60006020820190508181036000830152620013538162001311565b9050919050565b7f546f6b656e206372656174696f6e206973206f6e20636f6f6c646f776e000000600082015250565b600062001392601d83620012d7565b91506200139f826200135a565b602082019050919050565b60006020820190508181036000830152620013c58162001383565b9050919050565b7f596f752063616e277420637265617465206d6f7265207468616e203520746f6b60008201527f656e730000000000000000000000000000000000000000000000000000000000602082015250565b60006200142a602383620012d7565b91506200143782620013cc565b604082019050919050565b600060208201905081810360008301526200145d816200141b565b9050919050565b6000620014718262001029565b6200147d8185620012d7565b93506200148f81856020860162001045565b6200149a8162000dd0565b840191505092915050565b60006060820190508181036000830152620014c1818662001464565b90508181036020830152620014d7818562001464565b9050620014e8604083018462001218565b949350505050565b600060a08201905062001507600083018862001246565b81810360208301526200151b818762001464565b9050818103604083015262001531818662001464565b905062001542606083018562001218565b62001551608083018462001246565b9695505050505050565b7f4e487b7100000000000000000000000000000000000000000000000000000000600052601160045260246000fd5b6000620015978262000f28565b9150620015a48362000f28565b9250827fffffffffffffffffffffffffffffffffffffffffffffffffffffffffffffffff03821115620015dc57620015db6200155b565b5b828201905092915050565b600060808301600083015184820360008601526200160682826200107b565b915050602083015184820360208601526200162282826200107b565b9150506040830151620016396040860182620010bc565b5060608301516200164e6060860182620010cd565b508091505092915050565b60006020820190508181036000830152620016758184620015e7565b905092915050565b7f4e487b7100000000000000000000000000000000000000000000000000000000600052602260045260246000fd5b60006002820490506001821680620016c557607f821691505b60208210811415620016dc57620016db6200167d565b5b50919050565b6000620016ef8262000f28565b9150620016fc8362000f28565b9250828210156200171257620017116200155b565b5b828203905092915050565b7f4f776e61626c653a206e6577206f776e657220697320746865207a65726f206160008201527f6464726573730000000000000000000000000000000000000000000000000000602082015250565b60006200177b602683620012d7565b915062001788826200171d565b604082019050919050565b60006020820190508181036000830152620017ae816200176c565b905091905056fe60806040523480156200001157600080fd5b50604051620019bd380380620019bd8339818101604052810190620000379190620004a8565b828281600390805190602001906200005192919062000220565b5080600490805190602001906200006a92919062000220565b5050506200009433670de0b6b3a76400008362000088919062000571565b6200009d60201b60201c565b50505062000745565b600073ffffffffffffffffffffffffffffffffffffffff168273ffffffffffffffffffffffffffffffffffffffff16141562000110576040517f08c379a0000000000000000000000000000000000000000000000000000000008152600401620001079062000633565b60405180910390fd5b62000124600083836200021660201b60201c565b806002600082825462000138919062000655565b92505081905550806000808473ffffffffffffffffffffffffffffffffffffffff1673ffffffffffffffffffffffffffffffffffffffff16815260200190815260200160002060008282546200018f919062000655565b925050819055508173ffffffffffffffffffffffffffffffffffffffff16600073ffffffffffffffffffffffffffffffffffffffff167fddf252ad1be2c89b69c2b068fc378daa952ba7f163c4a11628f55a4df523b3ef83604051620001f69190620006c3565b60405180910390a362000212600083836200021b60201b60201c565b5050565b505050565b505050565b8280546200022e906200070f565b90600052602060002090601f0160209004810192826200025257600085556200029e565b82601f106200026d57805160ff19168380011785556200029e565b828001600101855582156200029e579182015b828111156200029d57825182559160200191906001019062000280565b5b509050620002ad9190620002b1565b5090565b5b80821115620002cc576000816000905550600101620002b2565b5090565b6000604051905090565b600080fd5b600080fd5b600080fd5b600080fd5b6000601f19601f8301169050919050565b7f4e487b7100000000000000000000000000000000000000000000000000000000600052604160045260246000fd5b6200033982620002ee565b810181811067ffffffffffffffff821117156200035b576200035a620002ff565b5b80604052505050565b600062000370620002d0565b90506200037e82826200032e565b919050565b600067ffffffffffffffff821115620003a157620003a0620002ff565b5b620003ac82620002ee565b9050602081019050919050565b60005b83811015620003d9578082015181840152602081019050620003bc565b83811115620003e9576000848401525b50505050565b600062000406620004008462000383565b62000364565b905082815260208101848484011115620004255762000424620002e9565b5b62000432848285620003b9565b509392505050565b600082601f830112620004525762000451620002e4565b5b815162000464848260208601620003ef565b91505092915050565b6000819050919050565b62000482816200046d565b81146200048e57600080fd5b50565b600081519050620004a28162000477565b92915050565b600080600060608486031215620004c457620004c3620002da565b5b600084015167ffffffffffffffff811115620004e557620004e4620002df565b5b620004f3868287016200043a565b935050602084015167ffffffffffffffff811115620005175762000516620002df565b5b62000525868287016200043a565b9250506040620005388682870162000491565b9150509250925092565b7f4e487b7100000000000000000000000000000000000000000000000000000000600052601160045260246000fd5b60006200057e826200046d565b91506200058b836200046d565b9250817fffffffffffffffffffffffffffffffffffffffffffffffffffffffffffffffff0483118215151615620005c757620005c662000542565b5b828202905092915050565b600082825260208201905092915050565b7f45524332303a206d696e7420746f20746865207a65726f206164647265737300600082015250565b60006200061b601f83620005d2565b91506200062882620005e3565b602082019050919050565b600060208201905081810360008301526200064e816200060c565b9050919050565b600062000662826200046d565b91506200066f836200046d565b9250827fffffffffffffffffffffffffffffffffffffffffffffffffffffffffffffffff03821115620006a757620006a662000542565b5b828201905092915050565b620006bd816200046d565b82525050565b6000602082019050620006da6000830184620006b2565b92915050565b7f4e487b7100000000000000000000000000000000000000000000000000000000600052602260045260246000fd5b600060028204905060018216806200072857607f821691505b602082108114156200073f576200073e620006e0565b5b50919050565b61126880620007556000396000f3fe608060405234801561001057600080fd5b50600436106100a95760003560e01c80633950935111610071578063395093511461016857806370a082311461019857806395d89b41146101c8578063a457c2d7146101e6578063a9059cbb14610216578063dd62ed3e14610246576100a9565b806306fdde03146100ae578063095ea7b3146100cc57806318160ddd146100fc57806323b872dd1461011a578063313ce5671461014a575b600080fd5b6100b6610276565b6040516100c39190610b22565b60405180910390f35b6100e660048036038101906100e19190610bdd565b610308565b6040516100f39190610c38565b60405180910390f35b61010461032b565b6040516101119190610c62565b60405180910390f35b610134600480360381019061012f9190610c7d565b610335565b6040516101419190610c38565b60405180910390f35b610152610364565b60405161015f9190610cec565b60405180910390f35b610182600480360381019061017d9190610bdd565b61036d565b60405161018f9190610c38565b60405180910390f35b6101b260048036038101906101ad9190610d07565b6103a4565b6040516101bf9190610c62565b60405180910390f35b6101d06103ec565b6040516101dd9190610b22565b60405180910390f35b61020060048036038101906101fb9190610bdd565b61047e565b60405161020d9190610c38565b60405180910390f35b610230600480360381019061022b9190610bdd565b6104f5565b60405161023d9190610c38565b60405180910390f35b610260600480360381019061025b9190610d34565b610518565b60405161026d9190610c62565b60405180910390f35b60606003805461028590610da3565b80601f01602080910402602001604051908101604052809291908181526020018280546102b190610da3565b80156102fe5780601f106102d3576101008083540402835291602001916102fe565b820191906000526020600020905b8154815290600101906020018083116102e157829003601f168201915b5050505050905090565b60008061031361059f565b90506103208185856105a7565b600191505092915050565b6000600254905090565b60008061034061059f565b905061034d858285610772565b6103588585856107fe565b60019150509392505050565b60006012905090565b60008061037861059f565b905061039981858561038a8589610518565b6103949190610e04565b6105a7565b600191505092915050565b60008060008373ffffffffffffffffffffffffffffffffffffffff1673ffffffffffffffffffffffffffffffffffffffff168152602001908152602001600020549050919050565b6060600480546103fb90610da3565b80601f016020809104026020016040519081016040528092919081815260200182805461042790610da3565b80156104745780601f1061044957610100808354040283529160200191610474565b820191906000526020600020905b81548152906001019060200180831161045757829003601f168201915b5050505050905090565b60008061048961059f565b905060006104978286610518565b9050838110156104dc576040517f08c379a00000000000000000000000000000000000000000000000000000000081526004016104d390610ecc565b60405180910390fd5b6104e982868684036105a7565b60019250505092915050565b60008061050061059f565b905061050d8185856107fe565b600191505092915050565b6000600160008473ffffffffffffffffffffffffffffffffffffffff1673ffffffffffffffffffffffffffffffffffffffff16815260200190815260200160002060008373ffffffffffffffffffffffffffffffffffffffff1673ffffffffffffffffffffffffffffffffffffffff16815260200190815260200160002054905092915050565b600033905090565b600073ffffffffffffffffffffffffffffffffffffffff168373ffffffffffffffffffffffffffffffffffffffff161415610617576040517f08c379a000000000000000000000000000000000000000000000000000000000815260040161060e90610f5e565b60405180910390fd5b600073ffffffffffffffffffffffffffffffffffffffff168273ffffffffffffffffffffffffffffffffffffffff161415610687576040517f08c379a000000000000000000000000000000000000000000000000000000000815260040161067e90610ff0565b60405180910390fd5b80600160008573ffffffffffffffffffffffffffffffffffffffff1673ffffffffffffffffffffffffffffffffffffffff16815260200190815260200160002060008473ffffffffffffffffffffffffffffffffffffffff1673ffffffffffffffffffffffffffffffffffffffff168152602001908152602001600020819055508173ffffffffffffffffffffffffffffffffffffffff168373ffffffffffffffffffffffffffffffffffffffff167f8c5be1e5ebec7d5bd14f71427d1e84f3dd0314c0f7b2291e5b200ac8c7c3b925836040516107659190610c62565b60405180910390a3505050565b600061077e8484610518565b90507fffffffffffffffffffffffffffffffffffffffffffffffffffffffffffffffff81146107f857818110156107ea576040517f08c379a00000000000000000000000000000000000000000000000000000000081526004016107e19061105c565b60405180910390fd5b6107f784848484036105a7565b5b50505050565b600073ffffffffffffffffffffffffffffffffffffffff168373ffffffffffffffffffffffffffffffffffffffff16141561086e576040517f08c379a0000000000000000000000000000000000000000000000000000000008152600401610865906110ee565b60405180910390fd5b600073ffffffffffffffffffffffffffffffffffffffff168273ffffffffffffffffffffffffffffffffffffffff1614156108de576040517f08c379a00000000000000000000000000000000000000000000000000000000081526004016108d590611180565b60405180910390fd5b6108e9838383610a7f565b60008060008573ffffffffffffffffffffffffffffffffffffffff1673ffffffffffffffffffffffffffffffffffffffff1681526020019081526020016000205490508181101561096f576040517f08c379a000000000000000000000000000000000000000000000000000000000815260040161096690611212565b60405180910390fd5b8181036000808673ffffffffffffffffffffffffffffffffffffffff1673ffffffffffffffffffffffffffffffffffffffff16815260200190815260200160002081905550816000808573ffffffffffffffffffffffffffffffffffffffff1673ffffffffffffffffffffffffffffffffffffffff1681526020019081526020016000206000828254610a029190610e04565b925050819055508273ffffffffffffffffffffffffffffffffffffffff168473ffffffffffffffffffffffffffffffffffffffff167fddf252ad1be2c89b69c2b068fc378daa952ba7f163c4a11628f55a4df523b3ef84604051610a669190610c62565b60405180910390a3610a79848484610a84565b50505050565b505050565b505050565b600081519050919050565b600082825260208201905092915050565b60005b83811015610ac3578082015181840152602081019050610aa8565b83811115610ad2576000848401525b50505050565b6000601f19601f8301169050919050565b6000610af482610a89565b610afe8185610a94565b9350610b0e818560208601610aa5565b610b1781610ad8565b840191505092915050565b60006020820190508181036000830152610b3c8184610ae9565b905092915050565b600080fd5b600073ffffffffffffffffffffffffffffffffffffffff82169050919050565b6000610b7482610b49565b9050919050565b610b8481610b69565b8114610b8f57600080fd5b50565b600081359050610ba181610b7b565b92915050565b6000819050919050565b610bba81610ba7565b8114610bc557600080fd5b50565b600081359050610bd781610bb1565b92915050565b60008060408385031215610bf457610bf3610b44565b5b6000610c0285828601610b92565b9250506020610c1385828601610bc8565b9150509250929050565b60008115159050919050565b610c3281610c1d565b82525050565b6000602082019050610c4d6000830184610c29565b92915050565b610c5c81610ba7565b82525050565b6000602082019050610c776000830184610c53565b92915050565b600080600060608486031215610c9657610c95610b44565b5b6000610ca486828701610b92565b9350506020610cb586828701610b92565b9250506040610cc686828701610bc8565b9150509250925092565b600060ff82169050919050565b610ce681610cd0565b82525050565b6000602082019050610d016000830184610cdd565b92915050565b600060208284031215610d1d57610d1c610b44565b5b6000610d2b84828501610b92565b91505092915050565b60008060408385031215610d4b57610d4a610b44565b5b6000610d5985828601610b92565b9250506020610d6a85828601610b92565b9150509250929050565b7f4e487b7100000000000000000000000000000000000000000000000000000000600052602260045260246000fd5b60006002820490506001821680610dbb57607f821691505b60208210811415610dcf57610dce610d74565b5b50919050565b7f4e487b7100000000000000000000000000000000000000000000000000000000600052601160045260246000fd5b6000610e0f82610ba7565b9150610e1a83610ba7565b9250827fffffffffffffffffffffffffffffffffffffffffffffffffffffffffffffffff03821115610e4f57610e4e610dd5565b5b828201905092915050565b7f45524332303a2064656372656173656420616c6c6f77616e63652062656c6f7760008201527f207a65726f000000000000000000000000000000000000000000000000000000602082015250565b6000610eb6602583610a94565b9150610ec182610e5a565b604082019050919050565b60006020820190508181036000830152610ee581610ea9565b9050919050565b7f45524332303a20617070726f76652066726f6d20746865207a65726f2061646460008201527f7265737300000000000000000000000000000000000000000000000000000000602082015250565b6000610f48602483610a94565b9150610f5382610eec565b604082019050919050565b60006020820190508181036000830152610f7781610f3b565b9050919050565b7f45524332303a20617070726f766520746f20746865207a65726f20616464726560008201527f7373000000000000000000000000000000000000000000000000000000000000602082015250565b6000610fda602283610a94565b9150610fe582610f7e565b604082019050919050565b6000602082019050818103600083015261100981610fcd565b9050919050565b7f45524332303a20696e73756666696369656e7420616c6c6f77616e6365000000600082015250565b6000611046601d83610a94565b915061105182611010565b602082019050919050565b6000602082019050818103600083015261107581611039565b9050919050565b7f45524332303a207472616e736665722066726f6d20746865207a65726f20616460008201527f6472657373000000000000000000000000000000000000000000000000000000602082015250565b60006110d8602583610a94565b91506110e38261107c565b604082019050919050565b60006020820190508181036000830152611107816110cb565b9050919050565b7f45524332303a207472616e7366657220746f20746865207a65726f206164647260008201527f6573730000000000000000000000000000000000000000000000000000000000602082015250565b600061116a602383610a94565b91506111758261110e565b604082019050919050565b600060208201905081810360008301526111998161115d565b9050919050565b7f45524332303a207472616e7366657220616d6f756e742065786365656473206260008201527f616c616e63650000000000000000000000000000000000000000000000000000602082015250565b60006111fc602683610a94565b9150611207826111a0565b604082019050919050565b6000602082019050818103600083015261122b816111ef565b905091905056fea2646970667358221220320c90e442fc232f99162ccd1048558cfb7d0f5c7b758152da4eda92131f744864736f6c634300080c0033a26469706673582212208156fe9a1c42cf1d075d14c5cf79055673e6e9663da6c2d7f1724e630e6b6af164736f6c634300080c0033",
  "immutableReferences": {},
  "source": "// !! This contract is not audited. Do not use in production!!\n\n//SPDX-License-Identifier: UNLICENSED\npragma solidity ^0.8.0;\n\nimport \"@openzeppelin/contracts/access/Ownable.sol\"; //  Ownable.sol\nimport \"./SampleProjectToken.sol\"; // Sample project token\nimport \"./lib/IDO.sol\"; // IDO library\nimport \"./Portfolio.sol\"; // Portfolio.sol\n\ncontract TokenCreator is Ownable {\n    // Portfolio contract\n    Portfolio public portfolioContract;\n\n    // Cooldowns for creating tokens\n    uint256 public constant COOLDOWN_TIME = 10 minutes;\n\n    // Maximum amount for creating ERC-20 token\n    uint256 public constant MAX_AMOUNT = 5;\n\n    // Users to tokens mapping\n    mapping(address => IDOLib.ERC20[]) internal userCollections;\n\n    // Cooldowns\n    mapping(address => uint256) internal cooldowns;\n\n    // Events\n    event TokenCreated(IDOLib.ERC20 infoToken);\n\n    // Modifier\n    modifier canCreateERC20() {\n        // Check for cooldown\n        require(\n            block.timestamp >= cooldowns[msg.sender],\n            \"Token creation is on cooldown\"\n        );\n\n        // Check for max amount\n        require(\n            userCollections[msg.sender].length < MAX_AMOUNT,\n            \"You can't create more than 5 tokens\"\n        );\n        _;\n    }\n\n    // Default constructor\n    constructor(Portfolio _contract) Ownable() {\n        portfolioContract = _contract;\n    }\n\n    // Get msg.sender's tokens\n    function getMyTokens() external view returns (IDOLib.ERC20[] memory) {\n        return userCollections[msg.sender];\n    }\n\n    function createToken(\n        string memory name,\n        string memory symbol,\n        uint256 totalSupply\n    ) public canCreateERC20 {\n        // Create new token\n        ProjectToken token = new ProjectToken(name, symbol, totalSupply);\n\n        // Generated token address\n        address tokenAddress = address(token);\n\n        // Temp data for mapping\n        IDOLib.ERC20 memory newERC20 = IDOLib.ERC20(\n            name,\n            symbol,\n            totalSupply,\n            tokenAddress\n        );\n\n        // Add token to mapping\n        userCollections[msg.sender].push(newERC20);\n\n        // Add token to portfolio\n        portfolioContract.addERC20(\n            msg.sender,\n            name,\n            symbol,\n            totalSupply,\n            tokenAddress\n        );\n\n        // Add cooldown\n        cooldowns[msg.sender] = block.timestamp + COOLDOWN_TIME;\n\n        // Emit event\n        emit TokenCreated(newERC20);\n    }\n\n    function getMyCooldown() external view returns (uint256) {\n        uint256 cooldown = cooldowns[msg.sender];\n\n        if (cooldown == 0) return 0;\n\n        return cooldown - block.timestamp;\n    }\n\n    // Setter function for set portfolio contract\n    function setPortfolioContract(Portfolio _contract) public onlyOwner {\n        portfolioContract = _contract;\n    }\n}\n",
  "sourcePath": "/Users/mehmetberatozturk/Documents/Github/ido-for-everyone/contracts/TokenCreator.sol",
  "compiler": {
    "name": "solc",
    "version": "0.8.12+commit.f00d7308.Emscripten.clang"
  },
  "schemaVersion": "3.4.6",
  "updatedAt": "2022-05-05T21:39:45.580Z",
  "networkType": "ethereum",
  "devdoc": {
    "kind": "dev",
    "methods": {
      "owner()": {
        "details": "Returns the address of the current owner."
      },
      "renounceOwnership()": {
        "details": "Leaves the contract without owner. It will not be possible to call `onlyOwner` functions anymore. Can only be called by the current owner. NOTE: Renouncing ownership will leave the contract without an owner, thereby removing any functionality that is only available to the owner."
      },
      "transferOwnership(address)": {
        "details": "Transfers ownership of the contract to a new account (`newOwner`). Can only be called by the current owner."
      }
    },
    "version": 1
  },
  "userdoc": {
    "kind": "user",
    "methods": {},
    "version": 1
  }
}